{
  "_format": "hh-sol-artifact-1",
  "contractName": "ArchanovaMigrator",
  "sourceName": "src/ArchanovaMigrator.sol",
  "abi": [
    {
      "inputs": [],
      "stateMutability": "nonpayable",
      "type": "constructor"
    },
    {
      "anonymous": false,
      "inputs": [
        {
          "indexed": false,
          "internalType": "address",
          "name": "archanovaAccount",
          "type": "address"
        },
        {
          "indexed": false,
          "internalType": "address",
          "name": "etherspotAccount",
          "type": "address"
        },
        {
          "indexed": false,
          "internalType": "uint256",
          "name": "value",
          "type": "uint256"
        }
      ],
      "name": "BalanceTransferred",
      "type": "event"
    },
    {
      "anonymous": false,
      "inputs": [
        {
          "indexed": false,
          "internalType": "address",
          "name": "archanovaAccount",
          "type": "address"
        },
        {
          "indexed": false,
          "internalType": "address",
          "name": "etherspotAccount",
          "type": "address"
        },
        {
          "indexed": false,
          "internalType": "bytes32",
          "name": "ensNode",
          "type": "bytes32"
        }
      ],
      "name": "ENSNodeTransferred",
      "type": "event"
    },
    {
      "anonymous": false,
      "inputs": [
        {
          "indexed": false,
          "internalType": "address",
          "name": "archanovaAccount",
          "type": "address"
        },
        {
          "indexed": false,
          "internalType": "address",
          "name": "etherspotAccount",
          "type": "address"
        },
        {
          "indexed": false,
          "internalType": "address",
          "name": "token",
          "type": "address"
        },
        {
          "indexed": false,
          "internalType": "uint256",
          "name": "tokenAmount",
          "type": "uint256"
        }
      ],
      "name": "ERC20TokenTransferred",
      "type": "event"
    },
    {
      "anonymous": false,
      "inputs": [
        {
          "indexed": false,
          "internalType": "address",
          "name": "initializer",
          "type": "address"
        }
      ],
      "name": "Initialized",
      "type": "event"
    },
    {
      "inputs": [],
      "name": "ensController",
      "outputs": [
        {
          "internalType": "contract ENSController",
          "name": "",
          "type": "address"
        }
      ],
      "stateMutability": "view",
      "type": "function"
    },
    {
      "inputs": [],
      "name": "ensRegistry",
      "outputs": [
        {
          "internalType": "contract ENSRegistry",
          "name": "",
          "type": "address"
        }
      ],
      "stateMutability": "view",
      "type": "function"
    },
    {
      "inputs": [
        {
          "internalType": "contract ENSController",
          "name": "ensController_",
          "type": "address"
        },
        {
          "internalType": "contract ENSRegistry",
          "name": "ensRegistry_",
          "type": "address"
        }
      ],
      "name": "initialize",
      "outputs": [],
      "stateMutability": "nonpayable",
      "type": "function"
    },
    {
      "inputs": [],
      "name": "isInitialized",
      "outputs": [
        {
          "internalType": "bool",
          "name": "",
          "type": "bool"
        }
      ],
      "stateMutability": "view",
      "type": "function"
    },
    {
      "inputs": [
        {
          "internalType": "address payable",
          "name": "archanovaAccount",
          "type": "address"
        },
        {
          "internalType": "address payable",
          "name": "etherspotAccount",
          "type": "address"
        },
        {
          "internalType": "uint256",
          "name": "value",
          "type": "uint256"
        },
        {
          "internalType": "bytes",
          "name": "archanovaAccountDeviceSignature",
          "type": "bytes"
        }
      ],
      "name": "transferBalance",
      "outputs": [],
      "stateMutability": "nonpayable",
      "type": "function"
    },
    {
      "inputs": [
        {
          "internalType": "address payable",
          "name": "archanovaAccount",
          "type": "address"
        },
        {
          "internalType": "address payable",
          "name": "etherspotAccount",
          "type": "address"
        },
        {
          "internalType": "bytes32",
          "name": "ensNode",
          "type": "bytes32"
        },
        {
          "internalType": "bytes",
          "name": "archanovaAccountDeviceSignature",
          "type": "bytes"
        }
      ],
      "name": "transferENSNode",
      "outputs": [],
      "stateMutability": "nonpayable",
      "type": "function"
    },
    {
      "inputs": [
        {
          "internalType": "address payable",
          "name": "archanovaAccount",
          "type": "address"
        },
        {
          "internalType": "address payable",
          "name": "etherspotAccount",
          "type": "address"
        },
        {
          "internalType": "address[]",
          "name": "tokens",
          "type": "address[]"
        },
        {
          "internalType": "uint256[]",
          "name": "tokensAmounts",
          "type": "uint256[]"
        },
        {
          "internalType": "bytes",
          "name": "archanovaAccountDeviceSignature",
          "type": "bytes"
        }
      ],
      "name": "transferERC20Tokens",
      "outputs": [],
      "stateMutability": "nonpayable",
      "type": "function"
    }
  ],
  "bytecode": "0x608060405234801561001057600080fd5b50326000806101000a81548173ffffffffffffffffffffffffffffffffffffffff021916908373ffffffffffffffffffffffffffffffffffffffff160217905550600046905080600381905550506122228061006d6000396000f3fe608060405234801561001057600080fd5b506004361061007d5760003560e01c80636d03b0b91161005b5780636d03b0b9146102695780637d73b2311461029d57806397b583b7146102d1578063c7e7cea1146103945761007d565b80632984005c14610082578063392e53cd146101e5578063485cc95514610205575b600080fd5b6101e3600480360360a081101561009857600080fd5b81019080803573ffffffffffffffffffffffffffffffffffffffff169060200190929190803573ffffffffffffffffffffffffffffffffffffffff169060200190929190803590602001906401000000008111156100f557600080fd5b82018360208201111561010757600080fd5b8035906020019184602083028401116401000000008311171561012957600080fd5b90919293919293908035906020019064010000000081111561014a57600080fd5b82018360208201111561015c57600080fd5b8035906020019184602083028401116401000000008311171561017e57600080fd5b90919293919293908035906020019064010000000081111561019f57600080fd5b8201836020820111156101b157600080fd5b803590602001918460018302840111640100000000831117156101d357600080fd5b9091929391929390505050610457565b005b6101ed610797565b60405180821515815260200191505060405180910390f35b6102676004803603604081101561021b57600080fd5b81019080803573ffffffffffffffffffffffffffffffffffffffff169060200190929190803573ffffffffffffffffffffffffffffffffffffffff1690602001909291905050506107ed565b005b6102716109a5565b604051808273ffffffffffffffffffffffffffffffffffffffff16815260200191505060405180910390f35b6102a56109cb565b604051808273ffffffffffffffffffffffffffffffffffffffff16815260200191505060405180910390f35b610392600480360360808110156102e757600080fd5b81019080803573ffffffffffffffffffffffffffffffffffffffff169060200190929190803573ffffffffffffffffffffffffffffffffffffffff169060200190929190803590602001909291908035906020019064010000000081111561034e57600080fd5b82018360208201111561036057600080fd5b8035906020019184600183028401116401000000008311171561038257600080fd5b90919293919293905050506109f1565b005b610455600480360360808110156103aa57600080fd5b81019080803573ffffffffffffffffffffffffffffffffffffffff169060200190929190803573ffffffffffffffffffffffffffffffffffffffff169060200190929190803590602001909291908035906020019064010000000081111561041157600080fd5b82018360208201111561042357600080fd5b8035906020019184600183028401116401000000008311171561044557600080fd5b9091929391929390505050610cab565b005b878783838080601f016020809104026020016040519081016040528093929190818152602001838380828437600081840152601f19601f8201169050808301925050505050505060006105da826003543060405160200180807f657468657273706f74203c3e2061726368616e6f7661206d6967726174696f6e8152506020019050604051602081830303815290604052805190602001208888604051602001808681526020018573ffffffffffffffffffffffffffffffffffffffff1660601b81526014018481526020018373ffffffffffffffffffffffffffffffffffffffff1660601b81526014018273ffffffffffffffffffffffffffffffffffffffff1660601b8152601401955050505050506040516020818303038152906040528051906020012060405160200180807f19457468657265756d205369676e6564204d6573736167653a0a333200000000815250601c0182815260200191505060405160208183030381529060405280519060200120610f6590919063ffffffff16565b90506000808573ffffffffffffffffffffffffffffffffffffffff1663e7b4cac6846040518263ffffffff1660e01b8152600401808273ffffffffffffffffffffffffffffffffffffffff16815260200191505060606040518083038186803b15801561064657600080fd5b505afa15801561065a573d6000803e3d6000fd5b505050506040513d606081101561067057600080fd5b8101908080519060200190929190805190602001909291908051906020019092919050505050915091508180156106a45750805b6106f9576040517f08c379a000000000000000000000000000000000000000000000000000000000815260040180806020018281038252603a8152602001806121dc603a913960400191505060405180910390fd5b6107878e8e8e8e80806020026020016040519081016040528093929190818152602001838360200280828437600081840152601f19601f820116905080830192505050505050508d8d80806020026020016040519081016040528093929190818152602001838360200280828437600081840152601f19601f82011690508083019250505050505050611035565b5050505050505050505050505050565b60008073ffffffffffffffffffffffffffffffffffffffff1660008054906101000a900473ffffffffffffffffffffffffffffffffffffffff1673ffffffffffffffffffffffffffffffffffffffff1614905090565b60008054906101000a900473ffffffffffffffffffffffffffffffffffffffff1673ffffffffffffffffffffffffffffffffffffffff163273ffffffffffffffffffffffffffffffffffffffff1614610891576040517f08c379a000000000000000000000000000000000000000000000000000000000815260040180806020018281038252602f8152602001806121ad602f913960400191505060405180910390fd5b60008060006101000a81548173ffffffffffffffffffffffffffffffffffffffff021916908373ffffffffffffffffffffffffffffffffffffffff16021790555081600160006101000a81548173ffffffffffffffffffffffffffffffffffffffff021916908373ffffffffffffffffffffffffffffffffffffffff16021790555080600260006101000a81548173ffffffffffffffffffffffffffffffffffffffff021916908373ffffffffffffffffffffffffffffffffffffffff1602179055507f908408e307fc569b417f6cbec5d5a06f44a0a505ac0479b47d421a4b2fd6a1e632604051808273ffffffffffffffffffffffffffffffffffffffff16815260200191505060405180910390a15050565b600160009054906101000a900473ffffffffffffffffffffffffffffffffffffffff1681565b600260009054906101000a900473ffffffffffffffffffffffffffffffffffffffff1681565b848483838080601f016020809104026020016040519081016040528093929190818152602001838380828437600081840152601f19601f820116905080830192505050505050506000610b74826003543060405160200180807f657468657273706f74203c3e2061726368616e6f7661206d6967726174696f6e8152506020019050604051602081830303815290604052805190602001208888604051602001808681526020018573ffffffffffffffffffffffffffffffffffffffff1660601b81526014018481526020018373ffffffffffffffffffffffffffffffffffffffff1660601b81526014018273ffffffffffffffffffffffffffffffffffffffff1660601b8152601401955050505050506040516020818303038152906040528051906020012060405160200180807f19457468657265756d205369676e6564204d6573736167653a0a333200000000815250601c0182815260200191505060405160208183030381529060405280519060200120610f6590919063ffffffff16565b90506000808573ffffffffffffffffffffffffffffffffffffffff1663e7b4cac6846040518263ffffffff1660e01b8152600401808273ffffffffffffffffffffffffffffffffffffffff16815260200191505060606040518083038186803b158015610be057600080fd5b505afa158015610bf4573d6000803e3d6000fd5b505050506040513d6060811015610c0a57600080fd5b810190808051906020019092919080519060200190929190805190602001909291905050505091509150818015610c3e5750805b610c93576040517f08c379a000000000000000000000000000000000000000000000000000000000815260040180806020018281038252603a8152602001806121dc603a913960400191505060405180910390fd5b610c9e8b8b8b61142e565b5050505050505050505050565b848483838080601f016020809104026020016040519081016040528093929190818152602001838380828437600081840152601f19601f820116905080830192505050505050506000610e2e826003543060405160200180807f657468657273706f74203c3e2061726368616e6f7661206d6967726174696f6e8152506020019050604051602081830303815290604052805190602001208888604051602001808681526020018573ffffffffffffffffffffffffffffffffffffffff1660601b81526014018481526020018373ffffffffffffffffffffffffffffffffffffffff1660601b81526014018273ffffffffffffffffffffffffffffffffffffffff1660601b8152601401955050505050506040516020818303038152906040528051906020012060405160200180807f19457468657265756d205369676e6564204d6573736167653a0a333200000000815250601c0182815260200191505060405160208183030381529060405280519060200120610f6590919063ffffffff16565b90506000808573ffffffffffffffffffffffffffffffffffffffff1663e7b4cac6846040518263ffffffff1660e01b8152600401808273ffffffffffffffffffffffffffffffffffffffff16815260200191505060606040518083038186803b158015610e9a57600080fd5b505afa158015610eae573d6000803e3d6000fd5b505050506040513d6060811015610ec457600080fd5b810190808051906020019092919080519060200190929190805190602001909291905050505091509150818015610ef85750805b610f4d576040517f08c379a000000000000000000000000000000000000000000000000000000000815260040180806020018281038252603a8152602001806121dc603a913960400191505060405180910390fd5b610f588b8b8b6116c9565b5050505050505050505050565b6000806000905060418351141561102b5760008060006020860151925060408601519150606086015160001a9050601b8160ff161015610fa657601b810190505b601b8160ff161480610fbb5750601c8160ff16145b156110275760018782858560405160008152602001604052604051808581526020018460ff1681526020018381526020018281526020019450505050506020604051602081039080840390855afa15801561101a573d6000803e3d6000fd5b5050506020604051035193505b5050505b8091505092915050565b60008251905060005b818110156114265760608673ffffffffffffffffffffffffffffffffffffffff16633f579f4286848151811061107057fe5b6020026020010151600063a9059cbb60e01b8a89888151811061108f57fe5b6020026020010151604051602401808373ffffffffffffffffffffffffffffffffffffffff16815260200182815260200192505050604051602081830303815290604052907bffffffffffffffffffffffffffffffffffffffffffffffffffffffff19166020820180517bffffffffffffffffffffffffffffffffffffffffffffffffffffffff83818316178352505050506040518463ffffffff1660e01b8152600401808473ffffffffffffffffffffffffffffffffffffffff16815260200183815260200180602001828103825283818151815260200191508051906020019080838360005b83811015611192578082015181840152602081019050611177565b50505050905090810190601f1680156111bf5780820380516001836020036101000a031916815260200191505b50945050505050600060405180830381600087803b1580156111e057600080fd5b505af11580156111f4573d6000803e3d6000fd5b505050506040513d6000823e3d601f19601f82011682018060405250602081101561121e57600080fd5b810190808051604051939291908464010000000082111561123e57600080fd5b8382019150602082018581111561125457600080fd5b825186600182028301116401000000008211171561127157600080fd5b8083526020830192505050908051906020019080838360005b838110156112a557808201518184015260208101905061128a565b50505050905090810190601f1680156112d25780820380516001836020036101000a031916815260200191505b506040525050509050600081511115611361578080602001905160208110156112fa57600080fd5b8101908080519060200190929190505050611360576040517f08c379a000000000000000000000000000000000000000000000000000000000815260040180806020018281038252602f81526020018061217e602f913960400191505060405180910390fd5b5b7fd0903b4583e5a0dfc2926c9a77fe8376e96e3b6ba7dc1b11fbf335668ccb64b6878787858151811061139057fe5b60200260200101518786815181106113a457fe5b6020026020010151604051808573ffffffffffffffffffffffffffffffffffffffff1681526020018473ffffffffffffffffffffffffffffffffffffffff1681526020018373ffffffffffffffffffffffffffffffffffffffff16815260200182815260200194505050505060405180910390a150808060010191505061103e565b505050505050565b8273ffffffffffffffffffffffffffffffffffffffff16633f579f428383600067ffffffffffffffff8111801561146457600080fd5b506040519080825280601f01601f1916602001820160405280156114975781602001600182028036833780820191505090505b506040518463ffffffff1660e01b8152600401808473ffffffffffffffffffffffffffffffffffffffff16815260200183815260200180602001828103825283818151815260200191508051906020019080838360005b838110156115095780820151818401526020810190506114ee565b50505050905090810190601f1680156115365780820380516001836020036101000a031916815260200191505b50945050505050600060405180830381600087803b15801561155757600080fd5b505af115801561156b573d6000803e3d6000fd5b505050506040513d6000823e3d601f19601f82011682018060405250602081101561159557600080fd5b81019080805160405193929190846401000000008211156115b557600080fd5b838201915060208201858111156115cb57600080fd5b82518660018202830111640100000000821117156115e857600080fd5b8083526020830192505050908051906020019080838360005b8381101561161c578082015181840152602081019050611601565b50505050905090810190601f1680156116495780820380516001836020036101000a031916815260200191505b50604052505050507f4163d0b06696468b3d7903f482bcd0097bd38a9a9086157479fd6c6561d24261838383604051808473ffffffffffffffffffffffffffffffffffffffff1681526020018373ffffffffffffffffffffffffffffffffffffffff168152602001828152602001935050505060405180910390a1505050565b8273ffffffffffffffffffffffffffffffffffffffff16633f579f42600260009054906101000a900473ffffffffffffffffffffffffffffffffffffffff166000631896f70a60e01b85600160009054906101000a900473ffffffffffffffffffffffffffffffffffffffff16604051602401808381526020018273ffffffffffffffffffffffffffffffffffffffff16815260200192505050604051602081830303815290604052907bffffffffffffffffffffffffffffffffffffffffffffffffffffffff19166020820180517bffffffffffffffffffffffffffffffffffffffffffffffffffffffff83818316178352505050506040518463ffffffff1660e01b8152600401808473ffffffffffffffffffffffffffffffffffffffff16815260200183815260200180602001828103825283818151815260200191508051906020019080838360005b83811015611831578082015181840152602081019050611816565b50505050905090810190601f16801561185e5780820380516001836020036101000a031916815260200191505b50945050505050600060405180830381600087803b15801561187f57600080fd5b505af1158015611893573d6000803e3d6000fd5b505050506040513d6000823e3d601f19601f8201168201806040525060208110156118bd57600080fd5b81019080805160405193929190846401000000008211156118dd57600080fd5b838201915060208201858111156118f357600080fd5b825186600182028301116401000000008211171561191057600080fd5b8083526020830192505050908051906020019080838360005b83811015611944578082015181840152602081019050611929565b50505050905090810190601f1680156119715780820380516001836020036101000a031916815260200191505b50604052505050508273ffffffffffffffffffffffffffffffffffffffff16633f579f42600160009054906101000a900473ffffffffffffffffffffffffffffffffffffffff1660006355800f8760e01b8560405160240180828152602001915050604051602081830303815290604052907bffffffffffffffffffffffffffffffffffffffffffffffffffffffff19166020820180517bffffffffffffffffffffffffffffffffffffffffffffffffffffffff83818316178352505050506040518463ffffffff1660e01b8152600401808473ffffffffffffffffffffffffffffffffffffffff16815260200183815260200180602001828103825283818151815260200191508051906020019080838360005b83811015611aa1578082015181840152602081019050611a86565b50505050905090810190601f168015611ace5780820380516001836020036101000a031916815260200191505b50945050505050600060405180830381600087803b158015611aef57600080fd5b505af1158015611b03573d6000803e3d6000fd5b505050506040513d6000823e3d601f19601f820116820180604052506020811015611b2d57600080fd5b8101908080516040519392919084640100000000821115611b4d57600080fd5b83820191506020820185811115611b6357600080fd5b8251866001820283011164010000000082111715611b8057600080fd5b8083526020830192505050908051906020019080838360005b83811015611bb4578082015181840152602081019050611b99565b50505050905090810190601f168015611be15780820380516001836020036101000a031916815260200191505b50604052505050508273ffffffffffffffffffffffffffffffffffffffff16633f579f42600160009054906101000a900473ffffffffffffffffffffffffffffffffffffffff16600063d5fa2b0060e01b8587604051602401808381526020018273ffffffffffffffffffffffffffffffffffffffff16815260200192505050604051602081830303815290604052907bffffffffffffffffffffffffffffffffffffffffffffffffffffffff19166020820180517bffffffffffffffffffffffffffffffffffffffffffffffffffffffff83818316178352505050506040518463ffffffff1660e01b8152600401808473ffffffffffffffffffffffffffffffffffffffff16815260200183815260200180602001828103825283818151815260200191508051906020019080838360005b83811015611d2f578082015181840152602081019050611d14565b50505050905090810190601f168015611d5c5780820380516001836020036101000a031916815260200191505b50945050505050600060405180830381600087803b158015611d7d57600080fd5b505af1158015611d91573d6000803e3d6000fd5b505050506040513d6000823e3d601f19601f820116820180604052506020811015611dbb57600080fd5b8101908080516040519392919084640100000000821115611ddb57600080fd5b83820191506020820185811115611df157600080fd5b8251866001820283011164010000000082111715611e0e57600080fd5b8083526020830192505050908051906020019080838360005b83811015611e42578082015181840152602081019050611e27565b50505050905090810190601f168015611e6f5780820380516001836020036101000a031916815260200191505b50604052505050508273ffffffffffffffffffffffffffffffffffffffff16633f579f42600260009054906101000a900473ffffffffffffffffffffffffffffffffffffffff166000635b0fc9c360e01b8587604051602401808381526020018273ffffffffffffffffffffffffffffffffffffffff16815260200192505050604051602081830303815290604052907bffffffffffffffffffffffffffffffffffffffffffffffffffffffff19166020820180517bffffffffffffffffffffffffffffffffffffffffffffffffffffffff83818316178352505050506040518463ffffffff1660e01b8152600401808473ffffffffffffffffffffffffffffffffffffffff16815260200183815260200180602001828103825283818151815260200191508051906020019080838360005b83811015611fbd578082015181840152602081019050611fa2565b50505050905090810190601f168015611fea5780820380516001836020036101000a031916815260200191505b50945050505050600060405180830381600087803b15801561200b57600080fd5b505af115801561201f573d6000803e3d6000fd5b505050506040513d6000823e3d601f19601f82011682018060405250602081101561204957600080fd5b810190808051604051939291908464010000000082111561206957600080fd5b8382019150602082018581111561207f57600080fd5b825186600182028301116401000000008211171561209c57600080fd5b8083526020830192505050908051906020019080838360005b838110156120d05780820151818401526020810190506120b5565b50505050905090810190601f1680156120fd5780820380516001836020036101000a031916815260200191505b50604052505050507f31535e192ff586e8ec781c584b15737846e79c3f17ebde9d9858f8dc36d3ffd8838383604051808473ffffffffffffffffffffffffffffffffffffffff1681526020018373ffffffffffffffffffffffffffffffffffffffff168152602001828152602001935050505060405180910390a150505056fe41726368616e6f76614d69677261746f723a204552433230546f6b656e207472616e73666572207265766572746564496e697469616c697a61626c653a2074782e6f726967696e206973206e6f742074686520696e697469616c697a657241726368616e6f76614d69677261746f723a20696e76616c69642061726368616e6f76614163636f756e744465766963655369676e6174757265a164736f6c634300060c000a",
  "linkReferences": {},
  "deployedLinkReferences": {}
}