{
  "_format": "hh-sol-artifact-1",
  "contractName": "ArchanovaMigrator",
  "sourceName": "src/ArchanovaMigrator.sol",
  "abi": [
    {
      "inputs": [],
      "stateMutability": "nonpayable",
      "type": "constructor"
    },
    {
      "anonymous": false,
      "inputs": [
        {
          "indexed": false,
          "internalType": "address",
          "name": "archanovaAccount",
          "type": "address"
        },
        {
          "indexed": false,
          "internalType": "address",
          "name": "etherspotAccount",
          "type": "address"
        },
        {
          "indexed": false,
          "internalType": "uint256",
          "name": "value",
          "type": "uint256"
        }
      ],
      "name": "BalanceTransferred",
      "type": "event"
    },
    {
      "anonymous": false,
      "inputs": [
        {
          "indexed": false,
          "internalType": "address",
          "name": "archanovaAccount",
          "type": "address"
        },
        {
          "indexed": false,
          "internalType": "address",
          "name": "etherspotAccount",
          "type": "address"
        },
        {
          "indexed": false,
          "internalType": "bytes32",
          "name": "ensNode",
          "type": "bytes32"
        }
      ],
      "name": "ENSNodeTransferred",
      "type": "event"
    },
    {
      "anonymous": false,
      "inputs": [
        {
          "indexed": false,
          "internalType": "address",
          "name": "archanovaAccount",
          "type": "address"
        },
        {
          "indexed": false,
          "internalType": "address",
          "name": "etherspotAccount",
          "type": "address"
        },
        {
          "indexed": false,
          "internalType": "address",
          "name": "token",
          "type": "address"
        },
        {
          "indexed": false,
          "internalType": "uint256",
          "name": "tokenAmount",
          "type": "uint256"
        }
      ],
      "name": "ERC20TokenTransferred",
      "type": "event"
    },
    {
      "anonymous": false,
      "inputs": [
        {
          "indexed": false,
          "internalType": "address",
          "name": "initializer",
          "type": "address"
        }
      ],
      "name": "Initialized",
      "type": "event"
    },
    {
      "inputs": [],
      "name": "ensController",
      "outputs": [
        {
          "internalType": "contract ENSController",
          "name": "",
          "type": "address"
        }
      ],
      "stateMutability": "view",
      "type": "function"
    },
    {
      "inputs": [],
      "name": "ensRegistry",
      "outputs": [
        {
          "internalType": "contract ENSRegistry",
          "name": "",
          "type": "address"
        }
      ],
      "stateMutability": "view",
      "type": "function"
    },
    {
      "inputs": [
        {
          "internalType": "contract ENSController",
          "name": "ensController_",
          "type": "address"
        },
        {
          "internalType": "contract ENSRegistry",
          "name": "ensRegistry_",
          "type": "address"
        }
      ],
      "name": "initialize",
      "outputs": [],
      "stateMutability": "nonpayable",
      "type": "function"
    },
    {
      "inputs": [],
      "name": "isInitialized",
      "outputs": [
        {
          "internalType": "bool",
          "name": "",
          "type": "bool"
        }
      ],
      "stateMutability": "view",
      "type": "function"
    },
    {
      "inputs": [
        {
          "internalType": "address payable",
          "name": "archanovaAccount",
          "type": "address"
        },
        {
          "internalType": "address payable",
          "name": "etherspotAccount",
          "type": "address"
        },
        {
          "internalType": "uint256",
          "name": "value",
          "type": "uint256"
        },
        {
          "internalType": "bytes",
          "name": "archanovaAccountDeviceSignature",
          "type": "bytes"
        }
      ],
      "name": "transferBalance",
      "outputs": [],
      "stateMutability": "nonpayable",
      "type": "function"
    },
    {
      "inputs": [
        {
          "internalType": "address payable",
          "name": "archanovaAccount",
          "type": "address"
        },
        {
          "internalType": "address payable",
          "name": "etherspotAccount",
          "type": "address"
        },
        {
          "internalType": "uint256",
          "name": "value",
          "type": "uint256"
        },
        {
          "internalType": "bytes32",
          "name": "ensNode",
          "type": "bytes32"
        },
        {
          "internalType": "bytes",
          "name": "archanovaAccountDeviceSignature",
          "type": "bytes"
        }
      ],
      "name": "transferBalanceAndENSNode",
      "outputs": [],
      "stateMutability": "nonpayable",
      "type": "function"
    },
    {
      "inputs": [
        {
          "internalType": "address payable",
          "name": "archanovaAccount",
          "type": "address"
        },
        {
          "internalType": "address payable",
          "name": "etherspotAccount",
          "type": "address"
        },
        {
          "internalType": "uint256",
          "name": "value",
          "type": "uint256"
        },
        {
          "internalType": "address[]",
          "name": "tokens",
          "type": "address[]"
        },
        {
          "internalType": "uint256[]",
          "name": "tokensAmounts",
          "type": "uint256[]"
        },
        {
          "internalType": "bytes",
          "name": "archanovaAccountDeviceSignature",
          "type": "bytes"
        }
      ],
      "name": "transferBalanceAndERC20Tokens",
      "outputs": [],
      "stateMutability": "nonpayable",
      "type": "function"
    },
    {
      "inputs": [
        {
          "internalType": "address payable",
          "name": "archanovaAccount",
          "type": "address"
        },
        {
          "internalType": "address payable",
          "name": "etherspotAccount",
          "type": "address"
        },
        {
          "internalType": "uint256",
          "name": "value",
          "type": "uint256"
        },
        {
          "internalType": "address[]",
          "name": "tokens",
          "type": "address[]"
        },
        {
          "internalType": "uint256[]",
          "name": "tokensAmounts",
          "type": "uint256[]"
        },
        {
          "internalType": "bytes32",
          "name": "ensNode",
          "type": "bytes32"
        },
        {
          "internalType": "bytes",
          "name": "archanovaAccountDeviceSignature",
          "type": "bytes"
        }
      ],
      "name": "transferBalanceAndERC20TokensAndENSNode",
      "outputs": [],
      "stateMutability": "nonpayable",
      "type": "function"
    },
    {
      "inputs": [
        {
          "internalType": "address payable",
          "name": "archanovaAccount",
          "type": "address"
        },
        {
          "internalType": "address payable",
          "name": "etherspotAccount",
          "type": "address"
        },
        {
          "internalType": "bytes32",
          "name": "ensNode",
          "type": "bytes32"
        },
        {
          "internalType": "bytes",
          "name": "archanovaAccountDeviceSignature",
          "type": "bytes"
        }
      ],
      "name": "transferENSNode",
      "outputs": [],
      "stateMutability": "nonpayable",
      "type": "function"
    },
    {
      "inputs": [
        {
          "internalType": "address payable",
          "name": "archanovaAccount",
          "type": "address"
        },
        {
          "internalType": "address payable",
          "name": "etherspotAccount",
          "type": "address"
        },
        {
          "internalType": "address[]",
          "name": "tokens",
          "type": "address[]"
        },
        {
          "internalType": "uint256[]",
          "name": "tokensAmounts",
          "type": "uint256[]"
        },
        {
          "internalType": "bytes",
          "name": "archanovaAccountDeviceSignature",
          "type": "bytes"
        }
      ],
      "name": "transferERC20Tokens",
      "outputs": [],
      "stateMutability": "nonpayable",
      "type": "function"
    },
    {
      "inputs": [
        {
          "internalType": "address payable",
          "name": "archanovaAccount",
          "type": "address"
        },
        {
          "internalType": "address payable",
          "name": "etherspotAccount",
          "type": "address"
        },
        {
          "internalType": "address[]",
          "name": "tokens",
          "type": "address[]"
        },
        {
          "internalType": "uint256[]",
          "name": "tokensAmounts",
          "type": "uint256[]"
        },
        {
          "internalType": "bytes32",
          "name": "ensNode",
          "type": "bytes32"
        },
        {
          "internalType": "bytes",
          "name": "archanovaAccountDeviceSignature",
          "type": "bytes"
        }
      ],
      "name": "transferERC20TokensAndENSNode",
      "outputs": [],
      "stateMutability": "nonpayable",
      "type": "function"
    }
  ],
  "bytecode": "0x608060405234801561001057600080fd5b50326000806101000a81548173ffffffffffffffffffffffffffffffffffffffff021916908373ffffffffffffffffffffffffffffffffffffffff160217905550600046905080600381905550506126168061006d6000396000f3fe608060405234801561001057600080fd5b50600436106100a95760003560e01c80636d03b0b9116100715780636d03b0b9146105795780637d73b231146105ad57806397b583b7146105e1578063bed5fada146106a4578063c7e7cea114610771578063e7cdc5d914610834576100a9565b80632984005c146100ae578063392e53cd1461021157806340c38bb614610231578063485cc9551461039e578063653ed82214610402575b600080fd5b61020f600480360360a08110156100c457600080fd5b81019080803573ffffffffffffffffffffffffffffffffffffffff169060200190929190803573ffffffffffffffffffffffffffffffffffffffff1690602001909291908035906020019064010000000081111561012157600080fd5b82018360208201111561013357600080fd5b8035906020019184602083028401116401000000008311171561015557600080fd5b90919293919293908035906020019064010000000081111561017657600080fd5b82018360208201111561018857600080fd5b803590602001918460208302840111640100000000831117156101aa57600080fd5b9091929391929390803590602001906401000000008111156101cb57600080fd5b8201836020820111156101dd57600080fd5b803590602001918460018302840111640100000000831117156101ff57600080fd5b90919293919293905050506109a1565b005b610219610a88565b60405180821515815260200191505060405180910390f35b61039c600480360360c081101561024757600080fd5b81019080803573ffffffffffffffffffffffffffffffffffffffff169060200190929190803573ffffffffffffffffffffffffffffffffffffffff16906020019092919080359060200190929190803590602001906401000000008111156102ae57600080fd5b8201836020820111156102c057600080fd5b803590602001918460208302840111640100000000831117156102e257600080fd5b90919293919293908035906020019064010000000081111561030357600080fd5b82018360208201111561031557600080fd5b8035906020019184602083028401116401000000008311171561033757600080fd5b90919293919293908035906020019064010000000081111561035857600080fd5b82018360208201111561036a57600080fd5b8035906020019184600183028401116401000000008311171561038c57600080fd5b9091929391929390505050610ade565b005b610400600480360360408110156103b457600080fd5b81019080803573ffffffffffffffffffffffffffffffffffffffff169060200190929190803573ffffffffffffffffffffffffffffffffffffffff169060200190929190505050610bd1565b005b610577600480360360e081101561041857600080fd5b81019080803573ffffffffffffffffffffffffffffffffffffffff169060200190929190803573ffffffffffffffffffffffffffffffffffffffff169060200190929190803590602001909291908035906020019064010000000081111561047f57600080fd5b82018360208201111561049157600080fd5b803590602001918460208302840111640100000000831117156104b357600080fd5b9091929391929390803590602001906401000000008111156104d457600080fd5b8201836020820111156104e657600080fd5b8035906020019184602083028401116401000000008311171561050857600080fd5b9091929391929390803590602001909291908035906020019064010000000081111561053357600080fd5b82018360208201111561054557600080fd5b8035906020019184600183028401116401000000008311171561056757600080fd5b9091929391929390505050610d89565b005b610581610e88565b604051808273ffffffffffffffffffffffffffffffffffffffff16815260200191505060405180910390f35b6105b5610eae565b604051808273ffffffffffffffffffffffffffffffffffffffff16815260200191505060405180910390f35b6106a2600480360360808110156105f757600080fd5b81019080803573ffffffffffffffffffffffffffffffffffffffff169060200190929190803573ffffffffffffffffffffffffffffffffffffffff169060200190929190803590602001909291908035906020019064010000000081111561065e57600080fd5b82018360208201111561067057600080fd5b8035906020019184600183028401116401000000008311171561069257600080fd5b9091929391929390505050610ed4565b005b61076f600480360360a08110156106ba57600080fd5b81019080803573ffffffffffffffffffffffffffffffffffffffff169060200190929190803573ffffffffffffffffffffffffffffffffffffffff16906020019092919080359060200190929190803590602001909291908035906020019064010000000081111561072b57600080fd5b82018360208201111561073d57600080fd5b8035906020019184600183028401116401000000008311171561075f57600080fd5b9091929391929390505050610f35565b005b6108326004803603608081101561078757600080fd5b81019080803573ffffffffffffffffffffffffffffffffffffffff169060200190929190803573ffffffffffffffffffffffffffffffffffffffff16906020019092919080359060200190929190803590602001906401000000008111156107ee57600080fd5b82018360208201111561080057600080fd5b8035906020019184600183028401116401000000008311171561082257600080fd5b9091929391929390505050610fa2565b005b61099f600480360360c081101561084a57600080fd5b81019080803573ffffffffffffffffffffffffffffffffffffffff169060200190929190803573ffffffffffffffffffffffffffffffffffffffff169060200190929190803590602001906401000000008111156108a757600080fd5b8201836020820111156108b957600080fd5b803590602001918460208302840111640100000000831117156108db57600080fd5b9091929391929390803590602001906401000000008111156108fc57600080fd5b82018360208201111561090e57600080fd5b8035906020019184602083028401116401000000008311171561093057600080fd5b9091929391929390803590602001909291908035906020019064010000000081111561095b57600080fd5b82018360208201111561096d57600080fd5b8035906020019184600183028401116401000000008311171561098f57600080fd5b9091929391929390505050611003565b005b6109f0888884848080601f016020809104026020016040519081016040528093929190818152602001838380828437600081840152601f19601f820116905080830192505050505050506110f6565b610a7e8888888880806020026020016040519081016040528093929190818152602001838360200280828437600081840152601f19601f82011690508083019250505050505050878780806020026020016040519081016040528093929190818152602001838360200280828437600081840152601f19601f82011690508083019250505050505050611359565b5050505050505050565b60008073ffffffffffffffffffffffffffffffffffffffff1660008054906101000a900473ffffffffffffffffffffffffffffffffffffffff1673ffffffffffffffffffffffffffffffffffffffff1614905090565b610b2d898984848080601f016020809104026020016040519081016040528093929190818152602001838380828437600081840152601f19601f820116905080830192505050505050506110f6565b610b38898989611752565b610bc68989888880806020026020016040519081016040528093929190818152602001838360200280828437600081840152601f19601f82011690508083019250505050505050878780806020026020016040519081016040528093929190818152602001838360200280828437600081840152601f19601f82011690508083019250505050505050611359565b505050505050505050565b60008054906101000a900473ffffffffffffffffffffffffffffffffffffffff1673ffffffffffffffffffffffffffffffffffffffff163273ffffffffffffffffffffffffffffffffffffffff1614610c75576040517f08c379a000000000000000000000000000000000000000000000000000000000815260040180806020018281038252602f8152602001806125a1602f913960400191505060405180910390fd5b60008060006101000a81548173ffffffffffffffffffffffffffffffffffffffff021916908373ffffffffffffffffffffffffffffffffffffffff16021790555081600160006101000a81548173ffffffffffffffffffffffffffffffffffffffff021916908373ffffffffffffffffffffffffffffffffffffffff16021790555080600260006101000a81548173ffffffffffffffffffffffffffffffffffffffff021916908373ffffffffffffffffffffffffffffffffffffffff1602179055507f908408e307fc569b417f6cbec5d5a06f44a0a505ac0479b47d421a4b2fd6a1e632604051808273ffffffffffffffffffffffffffffffffffffffff16815260200191505060405180910390a15050565b610dd88a8a84848080601f016020809104026020016040519081016040528093929190818152602001838380828437600081840152601f19601f820116905080830192505050505050506110f6565b610de38a8a8a611752565b610e718a8a898980806020026020016040519081016040528093929190818152602001838360200280828437600081840152601f19601f82011690508083019250505050505050888880806020026020016040519081016040528093929190818152602001838360200280828437600081840152601f19601f82011690508083019250505050505050611359565b610e7c8a8a856119ed565b50505050505050505050565b600160009054906101000a900473ffffffffffffffffffffffffffffffffffffffff1681565b600260009054906101000a900473ffffffffffffffffffffffffffffffffffffffff1681565b610f23858584848080601f016020809104026020016040519081016040528093929190818152602001838380828437600081840152601f19601f820116905080830192505050505050506110f6565b610f2e858585611752565b5050505050565b610f84868684848080601f016020809104026020016040519081016040528093929190818152602001838380828437600081840152601f19601f820116905080830192505050505050506110f6565b610f8f868686611752565b610f9a8686856119ed565b505050505050565b610ff1858584848080601f016020809104026020016040519081016040528093929190818152602001838380828437600081840152601f19601f820116905080830192505050505050506110f6565b610ffc8585856119ed565b5050505050565b611052898984848080601f016020809104026020016040519081016040528093929190818152602001838380828437600081840152601f19601f820116905080830192505050505050506110f6565b6110e08989898980806020026020016040519081016040528093929190818152602001838360200280828437600081840152601f19601f82011690508083019250505050505050888880806020026020016040519081016040528093929190818152602001838360200280828437600081840152601f19601f82011690508083019250505050505050611359565b6110eb8989856119ed565b505050505050505050565b6000611232826003543060405160200180807f657468657273706f74203c3e2061726368616e6f7661206d6967726174696f6e8152506020019050604051602081830303815290604052805190602001208888604051602001808681526020018573ffffffffffffffffffffffffffffffffffffffff1660601b81526014018481526020018373ffffffffffffffffffffffffffffffffffffffff1660601b81526014018273ffffffffffffffffffffffffffffffffffffffff1660601b8152601401955050505050506040516020818303038152906040528051906020012060405160200180807f19457468657265756d205369676e6564204d6573736167653a0a333200000000815250601c01828152602001915050604051602081830303815290604052805190602001206124a190919063ffffffff16565b90506000808573ffffffffffffffffffffffffffffffffffffffff1663e7b4cac6846040518263ffffffff1660e01b8152600401808273ffffffffffffffffffffffffffffffffffffffff16815260200191505060606040518083038186803b15801561129e57600080fd5b505afa1580156112b2573d6000803e3d6000fd5b505050506040513d60608110156112c857600080fd5b8101908080519060200190929190805190602001909291908051906020019092919050505050915091508180156112fc5750805b611351576040517f08c379a000000000000000000000000000000000000000000000000000000000815260040180806020018281038252603a8152602001806125d0603a913960400191505060405180910390fd5b505050505050565b60008251905060005b8181101561174a5760608673ffffffffffffffffffffffffffffffffffffffff16633f579f4286848151811061139457fe5b6020026020010151600063a9059cbb60e01b8a8988815181106113b357fe5b6020026020010151604051602401808373ffffffffffffffffffffffffffffffffffffffff16815260200182815260200192505050604051602081830303815290604052907bffffffffffffffffffffffffffffffffffffffffffffffffffffffff19166020820180517bffffffffffffffffffffffffffffffffffffffffffffffffffffffff83818316178352505050506040518463ffffffff1660e01b8152600401808473ffffffffffffffffffffffffffffffffffffffff16815260200183815260200180602001828103825283818151815260200191508051906020019080838360005b838110156114b657808201518184015260208101905061149b565b50505050905090810190601f1680156114e35780820380516001836020036101000a031916815260200191505b50945050505050600060405180830381600087803b15801561150457600080fd5b505af1158015611518573d6000803e3d6000fd5b505050506040513d6000823e3d601f19601f82011682018060405250602081101561154257600080fd5b810190808051604051939291908464010000000082111561156257600080fd5b8382019150602082018581111561157857600080fd5b825186600182028301116401000000008211171561159557600080fd5b8083526020830192505050908051906020019080838360005b838110156115c95780820151818401526020810190506115ae565b50505050905090810190601f1680156115f65780820380516001836020036101000a031916815260200191505b5060405250505090506000815111156116855780806020019051602081101561161e57600080fd5b8101908080519060200190929190505050611684576040517f08c379a000000000000000000000000000000000000000000000000000000000815260040180806020018281038252602f815260200180612572602f913960400191505060405180910390fd5b5b7fd0903b4583e5a0dfc2926c9a77fe8376e96e3b6ba7dc1b11fbf335668ccb64b687878785815181106116b457fe5b60200260200101518786815181106116c857fe5b6020026020010151604051808573ffffffffffffffffffffffffffffffffffffffff1681526020018473ffffffffffffffffffffffffffffffffffffffff1681526020018373ffffffffffffffffffffffffffffffffffffffff16815260200182815260200194505050505060405180910390a1508080600101915050611362565b505050505050565b8273ffffffffffffffffffffffffffffffffffffffff16633f579f428383600067ffffffffffffffff8111801561178857600080fd5b506040519080825280601f01601f1916602001820160405280156117bb5781602001600182028036833780820191505090505b506040518463ffffffff1660e01b8152600401808473ffffffffffffffffffffffffffffffffffffffff16815260200183815260200180602001828103825283818151815260200191508051906020019080838360005b8381101561182d578082015181840152602081019050611812565b50505050905090810190601f16801561185a5780820380516001836020036101000a031916815260200191505b50945050505050600060405180830381600087803b15801561187b57600080fd5b505af115801561188f573d6000803e3d6000fd5b505050506040513d6000823e3d601f19601f8201168201806040525060208110156118b957600080fd5b81019080805160405193929190846401000000008211156118d957600080fd5b838201915060208201858111156118ef57600080fd5b825186600182028301116401000000008211171561190c57600080fd5b8083526020830192505050908051906020019080838360005b83811015611940578082015181840152602081019050611925565b50505050905090810190601f16801561196d5780820380516001836020036101000a031916815260200191505b50604052505050507f4163d0b06696468b3d7903f482bcd0097bd38a9a9086157479fd6c6561d24261838383604051808473ffffffffffffffffffffffffffffffffffffffff1681526020018373ffffffffffffffffffffffffffffffffffffffff168152602001828152602001935050505060405180910390a1505050565b8273ffffffffffffffffffffffffffffffffffffffff16633f579f42600260009054906101000a900473ffffffffffffffffffffffffffffffffffffffff166000631896f70a60e01b85600160009054906101000a900473ffffffffffffffffffffffffffffffffffffffff16604051602401808381526020018273ffffffffffffffffffffffffffffffffffffffff16815260200192505050604051602081830303815290604052907bffffffffffffffffffffffffffffffffffffffffffffffffffffffff19166020820180517bffffffffffffffffffffffffffffffffffffffffffffffffffffffff83818316178352505050506040518463ffffffff1660e01b8152600401808473ffffffffffffffffffffffffffffffffffffffff16815260200183815260200180602001828103825283818151815260200191508051906020019080838360005b83811015611b55578082015181840152602081019050611b3a565b50505050905090810190601f168015611b825780820380516001836020036101000a031916815260200191505b50945050505050600060405180830381600087803b158015611ba357600080fd5b505af1158015611bb7573d6000803e3d6000fd5b505050506040513d6000823e3d601f19601f820116820180604052506020811015611be157600080fd5b8101908080516040519392919084640100000000821115611c0157600080fd5b83820191506020820185811115611c1757600080fd5b8251866001820283011164010000000082111715611c3457600080fd5b8083526020830192505050908051906020019080838360005b83811015611c68578082015181840152602081019050611c4d565b50505050905090810190601f168015611c955780820380516001836020036101000a031916815260200191505b50604052505050508273ffffffffffffffffffffffffffffffffffffffff16633f579f42600160009054906101000a900473ffffffffffffffffffffffffffffffffffffffff1660006355800f8760e01b8560405160240180828152602001915050604051602081830303815290604052907bffffffffffffffffffffffffffffffffffffffffffffffffffffffff19166020820180517bffffffffffffffffffffffffffffffffffffffffffffffffffffffff83818316178352505050506040518463ffffffff1660e01b8152600401808473ffffffffffffffffffffffffffffffffffffffff16815260200183815260200180602001828103825283818151815260200191508051906020019080838360005b83811015611dc5578082015181840152602081019050611daa565b50505050905090810190601f168015611df25780820380516001836020036101000a031916815260200191505b50945050505050600060405180830381600087803b158015611e1357600080fd5b505af1158015611e27573d6000803e3d6000fd5b505050506040513d6000823e3d601f19601f820116820180604052506020811015611e5157600080fd5b8101908080516040519392919084640100000000821115611e7157600080fd5b83820191506020820185811115611e8757600080fd5b8251866001820283011164010000000082111715611ea457600080fd5b8083526020830192505050908051906020019080838360005b83811015611ed8578082015181840152602081019050611ebd565b50505050905090810190601f168015611f055780820380516001836020036101000a031916815260200191505b50604052505050508273ffffffffffffffffffffffffffffffffffffffff16633f579f42600160009054906101000a900473ffffffffffffffffffffffffffffffffffffffff16600063d5fa2b0060e01b8587604051602401808381526020018273ffffffffffffffffffffffffffffffffffffffff16815260200192505050604051602081830303815290604052907bffffffffffffffffffffffffffffffffffffffffffffffffffffffff19166020820180517bffffffffffffffffffffffffffffffffffffffffffffffffffffffff83818316178352505050506040518463ffffffff1660e01b8152600401808473ffffffffffffffffffffffffffffffffffffffff16815260200183815260200180602001828103825283818151815260200191508051906020019080838360005b83811015612053578082015181840152602081019050612038565b50505050905090810190601f1680156120805780820380516001836020036101000a031916815260200191505b50945050505050600060405180830381600087803b1580156120a157600080fd5b505af11580156120b5573d6000803e3d6000fd5b505050506040513d6000823e3d601f19601f8201168201806040525060208110156120df57600080fd5b81019080805160405193929190846401000000008211156120ff57600080fd5b8382019150602082018581111561211557600080fd5b825186600182028301116401000000008211171561213257600080fd5b8083526020830192505050908051906020019080838360005b8381101561216657808201518184015260208101905061214b565b50505050905090810190601f1680156121935780820380516001836020036101000a031916815260200191505b50604052505050508273ffffffffffffffffffffffffffffffffffffffff16633f579f42600260009054906101000a900473ffffffffffffffffffffffffffffffffffffffff166000635b0fc9c360e01b8587604051602401808381526020018273ffffffffffffffffffffffffffffffffffffffff16815260200192505050604051602081830303815290604052907bffffffffffffffffffffffffffffffffffffffffffffffffffffffff19166020820180517bffffffffffffffffffffffffffffffffffffffffffffffffffffffff83818316178352505050506040518463ffffffff1660e01b8152600401808473ffffffffffffffffffffffffffffffffffffffff16815260200183815260200180602001828103825283818151815260200191508051906020019080838360005b838110156122e15780820151818401526020810190506122c6565b50505050905090810190601f16801561230e5780820380516001836020036101000a031916815260200191505b50945050505050600060405180830381600087803b15801561232f57600080fd5b505af1158015612343573d6000803e3d6000fd5b505050506040513d6000823e3d601f19601f82011682018060405250602081101561236d57600080fd5b810190808051604051939291908464010000000082111561238d57600080fd5b838201915060208201858111156123a357600080fd5b82518660018202830111640100000000821117156123c057600080fd5b8083526020830192505050908051906020019080838360005b838110156123f45780820151818401526020810190506123d9565b50505050905090810190601f1680156124215780820380516001836020036101000a031916815260200191505b50604052505050507f31535e192ff586e8ec781c584b15737846e79c3f17ebde9d9858f8dc36d3ffd8838383604051808473ffffffffffffffffffffffffffffffffffffffff1681526020018373ffffffffffffffffffffffffffffffffffffffff168152602001828152602001935050505060405180910390a1505050565b600080600090506041835114156125675760008060006020860151925060408601519150606086015160001a9050601b8160ff1610156124e257601b810190505b601b8160ff1614806124f75750601c8160ff16145b156125635760018782858560405160008152602001604052604051808581526020018460ff1681526020018381526020018281526020019450505050506020604051602081039080840390855afa158015612556573d6000803e3d6000fd5b5050506020604051035193505b5050505b809150509291505056fe41726368616e6f76614d69677261746f723a204552433230546f6b656e207472616e73666572207265766572746564496e697469616c697a61626c653a2074782e6f726967696e206973206e6f742074686520696e697469616c697a657241726368616e6f76614d69677261746f723a20696e76616c69642061726368616e6f76614163636f756e744465766963655369676e6174757265a164736f6c634300060c000a",
  "linkReferences": {},
  "deployedLinkReferences": {}
}