{
  "_format": "hh-sol-artifact-1",
  "contractName": "ArchanovaMigrator",
  "sourceName": "src/ArchanovaMigrator.sol",
  "abi": [
    {
      "inputs": [],
      "stateMutability": "nonpayable",
      "type": "constructor"
    },
    {
      "inputs": [
        {
          "internalType": "address payable",
          "name": "archanovaAccount",
          "type": "address"
        },
        {
          "internalType": "address payable",
          "name": "etherspotAccount",
          "type": "address"
        },
        {
          "internalType": "uint256",
          "name": "balance",
          "type": "uint256"
        },
        {
          "internalType": "bytes",
          "name": "archanovaAccountDeviceSignature",
          "type": "bytes"
        }
      ],
      "name": "migrateBalance",
      "outputs": [],
      "stateMutability": "nonpayable",
      "type": "function"
    }
  ],
  "bytecode": "0x608060405234801561001057600080fd5b50600046905080600081905550506106668061002d6000396000f3fe608060405234801561001057600080fd5b506004361061002b5760003560e01c806361cd973314610030575b600080fd5b6100f16004803603608081101561004657600080fd5b81019080803573ffffffffffffffffffffffffffffffffffffffff169060200190929190803573ffffffffffffffffffffffffffffffffffffffff16906020019092919080359060200190929190803590602001906401000000008111156100ad57600080fd5b8201836020820111156100bf57600080fd5b803590602001918460018302840111640100000000831117156100e157600080fd5b90919293919293905050506100f3565b005b848483838080601f016020809104026020016040519081016040528093929190818152602001838380828437600081840152601f19601f820116905080830192505050505050506000610276826000543060405160200180807f657468657273706f74203c3e2061726368616e6f7661206d6967726174696f6e8152506020019050604051602081830303815290604052805190602001208888604051602001808681526020018573ffffffffffffffffffffffffffffffffffffffff1660601b81526014018481526020018373ffffffffffffffffffffffffffffffffffffffff1660601b81526014018273ffffffffffffffffffffffffffffffffffffffff1660601b8152601401955050505050506040516020818303038152906040528051906020012060405160200180807f19457468657265756d205369676e6564204d6573736167653a0a333200000000815250601c018281526020019150506040516020818303038152906040528051906020012061036190919063ffffffff16565b90506000808573ffffffffffffffffffffffffffffffffffffffff1663e7b4cac6846040518263ffffffff1660e01b8152600401808273ffffffffffffffffffffffffffffffffffffffff16815260200191505060606040518083038186803b1580156102e257600080fd5b505afa1580156102f6573d6000803e3d6000fd5b505050506040513d606081101561030c57600080fd5b8101908080519060200190929190805190602001909291908051906020019092919050505050915091508180156103405750805b61034957600080fd5b6103548b8b8b610431565b5050505050505050505050565b600080600090506041835114156104275760008060006020860151925060408601519150606086015160001a9050601b8160ff1610156103a257601b810190505b601b8160ff1614806103b75750601c8160ff16145b156104235760018782858560405160008152602001604052604051808581526020018460ff1681526020018381526020018281526020019450505050506020604051602081039080840390855afa158015610416573d6000803e3d6000fd5b5050506020604051035193505b5050505b8091505092915050565b8273ffffffffffffffffffffffffffffffffffffffff16633f579f428383600067ffffffffffffffff8111801561046757600080fd5b506040519080825280601f01601f19166020018201604052801561049a5781602001600182028036833780820191505090505b506040518463ffffffff1660e01b8152600401808473ffffffffffffffffffffffffffffffffffffffff16815260200183815260200180602001828103825283818151815260200191508051906020019080838360005b8381101561050c5780820151818401526020810190506104f1565b50505050905090810190601f1680156105395780820380516001836020036101000a031916815260200191505b50945050505050600060405180830381600087803b15801561055a57600080fd5b505af115801561056e573d6000803e3d6000fd5b505050506040513d6000823e3d601f19601f82011682018060405250602081101561059857600080fd5b81019080805160405193929190846401000000008211156105b857600080fd5b838201915060208201858111156105ce57600080fd5b82518660018202830111640100000000821117156105eb57600080fd5b8083526020830192505050908051906020019080838360005b8381101561061f578082015181840152602081019050610604565b50505050905090810190601f16801561064c5780820380516001836020036101000a031916815260200191505b506040525050505050505056fea164736f6c634300060c000a",
  "linkReferences": {},
  "deployedLinkReferences": {}
}