{
  "address": "0x472ac45466d80AfbE58919750d6Fa4D88AC0f31f",
  "abi": [
    {
      "anonymous": false,
      "inputs": [
        {
          "indexed": false,
          "internalType": "address",
          "name": "account",
          "type": "address"
        },
        {
          "indexed": false,
          "internalType": "uint256",
          "name": "nonce",
          "type": "uint256"
        }
      ],
      "name": "NewAccountOwnerCall",
      "type": "event"
    },
    {
      "constant": true,
      "inputs": [
        {
          "internalType": "address",
          "name": "",
          "type": "address"
        }
      ],
      "name": "accounts",
      "outputs": [
        {
          "internalType": "uint256",
          "name": "nonce",
          "type": "uint256"
        }
      ],
      "payable": false,
      "stateMutability": "view",
      "type": "function"
    },
    {
      "constant": false,
      "inputs": [
        {
          "internalType": "address",
          "name": "_account",
          "type": "address"
        },
        {
          "internalType": "uint256",
          "name": "_nonce",
          "type": "uint256"
        },
        {
          "internalType": "bytes",
          "name": "_data",
          "type": "bytes"
        },
        {
          "internalType": "uint256",
          "name": "_refundGas",
          "type": "uint256"
        },
        {
          "internalType": "address",
          "name": "_erc20GasToken",
          "type": "address"
        },
        {
          "internalType": "bytes",
          "name": "_signature",
          "type": "bytes"
        }
      ],
      "name": "forwardAccountOwnerCall",
      "outputs": [],
      "payable": false,
      "stateMutability": "nonpayable",
      "type": "function"
    },
    {
      "constant": false,
      "inputs": [
        {
          "internalType": "address",
          "name": "_account",
          "type": "address"
        },
        {
          "internalType": "uint256",
          "name": "_nonce",
          "type": "uint256"
        },
        {
          "internalType": "bytes",
          "name": "_data1",
          "type": "bytes"
        },
        {
          "internalType": "bytes",
          "name": "_data2",
          "type": "bytes"
        },
        {
          "internalType": "uint256",
          "name": "_refundGas",
          "type": "uint256"
        },
        {
          "internalType": "address",
          "name": "_erc20GasToken",
          "type": "address"
        },
        {
          "internalType": "bytes",
          "name": "_signature",
          "type": "bytes"
        }
      ],
      "name": "forwardAccountOwnerCalls2",
      "outputs": [],
      "payable": false,
      "stateMutability": "nonpayable",
      "type": "function"
    },
    {
      "constant": false,
      "inputs": [
        {
          "internalType": "address",
          "name": "_account",
          "type": "address"
        },
        {
          "internalType": "uint256",
          "name": "_nonce",
          "type": "uint256"
        },
        {
          "internalType": "bytes",
          "name": "_data1",
          "type": "bytes"
        },
        {
          "internalType": "bytes",
          "name": "_data2",
          "type": "bytes"
        },
        {
          "internalType": "bytes",
          "name": "_data3",
          "type": "bytes"
        },
        {
          "internalType": "uint256",
          "name": "_refundGas",
          "type": "uint256"
        },
        {
          "internalType": "address",
          "name": "_erc20GasToken",
          "type": "address"
        },
        {
          "internalType": "bytes",
          "name": "_signature",
          "type": "bytes"
        }
      ],
      "name": "forwardAccountOwnerCalls3",
      "outputs": [],
      "payable": false,
      "stateMutability": "nonpayable",
      "type": "function"
    },
    {
      "constant": false,
      "inputs": [
        {
          "internalType": "address",
          "name": "_account",
          "type": "address"
        },
        {
          "internalType": "uint256",
          "name": "_nonce",
          "type": "uint256"
        },
        {
          "internalType": "bytes",
          "name": "_data1",
          "type": "bytes"
        },
        {
          "internalType": "bytes",
          "name": "_data2",
          "type": "bytes"
        },
        {
          "internalType": "bytes",
          "name": "_data3",
          "type": "bytes"
        },
        {
          "internalType": "bytes",
          "name": "_data4",
          "type": "bytes"
        },
        {
          "internalType": "uint256",
          "name": "_refundGas",
          "type": "uint256"
        },
        {
          "internalType": "address",
          "name": "_erc20GasToken",
          "type": "address"
        },
        {
          "internalType": "bytes",
          "name": "_signature",
          "type": "bytes"
        }
      ],
      "name": "forwardAccountOwnerCalls4",
      "outputs": [],
      "payable": false,
      "stateMutability": "nonpayable",
      "type": "function"
    },
    {
      "constant": false,
      "inputs": [
        {
          "internalType": "address",
          "name": "_account",
          "type": "address"
        },
        {
          "internalType": "uint256",
          "name": "_nonce",
          "type": "uint256"
        },
        {
          "internalType": "bytes",
          "name": "_data1",
          "type": "bytes"
        },
        {
          "internalType": "bytes",
          "name": "_data2",
          "type": "bytes"
        },
        {
          "internalType": "bytes",
          "name": "_data3",
          "type": "bytes"
        },
        {
          "internalType": "bytes",
          "name": "_data4",
          "type": "bytes"
        },
        {
          "internalType": "bytes",
          "name": "_data5",
          "type": "bytes"
        },
        {
          "internalType": "uint256",
          "name": "_refundGas",
          "type": "uint256"
        },
        {
          "internalType": "address",
          "name": "_erc20GasToken",
          "type": "address"
        },
        {
          "internalType": "bytes",
          "name": "_signature",
          "type": "bytes"
        }
      ],
      "name": "forwardAccountOwnerCalls5",
      "outputs": [],
      "payable": false,
      "stateMutability": "nonpayable",
      "type": "function"
    }
  ],
  "transactionHash": "0xb78606e97d74050d943974b991794d7b8056b14dcf19e2698216b6be64847fe4",
  "args": [],
  "solcInputHash": "2d65759aa936f218b80b5cf1af768225",
  "bytecode": "0x608060405234801561001057600080fd5b5061212e806100206000396000f3fe608060405234801561001057600080fd5b50600436106100625760003560e01c80634818c86f146100675780634b74237a1461020d5780635e5c06e214610610578063b0d58ad314610668578063c1c766821461093d578063ef0de7b914610ca9575b600080fd5b61020b600480360360c081101561007d57600080fd5b81019080803573ffffffffffffffffffffffffffffffffffffffff16906020019092919080359060200190929190803590602001906401000000008111156100c457600080fd5b8201836020820111156100d657600080fd5b803590602001918460018302840111640100000000831117156100f857600080fd5b91908080601f016020809104026020016040519081016040528093929190818152602001838380828437600081840152601f19601f82011690508083019250505050505050919291929080359060200190929190803573ffffffffffffffffffffffffffffffffffffffff1690602001909291908035906020019064010000000081111561018557600080fd5b82018360208201111561019757600080fd5b803590602001918460018302840111640100000000831117156101b957600080fd5b91908080601f016020809104026020016040519081016040528093929190818152602001838380828437600081840152601f19601f820116905080830192505050505050509192919290505050610ee6565b005b61060e600480360361014081101561022457600080fd5b81019080803573ffffffffffffffffffffffffffffffffffffffff169060200190929190803590602001909291908035906020019064010000000081111561026b57600080fd5b82018360208201111561027d57600080fd5b8035906020019184600183028401116401000000008311171561029f57600080fd5b91908080601f016020809104026020016040519081016040528093929190818152602001838380828437600081840152601f19601f8201169050808301925050505050505091929192908035906020019064010000000081111561030257600080fd5b82018360208201111561031457600080fd5b8035906020019184600183028401116401000000008311171561033657600080fd5b91908080601f016020809104026020016040519081016040528093929190818152602001838380828437600081840152601f19601f8201169050808301925050505050505091929192908035906020019064010000000081111561039957600080fd5b8201836020820111156103ab57600080fd5b803590602001918460018302840111640100000000831117156103cd57600080fd5b91908080601f016020809104026020016040519081016040528093929190818152602001838380828437600081840152601f19601f8201169050808301925050505050505091929192908035906020019064010000000081111561043057600080fd5b82018360208201111561044257600080fd5b8035906020019184600183028401116401000000008311171561046457600080fd5b91908080601f016020809104026020016040519081016040528093929190818152602001838380828437600081840152601f19601f820116905080830192505050505050509192919290803590602001906401000000008111156104c757600080fd5b8201836020820111156104d957600080fd5b803590602001918460018302840111640100000000831117156104fb57600080fd5b91908080601f016020809104026020016040519081016040528093929190818152602001838380828437600081840152601f19601f82011690508083019250505050505050919291929080359060200190929190803573ffffffffffffffffffffffffffffffffffffffff1690602001909291908035906020019064010000000081111561058857600080fd5b82018360208201111561059a57600080fd5b803590602001918460018302840111640100000000831117156105bc57600080fd5b91908080601f016020809104026020016040519081016040528093929190818152602001838380828437600081840152601f19601f820116905080830192505050505050509192919290505050610f1d565b005b6106526004803603602081101561062657600080fd5b81019080803573ffffffffffffffffffffffffffffffffffffffff169060200190929190505050610fb0565b6040518082815260200191505060405180910390f35b61093b600480360361010081101561067f57600080fd5b81019080803573ffffffffffffffffffffffffffffffffffffffff16906020019092919080359060200190929190803590602001906401000000008111156106c657600080fd5b8201836020820111156106d857600080fd5b803590602001918460018302840111640100000000831117156106fa57600080fd5b91908080601f016020809104026020016040519081016040528093929190818152602001838380828437600081840152601f19601f8201169050808301925050505050505091929192908035906020019064010000000081111561075d57600080fd5b82018360208201111561076f57600080fd5b8035906020019184600183028401116401000000008311171561079157600080fd5b91908080601f016020809104026020016040519081016040528093929190818152602001838380828437600081840152601f19601f820116905080830192505050505050509192919290803590602001906401000000008111156107f457600080fd5b82018360208201111561080657600080fd5b8035906020019184600183028401116401000000008311171561082857600080fd5b91908080601f016020809104026020016040519081016040528093929190818152602001838380828437600081840152601f19601f82011690508083019250505050505050919291929080359060200190929190803573ffffffffffffffffffffffffffffffffffffffff169060200190929190803590602001906401000000008111156108b557600080fd5b8201836020820111156108c757600080fd5b803590602001918460018302840111640100000000831117156108e957600080fd5b91908080601f016020809104026020016040519081016040528093929190818152602001838380828437600081840152601f19601f820116905080830192505050505050509192919290505050610fce565b005b610ca7600480360361012081101561095457600080fd5b81019080803573ffffffffffffffffffffffffffffffffffffffff169060200190929190803590602001909291908035906020019064010000000081111561099b57600080fd5b8201836020820111156109ad57600080fd5b803590602001918460018302840111640100000000831117156109cf57600080fd5b91908080601f016020809104026020016040519081016040528093929190818152602001838380828437600081840152601f19601f82011690508083019250505050505050919291929080359060200190640100000000811115610a3257600080fd5b820183602082011115610a4457600080fd5b80359060200191846001830284011164010000000083111715610a6657600080fd5b91908080601f016020809104026020016040519081016040528093929190818152602001838380828437600081840152601f19601f82011690508083019250505050505050919291929080359060200190640100000000811115610ac957600080fd5b820183602082011115610adb57600080fd5b80359060200191846001830284011164010000000083111715610afd57600080fd5b91908080601f016020809104026020016040519081016040528093929190818152602001838380828437600081840152601f19601f82011690508083019250505050505050919291929080359060200190640100000000811115610b6057600080fd5b820183602082011115610b7257600080fd5b80359060200191846001830284011164010000000083111715610b9457600080fd5b91908080601f016020809104026020016040519081016040528093929190818152602001838380828437600081840152601f19601f82011690508083019250505050505050919291929080359060200190929190803573ffffffffffffffffffffffffffffffffffffffff16906020019092919080359060200190640100000000811115610c2157600080fd5b820183602082011115610c3357600080fd5b80359060200191846001830284011164010000000083111715610c5557600080fd5b91908080601f016020809104026020016040519081016040528093929190818152602001838380828437600081840152601f19601f820116905080830192505050505050509192919290505050611033565b005b610ee4600480360360e0811015610cbf57600080fd5b81019080803573ffffffffffffffffffffffffffffffffffffffff1690602001909291908035906020019092919080359060200190640100000000811115610d0657600080fd5b820183602082011115610d1857600080fd5b80359060200191846001830284011164010000000083111715610d3a57600080fd5b91908080601f016020809104026020016040519081016040528093929190818152602001838380828437600081840152601f19601f82011690508083019250505050505050919291929080359060200190640100000000811115610d9d57600080fd5b820183602082011115610daf57600080fd5b80359060200191846001830284011164010000000083111715610dd157600080fd5b91908080601f016020809104026020016040519081016040528093929190818152602001838380828437600081840152601f19601f82011690508083019250505050505050919291929080359060200190929190803573ffffffffffffffffffffffffffffffffffffffff16906020019092919080359060200190640100000000811115610e5e57600080fd5b820183602082011115610e7057600080fd5b80359060200191846001830284011164010000000083111715610e9257600080fd5b91908080601f016020809104026020016040519081016040528093929190818152602001838380828437600081840152601f19601f8201169050808301925050505050505091929192905050506110af565b005b610eee61208e565b8481600060058110610efc57fe5b6020020181905250610f1487878360018888886110fd565b50505050505050565b610f2561208e565b8881600060058110610f3357fe5b60200201819052508781600160058110610f4957fe5b60200201819052508681600260058110610f5f57fe5b60200201819052508581600360058110610f7557fe5b60200201819052508481600460058110610f8b57fe5b6020020181905250610fa38b8b8360058888886110fd565b5050505050505050505050565b60006020528060005260406000206000915090508060000154905081565b610fd661208e565b8681600060058110610fe457fe5b60200201819052508581600160058110610ffa57fe5b6020020181905250848160026005811061101057fe5b602002018190525061102889898360038888886110fd565b505050505050505050565b61103b61208e565b878160006005811061104957fe5b6020020181905250868160016005811061105f57fe5b6020020181905250858160026005811061107557fe5b6020020181905250848160036005811061108b57fe5b60200201819052506110a38a8a8360048888886110fd565b50505050505050505050565b6110b761208e565b85816000600581106110c557fe5b602002018190525084816001600581106110db57fe5b60200201819052506110f388888360028888886110fd565b5050505050505050565b60608560006005811061110c57fe5b602002015190506000600190505b858110156111545761114587826005811061113157fe5b602002015183611d3090919063ffffffff16565b9150808060010191505061111a565b5060006112ec3060405180806120b660449139604401905060405180910390208b8b868a3a8b604051602001808973ffffffffffffffffffffffffffffffffffffffff1673ffffffffffffffffffffffffffffffffffffffff1660601b8152601401887bffffffffffffffffffffffffffffffffffffffffffffffffffffffff19167bffffffffffffffffffffffffffffffffffffffffffffffffffffffff191681526004018773ffffffffffffffffffffffffffffffffffffffff1673ffffffffffffffffffffffffffffffffffffffff1660601b815260140186815260200185805190602001908083835b602083106112645780518252602082019150602081019050602083039250611241565b6001836020036101000a0380198251168184511680821785525050505050509050018481526020018381526020018273ffffffffffffffffffffffffffffffffffffffff1673ffffffffffffffffffffffffffffffffffffffff1660601b81526014019850505050505050505060405160208183030381529060405280519060200120611dba565b9050876000808b73ffffffffffffffffffffffffffffffffffffffff1673ffffffffffffffffffffffffffffffffffffffff16815260200190815260200160002060000154146040518060400160405280601581526020017f496e76616c6964206163636f756e74206e6f6e636500000000000000000000008152509061140e576040517f08c379a00000000000000000000000000000000000000000000000000000000081526004018080602001828103825283818151815260200191508051906020019080838360005b838110156113d35780820151818401526020810190506113b8565b50505050905090810190601f1680156114005780820380516001836020036101000a031916815260200191505b509250505060405180910390fd5b5061143a81848b73ffffffffffffffffffffffffffffffffffffffff16611e129092919063ffffffff16565b6040518060400160405280601681526020017f496e76616c6964206d657373616765207369676e65720000000000000000000081525090611516576040517f08c379a00000000000000000000000000000000000000000000000000000000081526004018080602001828103825283818151815260200191508051906020019080838360005b838110156114db5780820151818401526020810190506114c0565b50505050905090810190601f1680156115085780820380516001836020036101000a031916815260200191505b509250505060405180910390fd5b5061156c60016000808c73ffffffffffffffffffffffffffffffffffffffff1673ffffffffffffffffffffffffffffffffffffffff16815260200190815260200160002060000154611e7390919063ffffffff16565b6000808b73ffffffffffffffffffffffffffffffffffffffff1673ffffffffffffffffffffffffffffffffffffffff168152602001908152602001600020600001819055507fabdd351df118af9f4fddc77805d3855fc9b508fd37b13ed9bda0027c30d7aafb8989604051808373ffffffffffffffffffffffffffffffffffffffff1673ffffffffffffffffffffffffffffffffffffffff1681526020018281526020019250505060405180910390a1600080600090505b878110156117df578a73ffffffffffffffffffffffffffffffffffffffff1689826005811061164f57fe5b60200201516040518082805190602001908083835b602083106116875780518252602082019150602081019050602083039250611664565b6001836020036101000a0380198251168184511680821785525050505050509050019150506000604051808303816000865af19150503d80600081146116e9576040519150601f19603f3d011682016040523d82523d6000602084013e6116ee565b606091505b505080925050816040518060400160405280600b81526020017f43616c6c206661696c6564000000000000000000000000000000000000000000815250906117d1576040517f08c379a00000000000000000000000000000000000000000000000000000000081526004018080602001828103825283818151815260200191508051906020019080838360005b8381101561179657808201518184015260208101905061177b565b50505050905090810190601f1680156117c35780820380516001836020036101000a031916815260200191505b509250505060405180910390fd5b508080600101915050611624565b506000861115611d2457600073ffffffffffffffffffffffffffffffffffffffff168573ffffffffffffffffffffffffffffffffffffffff1614611aee5760008590508a73ffffffffffffffffffffffffffffffffffffffff16633f579f4282600060405180807f7472616e7366657228616464726573732c75696e74323536290000000000000081525060190190506040518091039020338c604051602401808373ffffffffffffffffffffffffffffffffffffffff1673ffffffffffffffffffffffffffffffffffffffff16815260200182815260200192505050604051602081830303815290604052907bffffffffffffffffffffffffffffffffffffffffffffffffffffffff19166020820180517bffffffffffffffffffffffffffffffffffffffffffffffffffffffff83818316178352505050506040518463ffffffff1660e01b8152600401808473ffffffffffffffffffffffffffffffffffffffff1673ffffffffffffffffffffffffffffffffffffffff16815260200183815260200180602001828103825283818151815260200191508051906020019080838360005b838110156119a0578082015181840152602081019050611985565b50505050905090810190601f1680156119cd5780820380516001836020036101000a031916815260200191505b50945050505050600060405180830381600087803b1580156119ee57600080fd5b505af1158015611a02573d6000803e3d6000fd5b505050506040513d6000823e3d601f19601f820116820180604052506020811015611a2c57600080fd5b8101908080516040519392919084640100000000821115611a4c57600080fd5b83820191506020820185811115611a6257600080fd5b8251866001820283011164010000000082111715611a7f57600080fd5b8083526020830192505050908051906020019080838360005b83811015611ab3578082015181840152602081019050611a98565b50505050905090810190601f168015611ae05780820380516001836020036101000a031916815260200191505b506040525050505050611d23565b8973ffffffffffffffffffffffffffffffffffffffff16633f579f4233611b1e3a8a611e9290919063ffffffff16565b60006040519080825280601f01601f191660200182016040528015611b525781602001600182028038833980820191505090505b506040518463ffffffff1660e01b8152600401808473ffffffffffffffffffffffffffffffffffffffff1673ffffffffffffffffffffffffffffffffffffffff16815260200183815260200180602001828103825283818151815260200191508051906020019080838360005b83811015611bda578082015181840152602081019050611bbf565b50505050905090810190601f168015611c075780820380516001836020036101000a031916815260200191505b50945050505050600060405180830381600087803b158015611c2857600080fd5b505af1158015611c3c573d6000803e3d6000fd5b505050506040513d6000823e3d601f19601f820116820180604052506020811015611c6657600080fd5b8101908080516040519392919084640100000000821115611c8657600080fd5b83820191506020820185811115611c9c57600080fd5b8251866001820283011164010000000082111715611cb957600080fd5b8083526020830192505050908051906020019080838360005b83811015611ced578082015181840152602081019050611cd2565b50505050905090810190601f168015611d1a5780820380516001836020036101000a031916815260200191505b50604052505050505b5b50505050505050505050565b6060806040519050835180825260208201818101602087015b81831015611d665780518352602083019250602081019050611d49565b50855192508351830184528091508282019050602086015b81831015611d9b5780518352602083019250602081019050611d7e565b50601f19601f8851850115830101166040525050508091505092915050565b60008160405160200180807f19457468657265756d205369676e6564204d6573736167653a0a333200000000815250601c01828152602001915050604051602081830303815290604052805190602001209050919050565b600080611e288385611ecc90919063ffffffff16565b9050600073ffffffffffffffffffffffffffffffffffffffff168173ffffffffffffffffffffffffffffffffffffffff1614611e6b57611e688582611fae565b91505b509392505050565b600080828401905083811015611e8857600080fd5b8091505092915050565b600080831415611ea55760009050611ec6565b6000828402905082848281611eb657fe5b0414611ec157600080fd5b809150505b92915050565b6000806000806041855114611ee75760009350505050611fa8565b6020850151925060408501519150606085015160001a9050601b8160ff161015611f1257601b810190505b601b8160ff1614158015611f2a5750601c8160ff1614155b15611f3b5760009350505050611fa8565b60018682858560405160008152602001604052604051808581526020018460ff1660ff1681526020018381526020018281526020019450505050506020604051602081039080840390855afa158015611f98573d6000803e3d6000fd5b5050506020604051035193505050505b92915050565b6000808373ffffffffffffffffffffffffffffffffffffffff1663e7b4cac6846040518263ffffffff1660e01b8152600401808273ffffffffffffffffffffffffffffffffffffffff1673ffffffffffffffffffffffffffffffffffffffff16815260200191505060606040518083038186803b15801561202e57600080fd5b505afa158015612042573d6000803e3d6000fd5b505050506040513d606081101561205857600080fd5b81019080805190602001909291908051906020019092919080519060200190929190505050905050809150508091505092915050565b6040518060a001604052806005905b606081526020019060019003908161209d579050509056fe666f72776172644163636f756e744f776e657243616c6c28616464726573732c75696e743235362c62797465732c75696e743235362c616464726573732c627974657329a265627a7a7231582022149ca6fb4da7135867dadd1cf3f0262d4c2d0282b5724637a22b4ce8dd4e5664736f6c63430005110032",
  "devdoc": {
    "methods": {},
    "title": "Account Proxy V2"
  },
  "userdoc": {
    "methods": {}
  },
  "storageLayout": {
    "storage": [
      {
        "astId": 3380,
        "contract": "src/account/AccountProxyV2.sol:AccountProxyV2",
        "label": "accounts",
        "offset": 0,
        "slot": "0",
        "type": "t_mapping(t_address,t_struct(Account)3367_storage)"
      }
    ],
    "types": {
      "t_address": {
        "encoding": "inplace",
        "label": "address",
        "numberOfBytes": "20"
      },
      "t_mapping(t_address,t_struct(Account)3367_storage)": {
        "encoding": "mapping",
        "key": "t_address",
        "label": "mapping(address => struct AccountProxyV2.Account)",
        "numberOfBytes": "32",
        "value": "t_struct(Account)3367_storage"
      },
      "t_struct(Account)3367_storage": {
        "encoding": "inplace",
        "label": "struct AccountProxyV2.Account",
        "members": [
          {
            "astId": 3366,
            "contract": "src/account/AccountProxyV2.sol:AccountProxyV2",
            "label": "nonce",
            "offset": 0,
            "slot": "0",
            "type": "t_uint256"
          }
        ],
        "numberOfBytes": "32"
      },
      "t_uint256": {
        "encoding": "inplace",
        "label": "uint256",
        "numberOfBytes": "32"
      }
    }
  }
}