{
  "_format": "hh-sol-artifact-1",
  "contractName": "AccountFriendRecovery",
  "sourceName": "src/account/AccountFriendRecovery.sol",
  "abi": [
    {
      "anonymous": false,
      "inputs": [
        {
          "indexed": false,
          "internalType": "address",
          "name": "account",
          "type": "address"
        },
        {
          "indexed": false,
          "internalType": "address[]",
          "name": "friends",
          "type": "address[]"
        }
      ],
      "name": "FriendsChanged",
      "type": "event"
    },
    {
      "anonymous": false,
      "inputs": [
        {
          "indexed": false,
          "internalType": "address",
          "name": "account",
          "type": "address"
        },
        {
          "indexed": false,
          "internalType": "uint256",
          "name": "requiredFriends",
          "type": "uint256"
        }
      ],
      "name": "RequiredFriendsChanged",
      "type": "event"
    },
    {
      "constant": true,
      "inputs": [
        {
          "internalType": "address",
          "name": "",
          "type": "address"
        }
      ],
      "name": "accounts",
      "outputs": [
        {
          "internalType": "uint256",
          "name": "nonce",
          "type": "uint256"
        },
        {
          "internalType": "uint256",
          "name": "requiredFriends",
          "type": "uint256"
        }
      ],
      "payable": false,
      "stateMutability": "view",
      "type": "function"
    },
    {
      "constant": false,
      "inputs": [
        {
          "internalType": "address",
          "name": "_account",
          "type": "address"
        },
        {
          "internalType": "address",
          "name": "_device",
          "type": "address"
        },
        {
          "internalType": "address[]",
          "name": "_friends",
          "type": "address[]"
        },
        {
          "internalType": "bytes",
          "name": "_signatures",
          "type": "bytes"
        },
        {
          "internalType": "uint256",
          "name": "_gasFee",
          "type": "uint256"
        }
      ],
      "name": "recoverAccount",
      "outputs": [],
      "payable": false,
      "stateMutability": "nonpayable",
      "type": "function"
    },
    {
      "constant": false,
      "inputs": [
        {
          "internalType": "address[]",
          "name": "_friends",
          "type": "address[]"
        }
      ],
      "name": "setFriends",
      "outputs": [],
      "payable": false,
      "stateMutability": "nonpayable",
      "type": "function"
    },
    {
      "constant": false,
      "inputs": [
        {
          "internalType": "uint256",
          "name": "_requiredFriends",
          "type": "uint256"
        }
      ],
      "name": "setRequiredFriends",
      "outputs": [],
      "payable": false,
      "stateMutability": "nonpayable",
      "type": "function"
    },
    {
      "constant": false,
      "inputs": [
        {
          "internalType": "uint256",
          "name": "_requiredFriends",
          "type": "uint256"
        },
        {
          "internalType": "address[]",
          "name": "_friends",
          "type": "address[]"
        }
      ],
      "name": "setup",
      "outputs": [],
      "payable": false,
      "stateMutability": "nonpayable",
      "type": "function"
    }
  ],
  "bytecode": "0x608060405234801561001057600080fd5b5061159e806100206000396000f3fe608060405234801561001057600080fd5b50600436106100575760003560e01c80630e2983031461005c5780634d56bbc91461011e57806353f3aac61461014c5780635e5c06e2146102e5578063b8755fe214610344575b600080fd5b61011c6004803603604081101561007257600080fd5b81019080803590602001909291908035906020019064010000000081111561009957600080fd5b8201836020820111156100ab57600080fd5b803590602001918460208302840111640100000000831117156100cd57600080fd5b919080806020026020016040519081016040528093929190818152602001838360200280828437600081840152601f19601f8201169050808301925050505050505091929192905050506103fc565b005b61014a6004803603602081101561013457600080fd5b8101908080359060200190929190505050610444565b005b6102e3600480360360a081101561016257600080fd5b81019080803573ffffffffffffffffffffffffffffffffffffffff169060200190929190803573ffffffffffffffffffffffffffffffffffffffff169060200190929190803590602001906401000000008111156101bf57600080fd5b8201836020820111156101d157600080fd5b803590602001918460208302840111640100000000831117156101f357600080fd5b919080806020026020016040519081016040528093929190818152602001838360200280828437600081840152601f19601f8201169050808301925050505050505091929192908035906020019064010000000081111561025357600080fd5b82018360208201111561026557600080fd5b8035906020019184600183028401116401000000008311171561028757600080fd5b91908080601f016020809104026020016040519081016040528093929190818152602001838380828437600081840152601f19601f82011690508083019250505050505050919291929080359060200190929190505050610482565b005b610327600480360360208110156102fb57600080fd5b81019080803573ffffffffffffffffffffffffffffffffffffffff169060200190929190505050610bfa565b604051808381526020018281526020019250505060405180910390f35b6103fa6004803603602081101561035a57600080fd5b810190808035906020019064010000000081111561037757600080fd5b82018360208201111561038957600080fd5b803590602001918460208302840111640100000000831117156103ab57600080fd5b919080806020026020016040519081016040528093929190818152602001838360200280828437600081840152601f19601f820116905080830192505050505050509192919290505050610c1e565b005b610425303373ffffffffffffffffffffffffffffffffffffffff16610c5c90919063ffffffff16565b61042e57600080fd5b61043782610d3c565b61044081610df0565b5050565b61046d303373ffffffffffffffffffffffffffffffffffffffff16610c5c90919063ffffffff16565b61047657600080fd5b61047f81610d3c565b50565b60008351905060008351905060008060008973ffffffffffffffffffffffffffffffffffffffff1673ffffffffffffffffffffffffffffffffffffffff1681526020019081526020016000206001015411801561051f5750816000808973ffffffffffffffffffffffffffffffffffffffff1673ffffffffffffffffffffffffffffffffffffffff16815260200190815260200160002060010154145b801561052d57506041820281145b61053657600080fd5b60006106c7306000357fffffffff00000000000000000000000000000000000000000000000000000000168a8a6000808e73ffffffffffffffffffffffffffffffffffffffff1673ffffffffffffffffffffffffffffffffffffffff16815260200190815260200160002060000154893a604051602001808873ffffffffffffffffffffffffffffffffffffffff1673ffffffffffffffffffffffffffffffffffffffff1660601b8152601401877bffffffffffffffffffffffffffffffffffffffffffffffffffffffff19167bffffffffffffffffffffffffffffffffffffffffffffffffffffffff191681526004018673ffffffffffffffffffffffffffffffffffffffff1673ffffffffffffffffffffffffffffffffffffffff1660601b81526014018573ffffffffffffffffffffffffffffffffffffffff1673ffffffffffffffffffffffffffffffffffffffff1660601b81526014018481526020018381526020018281526020019750505050505050506040516020818303038152906040528051906020012061121c565b905060008090505b838110156108735760606106f2604183026041896112749092919063ffffffff16565b90506000808b73ffffffffffffffffffffffffffffffffffffffff1673ffffffffffffffffffffffffffffffffffffffff168152602001908152602001600020600301600089848151811061074357fe5b602002602001015173ffffffffffffffffffffffffffffffffffffffff1673ffffffffffffffffffffffffffffffffffffffff16815260200190815260200160002060009054906101000a900460ff1680156107d957506107d883828a85815181106107ab57fe5b602002602001015173ffffffffffffffffffffffffffffffffffffffff166113009092919063ffffffff16565b5b6107e257600080fd5b60008090505b85811015610864578281146108575788818151811061080357fe5b602002602001015173ffffffffffffffffffffffffffffffffffffffff1689848151811061082d57fe5b602002602001015173ffffffffffffffffffffffffffffffffffffffff16141561085657600080fd5b5b80806001019150506107e8565b505080806001019150506106cf565b506108c960016000808b73ffffffffffffffffffffffffffffffffffffffff1673ffffffffffffffffffffffffffffffffffffffff1681526020019081526020016000206000015461136190919063ffffffff16565b6000808a73ffffffffffffffffffffffffffffffffffffffff1673ffffffffffffffffffffffffffffffffffffffff168152602001908152602001600020600001819055508773ffffffffffffffffffffffffffffffffffffffff1663811d54dc8860016040518363ffffffff1660e01b8152600401808373ffffffffffffffffffffffffffffffffffffffff1673ffffffffffffffffffffffffffffffffffffffff1681526020018215151515815260200192505050600060405180830381600087803b15801561099a57600080fd5b505af11580156109ae573d6000803e3d6000fd5b505050506000841115610bf0578773ffffffffffffffffffffffffffffffffffffffff16633f579f42336109eb3a8861138090919063ffffffff16565b60006040519080825280601f01601f191660200182016040528015610a1f5781602001600182028038833980820191505090505b506040518463ffffffff1660e01b8152600401808473ffffffffffffffffffffffffffffffffffffffff1673ffffffffffffffffffffffffffffffffffffffff16815260200183815260200180602001828103825283818151815260200191508051906020019080838360005b83811015610aa7578082015181840152602081019050610a8c565b50505050905090810190601f168015610ad45780820380516001836020036101000a031916815260200191505b50945050505050600060405180830381600087803b158015610af557600080fd5b505af1158015610b09573d6000803e3d6000fd5b505050506040513d6000823e3d601f19601f820116820180604052506020811015610b3357600080fd5b8101908080516040519392919084640100000000821115610b5357600080fd5b83820191506020820185811115610b6957600080fd5b8251866001820283011164010000000082111715610b8657600080fd5b8083526020830192505050908051906020019080838360005b83811015610bba578082015181840152602081019050610b9f565b50505050905090810190601f168015610be75780820380516001836020036101000a031916815260200191505b50604052505050505b5050505050505050565b60006020528060005260406000206000915090508060000154908060010154905082565b610c47303373ffffffffffffffffffffffffffffffffffffffff16610c5c90919063ffffffff16565b610c5057600080fd5b610c5981610df0565b50565b6000808373ffffffffffffffffffffffffffffffffffffffff1663e7b4cac6846040518263ffffffff1660e01b8152600401808273ffffffffffffffffffffffffffffffffffffffff1673ffffffffffffffffffffffffffffffffffffffff16815260200191505060606040518083038186803b158015610cdc57600080fd5b505afa158015610cf0573d6000803e3d6000fd5b505050506040513d6060811015610d0657600080fd5b81019080805190602001909291908051906020019092919080519060200190929190505050905050809150508091505092915050565b806000803373ffffffffffffffffffffffffffffffffffffffff1673ffffffffffffffffffffffffffffffffffffffff168152602001908152602001600020600101819055507f66f92348ae6d17cffb78f8bb20d50b5ac8c983e02794942c183116d3add7d2c03382604051808373ffffffffffffffffffffffffffffffffffffffff1673ffffffffffffffffffffffffffffffffffffffff1681526020018281526020019250505060405180910390a150565b60008060003373ffffffffffffffffffffffffffffffffffffffff1673ffffffffffffffffffffffffffffffffffffffff16815260200190815260200160002060020180549050905060008090505b81811015610f58576000803373ffffffffffffffffffffffffffffffffffffffff1673ffffffffffffffffffffffffffffffffffffffff16815260200190815260200160002060030160008060003373ffffffffffffffffffffffffffffffffffffffff1673ffffffffffffffffffffffffffffffffffffffff1681526020019081526020016000206002018381548110610ed657fe5b9060005260206000200160009054906101000a900473ffffffffffffffffffffffffffffffffffffffff1673ffffffffffffffffffffffffffffffffffffffff1673ffffffffffffffffffffffffffffffffffffffff16815260200190815260200160002060006101000a81549060ff02191690558080600101915050610e3f565b826000803373ffffffffffffffffffffffffffffffffffffffff1673ffffffffffffffffffffffffffffffffffffffff1681526020019081526020016000206002019080519060200190610fad92919061149c565b5082519150600090505b8181101561116b576000803373ffffffffffffffffffffffffffffffffffffffff1673ffffffffffffffffffffffffffffffffffffffff168152602001908152602001600020600301600084838151811061100e57fe5b602002602001015173ffffffffffffffffffffffffffffffffffffffff1673ffffffffffffffffffffffffffffffffffffffff16815260200190815260200160002060009054906101000a900460ff161580156110ab5750600073ffffffffffffffffffffffffffffffffffffffff1683828151811061108a57fe5b602002602001015173ffffffffffffffffffffffffffffffffffffffff1614155b6110b457600080fd5b60016000803373ffffffffffffffffffffffffffffffffffffffff1673ffffffffffffffffffffffffffffffffffffffff168152602001908152602001600020600301600085848151811061110557fe5b602002602001015173ffffffffffffffffffffffffffffffffffffffff1673ffffffffffffffffffffffffffffffffffffffff16815260200190815260200160002060006101000a81548160ff0219169083151502179055508080600101915050610fb7565b7fca4c23b9ce256db47e380479ed723fa548baf50a55c53aec593bbc3c8be1bcf13384604051808373ffffffffffffffffffffffffffffffffffffffff1673ffffffffffffffffffffffffffffffffffffffff16815260200180602001828103825283818151815260200191508051906020019060200280838360005b838110156112035780820151818401526020810190506111e8565b50505050905001935050505060405180910390a1505050565b60008160405160200180807f19457468657265756d205369676e6564204d6573736167653a0a333200000000815250601c01828152602001915050604051602081830303815290604052805190602001209050919050565b60608183018451101561128657600080fd5b60608215600081146112a3576040519150602082016040526112f4565b6040519150601f8416801560200281840101858101878315602002848b0101015b818310156112e157805183526020830192506020810190506112c4565b50868552601f19601f8301166040525050505b50809150509392505050565b60008061131683856113ba90919063ffffffff16565b9050600073ffffffffffffffffffffffffffffffffffffffff168173ffffffffffffffffffffffffffffffffffffffff1614611359576113568582610c5c565b91505b509392505050565b60008082840190508381101561137657600080fd5b8091505092915050565b60008083141561139357600090506113b4565b60008284029050828482816113a457fe5b04146113af57600080fd5b809150505b92915050565b60008060008060418551146113d55760009350505050611496565b6020850151925060408501519150606085015160001a9050601b8160ff16101561140057601b810190505b601b8160ff16141580156114185750601c8160ff1614155b156114295760009350505050611496565b60018682858560405160008152602001604052604051808581526020018460ff1660ff1681526020018381526020018281526020019450505050506020604051602081039080840390855afa158015611486573d6000803e3d6000fd5b5050506020604051035193505050505b92915050565b828054828255906000526020600020908101928215611515579160200282015b828111156115145782518260006101000a81548173ffffffffffffffffffffffffffffffffffffffff021916908373ffffffffffffffffffffffffffffffffffffffff160217905550916020019190600101906114bc565b5b5090506115229190611526565b5090565b61156691905b8082111561156257600081816101000a81549073ffffffffffffffffffffffffffffffffffffffff02191690555060010161152c565b5090565b9056fea265627a7a72315820cae1bce7dc4ccaeb2bed07c2a00abfe7ef856c91ef677d1de3f8b85f94b36beb64736f6c63430005110032",
  "linkReferences": {},
  "deployedLinkReferences": {}
}