{
  "_format": "hh-sol-artifact-1",
  "contractName": "AccountProviderV2",
  "sourceName": "src/account/AccountProviderV2.sol",
  "abi": [
    {
      "inputs": [
        {
          "internalType": "address",
          "name": "_guardian",
          "type": "address"
        },
        {
          "internalType": "bytes",
          "name": "_accountContractCode",
          "type": "bytes"
        },
        {
          "internalType": "address",
          "name": "_accountProxy",
          "type": "address"
        },
        {
          "internalType": "address",
          "name": "_ens",
          "type": "address"
        }
      ],
      "payable": false,
      "stateMutability": "nonpayable",
      "type": "constructor"
    },
    {
      "anonymous": false,
      "inputs": [
        {
          "indexed": false,
          "internalType": "address",
          "name": "account",
          "type": "address"
        }
      ],
      "name": "AccountCreated",
      "type": "event"
    },
    {
      "anonymous": false,
      "inputs": [
        {
          "indexed": false,
          "internalType": "address",
          "name": "account",
          "type": "address"
        }
      ],
      "name": "AccountEnsNameUpdated",
      "type": "event"
    },
    {
      "anonymous": false,
      "inputs": [
        {
          "indexed": true,
          "internalType": "bytes32",
          "name": "node",
          "type": "bytes32"
        },
        {
          "indexed": false,
          "internalType": "address",
          "name": "addr",
          "type": "address"
        }
      ],
      "name": "AddrChanged",
      "type": "event"
    },
    {
      "anonymous": false,
      "inputs": [
        {
          "indexed": false,
          "internalType": "address",
          "name": "value",
          "type": "address"
        }
      ],
      "name": "DebugAddr",
      "type": "event"
    },
    {
      "anonymous": false,
      "inputs": [
        {
          "indexed": false,
          "internalType": "bytes32",
          "name": "value",
          "type": "bytes32"
        }
      ],
      "name": "DebugBytes32",
      "type": "event"
    },
    {
      "anonymous": false,
      "inputs": [
        {
          "indexed": false,
          "internalType": "bytes32",
          "name": "rootNode",
          "type": "bytes32"
        },
        {
          "indexed": false,
          "internalType": "address",
          "name": "owner",
          "type": "address"
        }
      ],
      "name": "EnsRootNodeAdded",
      "type": "event"
    },
    {
      "anonymous": false,
      "inputs": [
        {
          "indexed": false,
          "internalType": "bytes32",
          "name": "rootNode",
          "type": "bytes32"
        }
      ],
      "name": "EnsRootNodeReleased",
      "type": "event"
    },
    {
      "anonymous": false,
      "inputs": [
        {
          "indexed": false,
          "internalType": "bytes32",
          "name": "rootNode",
          "type": "bytes32"
        }
      ],
      "name": "EnsRootNodeVerified",
      "type": "event"
    },
    {
      "constant": false,
      "inputs": [
        {
          "internalType": "bytes32",
          "name": "_rootNode",
          "type": "bytes32"
        }
      ],
      "name": "addEnsRootNode",
      "outputs": [],
      "payable": false,
      "stateMutability": "nonpayable",
      "type": "function"
    },
    {
      "constant": true,
      "inputs": [
        {
          "internalType": "bytes32",
          "name": "_node",
          "type": "bytes32"
        }
      ],
      "name": "addr",
      "outputs": [
        {
          "internalType": "address",
          "name": "",
          "type": "address"
        }
      ],
      "payable": false,
      "stateMutability": "view",
      "type": "function"
    },
    {
      "constant": false,
      "inputs": [
        {
          "internalType": "address",
          "name": "_accountProxy",
          "type": "address"
        }
      ],
      "name": "changeAccountProxy",
      "outputs": [],
      "payable": false,
      "stateMutability": "nonpayable",
      "type": "function"
    },
    {
      "constant": false,
      "inputs": [
        {
          "internalType": "bytes32",
          "name": "_ensLabel",
          "type": "bytes32"
        },
        {
          "internalType": "bytes32",
          "name": "_ensNode",
          "type": "bytes32"
        },
        {
          "internalType": "uint256",
          "name": "_refundGas",
          "type": "uint256"
        },
        {
          "internalType": "bytes",
          "name": "_signature",
          "type": "bytes"
        }
      ],
      "name": "createAccount",
      "outputs": [],
      "payable": false,
      "stateMutability": "nonpayable",
      "type": "function"
    },
    {
      "constant": true,
      "inputs": [
        {
          "internalType": "bytes32",
          "name": "",
          "type": "bytes32"
        }
      ],
      "name": "ensRootNodes",
      "outputs": [
        {
          "internalType": "address",
          "name": "owner",
          "type": "address"
        },
        {
          "internalType": "bool",
          "name": "verified",
          "type": "bool"
        }
      ],
      "payable": false,
      "stateMutability": "view",
      "type": "function"
    },
    {
      "constant": true,
      "inputs": [],
      "name": "guardian",
      "outputs": [
        {
          "internalType": "contract AbstractAccount",
          "name": "",
          "type": "address"
        }
      ],
      "payable": false,
      "stateMutability": "view",
      "type": "function"
    },
    {
      "constant": false,
      "inputs": [
        {
          "internalType": "bytes32",
          "name": "_rootNode",
          "type": "bytes32"
        }
      ],
      "name": "releaseEnsRootNode",
      "outputs": [],
      "payable": false,
      "stateMutability": "nonpayable",
      "type": "function"
    },
    {
      "constant": false,
      "inputs": [
        {
          "internalType": "bytes32",
          "name": "_node",
          "type": "bytes32"
        },
        {
          "internalType": "address",
          "name": "_addr",
          "type": "address"
        }
      ],
      "name": "setAddr",
      "outputs": [],
      "payable": false,
      "stateMutability": "nonpayable",
      "type": "function"
    },
    {
      "constant": false,
      "inputs": [
        {
          "internalType": "uint256",
          "name": "_accountId",
          "type": "uint256"
        },
        {
          "internalType": "address",
          "name": "_device",
          "type": "address"
        },
        {
          "internalType": "bytes32",
          "name": "_ensLabel",
          "type": "bytes32"
        },
        {
          "internalType": "bytes32",
          "name": "_ensNode",
          "type": "bytes32"
        },
        {
          "internalType": "uint256",
          "name": "_refundGas",
          "type": "uint256"
        }
      ],
      "name": "unsafeCreateAccount",
      "outputs": [],
      "payable": false,
      "stateMutability": "nonpayable",
      "type": "function"
    },
    {
      "constant": false,
      "inputs": [
        {
          "internalType": "bytes32",
          "name": "_ensLabel",
          "type": "bytes32"
        },
        {
          "internalType": "bytes32",
          "name": "_ensNode",
          "type": "bytes32"
        },
        {
          "internalType": "bytes",
          "name": "_guardianSignature",
          "type": "bytes"
        }
      ],
      "name": "updateAccountEnsName",
      "outputs": [],
      "payable": false,
      "stateMutability": "nonpayable",
      "type": "function"
    },
    {
      "constant": false,
      "inputs": [
        {
          "internalType": "bytes32",
          "name": "_rootNode",
          "type": "bytes32"
        }
      ],
      "name": "verifyEnsRootNode",
      "outputs": [],
      "payable": false,
      "stateMutability": "nonpayable",
      "type": "function"
    }
  ],
  "bytecode": "0x60806040523480156200001157600080fd5b5060405162002d0a38038062002d0a833981810160405260808110156200003757600080fd5b8101908080519060200190929190805160405193929190846401000000008211156200006257600080fd5b838201915060208201858111156200007957600080fd5b82518660018202830111640100000000821117156200009757600080fd5b8083526020830192505050908051906020019080838360005b83811015620000cd578082015181840152602081019050620000b0565b50505050905090810190601f168015620000fb5780820380516001836020036101000a031916815260200191505b50604052602001805190602001909291908051906020019092919050505083818480600090805190602001906200013492919062000213565b5080805190602001206001819055505080600460006101000a81548173ffffffffffffffffffffffffffffffffffffffff021916908373ffffffffffffffffffffffffffffffffffffffff1602179055505080600560006101000a81548173ffffffffffffffffffffffffffffffffffffffff021916908373ffffffffffffffffffffffffffffffffffffffff1602179055505081600660006101000a81548173ffffffffffffffffffffffffffffffffffffffff021916908373ffffffffffffffffffffffffffffffffffffffff16021790555050505050620002c2565b828054600181600116156101000203166002900490600052602060002090601f016020900481019282601f106200025657805160ff191683800117855562000287565b8280016001018555821562000287579182015b828111156200028657825182559160200191906001019062000269565b5b5090506200029691906200029a565b5090565b620002bf91905b80821115620002bb576000816000905550600101620002a1565b5090565b90565b612a3880620002d26000396000f3fe608060405234801561001057600080fd5b50600436106100a95760003560e01c8063452a932011610071578063452a9320146102285780635acb1c1b146102725780637ff4dfd014610341578063bb223ce4146103ba578063c6147fc8146103e8578063d5fa2b00146104c1576100a9565b806304aa74cb146100ae578063188b954f146100dc57806326d09131146101485780633b3b57de1461018c578063416ae7ff146101fa575b600080fd5b6100da600480360360208110156100c457600080fd5b810190808035906020019092919050505061050f565b005b610146600480360360a08110156100f257600080fd5b8101908080359060200190929190803573ffffffffffffffffffffffffffffffffffffffff169060200190929190803590602001909291908035906020019092919080359060200190929190505050610731565b005b61018a6004803603602081101561015e57600080fd5b81019080803573ffffffffffffffffffffffffffffffffffffffff16906020019092919050505061093d565b005b6101b8600480360360208110156101a257600080fd5b8101908080359060200190929190505050610ae4565b604051808273ffffffffffffffffffffffffffffffffffffffff1673ffffffffffffffffffffffffffffffffffffffff16815260200191505060405180910390f35b6102266004803603602081101561021057600080fd5b8101908080359060200190929190505050610b21565b005b610230610d9d565b604051808273ffffffffffffffffffffffffffffffffffffffff1673ffffffffffffffffffffffffffffffffffffffff16815260200191505060405180910390f35b61033f6004803603606081101561028857600080fd5b810190808035906020019092919080359060200190929190803590602001906401000000008111156102b957600080fd5b8201836020820111156102cb57600080fd5b803590602001918460018302840111640100000000831117156102ed57600080fd5b91908080601f016020809104026020016040519081016040528093929190818152602001838380828437600081840152601f19601f820116905080830192505050505050509192919290505050610dc3565b005b61036d6004803603602081101561035757600080fd5b8101908080359060200190929190505050611077565b604051808373ffffffffffffffffffffffffffffffffffffffff1673ffffffffffffffffffffffffffffffffffffffff168152602001821515151581526020019250505060405180910390f35b6103e6600480360360208110156103d057600080fd5b81019080803590602001909291905050506110c8565b005b6104bf600480360360808110156103fe57600080fd5b810190808035906020019092919080359060200190929190803590602001909291908035906020019064010000000081111561043957600080fd5b82018360208201111561044b57600080fd5b8035906020019184600183028401116401000000008311171561046d57600080fd5b91908080601f016020809104026020016040519081016040528093929190818152602001838380828437600081840152601f19601f820116905080830192505050505050509192919290505050611380565b005b61050d600480360360408110156104d757600080fd5b8101908080359060200190929190803573ffffffffffffffffffffffffffffffffffffffff1690602001909291905050506116df565b005b3073ffffffffffffffffffffffffffffffffffffffff16600460009054906101000a900473ffffffffffffffffffffffffffffffffffffffff1673ffffffffffffffffffffffffffffffffffffffff166302571be3836040518263ffffffff1660e01b81526004018082815260200191505060206040518083038186803b15801561059957600080fd5b505afa1580156105ad573d6000803e3d6000fd5b505050506040513d60208110156105c357600080fd5b810190808051906020019092919050505073ffffffffffffffffffffffffffffffffffffffff16146040518060400160405280601a81526020017f454e5320726f6f74206e6f6465206e6f74207665726966696564000000000000815250906106c7576040517f08c379a00000000000000000000000000000000000000000000000000000000081526004018080602001828103825283818151815260200191508051906020019080838360005b8381101561068c578082015181840152602081019050610671565b50505050905090810190601f1680156106b95780820380516001836020036101000a031916815260200191505b509250505060405180910390fd5b5060016002600083815260200190815260200160002060000160146101000a81548160ff0219169083151502179055507f3c1e12021a68eb78df268e4fed874721bb38a7b278d9029db9a7b2056592baf2816040518082815260200191505060405180910390a150565b3373ffffffffffffffffffffffffffffffffffffffff16600560009054906101000a900473ffffffffffffffffffffffffffffffffffffffff1673ffffffffffffffffffffffffffffffffffffffff1614806107d457506107d333600560009054906101000a900473ffffffffffffffffffffffffffffffffffffffff1673ffffffffffffffffffffffffffffffffffffffff166118d890919063ffffffff16565b5b6040518060600160405280602b81526020016129d9602b913990610893576040517f08c379a00000000000000000000000000000000000000000000000000000000081526004018080602001828103825283818151815260200191508051906020019080838360005b8381101561085857808201518184015260208101905061083d565b50505050905090810190601f1680156108855780820380516001836020036101000a031916815260200191505b509250505060405180910390fd5b506000600260f81b8660405160200180837effffffffffffffffffffffffffffffffffffffffffffffffffffffffffffff19167effffffffffffffffffffffffffffffffffffffffffffffffffffffffffffff1916815260010182815260200192505050604051602081830303815290604052805190602001209050600061091c8287856119b9565b90506000801b851461093457610933858583611e74565b5b50505050505050565b3373ffffffffffffffffffffffffffffffffffffffff16600560009054906101000a900473ffffffffffffffffffffffffffffffffffffffff1673ffffffffffffffffffffffffffffffffffffffff1614806109e057506109df33600560009054906101000a900473ffffffffffffffffffffffffffffffffffffffff1673ffffffffffffffffffffffffffffffffffffffff166118d890919063ffffffff16565b5b6040518060600160405280602b81526020016129d9602b913990610a9f576040517f08c379a00000000000000000000000000000000000000000000000000000000081526004018080602001828103825283818151815260200191508051906020019080838360005b83811015610a64578082015181840152602081019050610a49565b50505050905090810190601f168015610a915780820380516001836020036101000a031916815260200191505b509250505060405180910390fd5b5080600660006101000a81548173ffffffffffffffffffffffffffffffffffffffff021916908373ffffffffffffffffffffffffffffffffffffffff16021790555050565b60006003600083815260200190815260200160002060009054906101000a900473ffffffffffffffffffffffffffffffffffffffff169050919050565b3373ffffffffffffffffffffffffffffffffffffffff16600460009054906101000a900473ffffffffffffffffffffffffffffffffffffffff1673ffffffffffffffffffffffffffffffffffffffff166302571be3836040518263ffffffff1660e01b81526004018082815260200191505060206040518083038186803b158015610bab57600080fd5b505afa158015610bbf573d6000803e3d6000fd5b505050506040513d6020811015610bd557600080fd5b810190808051906020019092919050505073ffffffffffffffffffffffffffffffffffffffff16146040518060400160405280601c81526020017f53656e646572206973206e6f7420454e53206e6f6465206f776e65720000000081525090610cd9576040517f08c379a00000000000000000000000000000000000000000000000000000000081526004018080602001828103825283818151815260200191508051906020019080838360005b83811015610c9e578082015181840152602081019050610c83565b50505050905090810190601f168015610ccb5780820380516001836020036101000a031916815260200191505b509250505060405180910390fd5b50336002600083815260200190815260200160002060000160006101000a81548173ffffffffffffffffffffffffffffffffffffffff021916908373ffffffffffffffffffffffffffffffffffffffff1602179055507f44a96c3928a5c6ba670970f10868d09235a6b7a5770c2ebbf244e2228e546f5c8133604051808381526020018273ffffffffffffffffffffffffffffffffffffffff1673ffffffffffffffffffffffffffffffffffffffff1681526020019250505060405180910390a150565b600560009054906101000a900473ffffffffffffffffffffffffffffffffffffffff1681565b6000610ed4306000357fffffffff0000000000000000000000000000000000000000000000000000000016868633604051602001808673ffffffffffffffffffffffffffffffffffffffff1673ffffffffffffffffffffffffffffffffffffffff1660601b8152601401857bffffffffffffffffffffffffffffffffffffffffffffffffffffffff19167bffffffffffffffffffffffffffffffffffffffffffffffffffffffff191681526004018481526020018381526020018273ffffffffffffffffffffffffffffffffffffffff1673ffffffffffffffffffffffffffffffffffffffff1660601b81526014019550505050505060405160208183030381529060405280519060200120612646565b9050610f2681836001600560009054906101000a900473ffffffffffffffffffffffffffffffffffffffff1673ffffffffffffffffffffffffffffffffffffffff1661269e909392919063ffffffff16565b6040518060400160405280601181526020017f496e76616c6964207369676e617475726500000000000000000000000000000081525090611002576040517f08c379a00000000000000000000000000000000000000000000000000000000081526004018080602001828103825283818151815260200191508051906020019080838360005b83811015610fc7578082015181840152602081019050610fac565b50505050905090810190601f168015610ff45780820380516001836020036101000a031916815260200191505b509250505060405180910390fd5b5061100e848433611e74565b7f7eaf47b80dadd049c59d75e4fea0cff3ac993d779967e004590899fb0ce321f633604051808273ffffffffffffffffffffffffffffffffffffffff1673ffffffffffffffffffffffffffffffffffffffff16815260200191505060405180910390a150505050565b60026020528060005260406000206000915090508060000160009054906101000a900473ffffffffffffffffffffffffffffffffffffffff16908060000160149054906101000a900460ff16905082565b3373ffffffffffffffffffffffffffffffffffffffff166002600083815260200190815260200160002060000160009054906101000a900473ffffffffffffffffffffffffffffffffffffffff1673ffffffffffffffffffffffffffffffffffffffff16146040518060400160405280601c81526020017f53656e646572206973206e6f7420454e53206e6f6465206f776e65720000000081525090611209576040517f08c379a00000000000000000000000000000000000000000000000000000000081526004018080602001828103825283818151815260200191508051906020019080838360005b838110156111ce5780820151818401526020810190506111b3565b50505050905090810190601f1680156111fb5780820380516001836020036101000a031916815260200191505b509250505060405180910390fd5b506002600082815260200190815260200160002060000160149054906101000a900460ff16156112f557600460009054906101000a900473ffffffffffffffffffffffffffffffffffffffff1673ffffffffffffffffffffffffffffffffffffffff16635b0fc9c382336040518363ffffffff1660e01b8152600401808381526020018273ffffffffffffffffffffffffffffffffffffffff1673ffffffffffffffffffffffffffffffffffffffff16815260200192505050600060405180830381600087803b1580156112dc57600080fd5b505af11580156112f0573d6000803e3d6000fd5b505050505b60026000828152602001908152602001600020600080820160006101000a81549073ffffffffffffffffffffffffffffffffffffffff02191690556000820160146101000a81549060ff021916905550507fc98be4d6a6f25550c39fb4e66d7ecd9ed01b3a569eff063b00e6608270d31f3d816040518082815260200191505060405180910390a150565b3373ffffffffffffffffffffffffffffffffffffffff16600560009054906101000a900473ffffffffffffffffffffffffffffffffffffffff1673ffffffffffffffffffffffffffffffffffffffff161480611423575061142233600560009054906101000a900473ffffffffffffffffffffffffffffffffffffffff1673ffffffffffffffffffffffffffffffffffffffff166118d890919063ffffffff16565b5b6040518060600160405280602b81526020016129d9602b9139906114e2576040517f08c379a00000000000000000000000000000000000000000000000000000000081526004018080602001828103825283818151815260200191508051906020019080838360005b838110156114a757808201518184015260208101905061148c565b50505050905090810190601f1680156114d45780820380516001836020036101000a031916815260200191505b509250505060405180910390fd5b5060006115df826115d1306000357fffffffff00000000000000000000000000000000000000000000000000000000168989893a604051602001808773ffffffffffffffffffffffffffffffffffffffff1673ffffffffffffffffffffffffffffffffffffffff1660601b8152601401867bffffffffffffffffffffffffffffffffffffffffffffffffffffffff19167bffffffffffffffffffffffffffffffffffffffffffffffffffffffff19168152600401858152602001848152602001838152602001828152602001965050505050505060405160208183030381529060405280519060200120612646565b61271890919063ffffffff16565b90506000600160f81b82604051602001808273ffffffffffffffffffffffffffffffffffffffff1673ffffffffffffffffffffffffffffffffffffffff1660601b81526014019150506040516020818303038152906040528051906020012060405160200180837effffffffffffffffffffffffffffffffffffffffffffffffffffffffffffff19167effffffffffffffffffffffffffffffffffffffffffffffffffffffffffffff191681526001018281526020019250505060405160208183030381529060405280519060200120905060006116be8284876119b9565b90506000801b87146116d6576116d5878783611e74565b5b50505050505050565b3373ffffffffffffffffffffffffffffffffffffffff166003600084815260200190815260200160002060009054906101000a900473ffffffffffffffffffffffffffffffffffffffff1673ffffffffffffffffffffffffffffffffffffffff16146040518060400160405280601c81526020017f53656e646572206973206e6f7420454e53206e6f6465206f776e6572000000008152509061181d576040517f08c379a00000000000000000000000000000000000000000000000000000000081526004018080602001828103825283818151815260200191508051906020019080838360005b838110156117e25780820151818401526020810190506117c7565b50505050905090810190601f16801561180f5780820380516001836020036101000a031916815260200191505b509250505060405180910390fd5b50806003600084815260200190815260200160002060006101000a81548173ffffffffffffffffffffffffffffffffffffffff021916908373ffffffffffffffffffffffffffffffffffffffff160217905550817f52d7d861f09ab3d26239d492e8968629f95e9e318cf0b73bfddc441522a15fd282604051808273ffffffffffffffffffffffffffffffffffffffff1673ffffffffffffffffffffffffffffffffffffffff16815260200191505060405180910390a25050565b6000808373ffffffffffffffffffffffffffffffffffffffff1663e7b4cac6846040518263ffffffff1660e01b8152600401808273ffffffffffffffffffffffffffffffffffffffff1673ffffffffffffffffffffffffffffffffffffffff16815260200191505060606040518083038186803b15801561195857600080fd5b505afa15801561196c573d6000803e3d6000fd5b505050506040513d606081101561198257600080fd5b8101908080519060200190929190805190602001909291908051906020019092919050505090915050809150508091505092915050565b6000806119c5856127fa565b90506000831115611c05578073ffffffffffffffffffffffffffffffffffffffff16633f579f4233611a003a876128bc90919063ffffffff16565b60006040519080825280601f01601f191660200182016040528015611a345781602001600182028038833980820191505090505b506040518463ffffffff1660e01b8152600401808473ffffffffffffffffffffffffffffffffffffffff1673ffffffffffffffffffffffffffffffffffffffff16815260200183815260200180602001828103825283818151815260200191508051906020019080838360005b83811015611abc578082015181840152602081019050611aa1565b50505050905090810190601f168015611ae95780820380516001836020036101000a031916815260200191505b50945050505050600060405180830381600087803b158015611b0a57600080fd5b505af1158015611b1e573d6000803e3d6000fd5b505050506040513d6000823e3d601f19601f820116820180604052506020811015611b4857600080fd5b8101908080516040519392919084640100000000821115611b6857600080fd5b83820191506020820185811115611b7e57600080fd5b8251866001820283011164010000000082111715611b9b57600080fd5b8083526020830192505050908051906020019080838360005b83811015611bcf578082015181840152602081019050611bb4565b50505050905090810190601f168015611bfc5780820380516001836020036101000a031916815260200191505b50604052505050505b8073ffffffffffffffffffffffffffffffffffffffff1663811d54dc8560016040518363ffffffff1660e01b8152600401808373ffffffffffffffffffffffffffffffffffffffff1673ffffffffffffffffffffffffffffffffffffffff1681526020018215151515815260200192505050600060405180830381600087803b158015611c9157600080fd5b505af1158015611ca5573d6000803e3d6000fd5b505050508073ffffffffffffffffffffffffffffffffffffffff1663811d54dc600660009054906101000a900473ffffffffffffffffffffffffffffffffffffffff1660016040518363ffffffff1660e01b8152600401808373ffffffffffffffffffffffffffffffffffffffff1673ffffffffffffffffffffffffffffffffffffffff1681526020018215151515815260200192505050600060405180830381600087803b158015611d5757600080fd5b505af1158015611d6b573d6000803e3d6000fd5b505050508073ffffffffffffffffffffffffffffffffffffffff16631f7b6324306040518263ffffffff1660e01b8152600401808273ffffffffffffffffffffffffffffffffffffffff1673ffffffffffffffffffffffffffffffffffffffff168152602001915050600060405180830381600087803b158015611dee57600080fd5b505af1158015611e02573d6000803e3d6000fd5b505050507f805996f252884581e2f74cf3d2b03564d5ec26ccc90850ae12653dc1b72d1fa281604051808273ffffffffffffffffffffffffffffffffffffffff1673ffffffffffffffffffffffffffffffffffffffff16815260200191505060405180910390a1809150509392505050565b600073ffffffffffffffffffffffffffffffffffffffff166002600084815260200190815260200160002060000160009054906101000a900473ffffffffffffffffffffffffffffffffffffffff1673ffffffffffffffffffffffffffffffffffffffff1614156040518060400160405280601b81526020017f454e5320726f6f74206e6f646520646f65736e2774206578697374000000000081525090611fb7576040517f08c379a00000000000000000000000000000000000000000000000000000000081526004018080602001828103825283818151815260200191508051906020019080838360005b83811015611f7c578082015181840152602081019050611f61565b50505050905090810190601f168015611fa95780820380516001836020036101000a031916815260200191505b509250505060405180910390fd5b506002600083815260200190815260200160002060000160149054906101000a900460ff166040518060400160405280601a81526020017f454e5320726f6f74206e6f6465206e6f74207665726966696564000000000000815250906120b8576040517f08c379a00000000000000000000000000000000000000000000000000000000081526004018080602001828103825283818151815260200191508051906020019080838360005b8381101561207d578082015181840152602081019050612062565b50505050905090810190601f1680156120aa5780820380516001836020036101000a031916815260200191505b509250505060405180910390fd5b50600082846040516020018083815260200182815260200192505050604051602081830303815290604052805190602001209050600073ffffffffffffffffffffffffffffffffffffffff166003600083815260200190815260200160002060009054906101000a900473ffffffffffffffffffffffffffffffffffffffff1673ffffffffffffffffffffffffffffffffffffffff16146040518060400160405280601781526020017f454e53206c6162656c20616c72656164792074616b656e0000000000000000008152509061222b576040517f08c379a00000000000000000000000000000000000000000000000000000000081526004018080602001828103825283818151815260200191508051906020019080838360005b838110156121f05780820151818401526020810190506121d5565b50505050905090810190601f16801561221d5780820380516001836020036101000a031916815260200191505b509250505060405180910390fd5b50816003600083815260200190815260200160002060006101000a81548173ffffffffffffffffffffffffffffffffffffffff021916908373ffffffffffffffffffffffffffffffffffffffff1602179055506060600460009054906101000a900473ffffffffffffffffffffffffffffffffffffffff1673ffffffffffffffffffffffffffffffffffffffff166306ab5923905060e01b848630604051602401808481526020018381526020018273ffffffffffffffffffffffffffffffffffffffff1673ffffffffffffffffffffffffffffffffffffffff1681526020019350505050604051602081830303815290604052907bffffffffffffffffffffffffffffffffffffffffffffffffffffffff19166020820180517bffffffffffffffffffffffffffffffffffffffffffffffffffffffff838183161783525050505090506000600460009054906101000a900473ffffffffffffffffffffffffffffffffffffffff1673ffffffffffffffffffffffffffffffffffffffff16826040518082805190602001908083835b602083106123de57805182526020820191506020810190506020830392506123bb565b6001836020036101000a0380198251168184511680821785525050505050509050019150506000604051808303816000865af19150503d8060008114612440576040519150601f19603f3d011682016040523d82523d6000602084013e612445565b606091505b50509050806124bc576040517f08c379a000000000000000000000000000000000000000000000000000000000815260040180806020018281038252601c8152602001807f526576657274656420656e732e7365745375626e6f64654f776e65720000000081525060200191505060405180910390fd5b600460009054906101000a900473ffffffffffffffffffffffffffffffffffffffff1673ffffffffffffffffffffffffffffffffffffffff16631896f70a84306040518363ffffffff1660e01b8152600401808381526020018273ffffffffffffffffffffffffffffffffffffffff1673ffffffffffffffffffffffffffffffffffffffff16815260200192505050600060405180830381600087803b15801561256557600080fd5b505af1158015612579573d6000803e3d6000fd5b50505050600460009054906101000a900473ffffffffffffffffffffffffffffffffffffffff1673ffffffffffffffffffffffffffffffffffffffff16635b0fc9c384866040518363ffffffff1660e01b8152600401808381526020018273ffffffffffffffffffffffffffffffffffffffff1673ffffffffffffffffffffffffffffffffffffffff16815260200192505050600060405180830381600087803b15801561262657600080fd5b505af115801561263a573d6000803e3d6000fd5b50505050505050505050565b60008160405160200180807f19457468657265756d205369676e6564204d6573736167653a0a333200000000815250601c01828152602001915050604051602081830303815290604052805190602001209050919050565b6000806126b4848661271890919063ffffffff16565b9050600073ffffffffffffffffffffffffffffffffffffffff168173ffffffffffffffffffffffffffffffffffffffff161461270f578215612701576126fa86826118d8565b915061270e565b61270b86826128f6565b91505b5b50949350505050565b600080600080604185511461273357600093505050506127f4565b6020850151925060408501519150606085015160001a9050601b8160ff16101561275e57601b810190505b601b8160ff16141580156127765750601c8160ff1614155b1561278757600093505050506127f4565b60018682858560405160008152602001604052604051808581526020018460ff1660ff1681526020018381526020018281526020019450505050506020604051602081039080840390855afa1580156127e4573d6000803e3d6000fd5b5050506020604051035193505050505b92915050565b6000606060008054600181600116156101000203166002900480601f0160208091040260200160405190810160405280929190818152602001828054600181600116156101000203166002900480156128945780601f1061286957610100808354040283529160200191612894565b820191906000526020600020905b81548152906001019060200180831161287757829003601f168201915b505050505090506020810181518481836000f59350833b6128b457600080fd5b505050919050565b6000808314156128cf57600090506128f0565b60008284029050828482816128e057fe5b04146128eb57600080fd5b809150505b92915050565b6000808373ffffffffffffffffffffffffffffffffffffffff1663e7b4cac6846040518263ffffffff1660e01b8152600401808273ffffffffffffffffffffffffffffffffffffffff1673ffffffffffffffffffffffffffffffffffffffff16815260200191505060606040518083038186803b15801561297657600080fd5b505afa15801561298a573d6000803e3d6000fd5b505050506040513d60608110156129a057600080fd5b81019080805190602001909291908051906020019092919080519060200190929190505050909150905080915050809150509291505056fe53656e646572206973206e6f74206120677561726469616e206f7220677561726469616e20646576696365a265627a7a72315820969901b6171c9970bf6e8efca778734a02de958aeb05d6ad9f7e910a664b6e6164736f6c63430005110032",
  "linkReferences": {},
  "deployedLinkReferences": {}
}