{
  "_format": "hh-sol-artifact-1",
  "contractName": "AddressLibraryWrapper",
  "sourceName": "src/address/AddressLibraryWrapper.sol",
  "abi": [
    {
      "inputs": [],
      "payable": false,
      "stateMutability": "nonpayable",
      "type": "constructor"
    },
    {
      "constant": true,
      "inputs": [
        {
          "internalType": "address",
          "name": "_address",
          "type": "address"
        },
        {
          "internalType": "bytes32",
          "name": "_messageHash",
          "type": "bytes32"
        },
        {
          "internalType": "bytes",
          "name": "_signature",
          "type": "bytes"
        },
        {
          "internalType": "bool",
          "name": "_strict",
          "type": "bool"
        }
      ],
      "name": "verifySignature",
      "outputs": [
        {
          "internalType": "bool",
          "name": "",
          "type": "bool"
        }
      ],
      "payable": false,
      "stateMutability": "view",
      "type": "function"
    }
  ],
  "bytecode": "0x608060405234801561001057600080fd5b506105e5806100206000396000f3fe608060405234801561001057600080fd5b506004361061002b5760003560e01c806384343d8514610030575b600080fd5b61011f6004803603608081101561004657600080fd5b81019080803573ffffffffffffffffffffffffffffffffffffffff169060200190929190803590602001909291908035906020019064010000000081111561008d57600080fd5b82018360208201111561009f57600080fd5b803590602001918460018302840111640100000000831117156100c157600080fd5b91908080601f016020809104026020016040519081016040528093929190818152602001838380828437600081840152601f19601f820116905080830192505050505050509192919290803515159060200190929190505050610139565b604051808215151515815260200191505060405180910390f35b60006101706101478561017a565b84848873ffffffffffffffffffffffffffffffffffffffff166101d2909392919063ffffffff16565b9050949350505050565b60008160405160200180807f19457468657265756d205369676e6564204d6573736167653a0a333200000000815250601c01828152602001915050604051602081830303815290604052805190602001209050919050565b60006101f38573ffffffffffffffffffffffffffffffffffffffff1661027e565b1561022c576102258484848873ffffffffffffffffffffffffffffffffffffffff16610291909392919063ffffffff16565b9050610276565b6000610241848661030b90919063ffffffff16565b90508573ffffffffffffffffffffffffffffffffffffffff168173ffffffffffffffffffffffffffffffffffffffff16149150505b949350505050565b600080823b905060008111915050919050565b6000806102a7848661030b90919063ffffffff16565b9050600073ffffffffffffffffffffffffffffffffffffffff168173ffffffffffffffffffffffffffffffffffffffff16146103025782156102f4576102ed86826103ed565b9150610301565b6102fe86826104ce565b91505b5b50949350505050565b600080600080604185511461032657600093505050506103e7565b6020850151925060408501519150606085015160001a9050601b8160ff16101561035157601b810190505b601b8160ff16141580156103695750601c8160ff1614155b1561037a57600093505050506103e7565b60018682858560405160008152602001604052604051808581526020018460ff1660ff1681526020018381526020018281526020019450505050506020604051602081039080840390855afa1580156103d7573d6000803e3d6000fd5b5050506020604051035193505050505b92915050565b6000808373ffffffffffffffffffffffffffffffffffffffff1663e7b4cac6846040518263ffffffff1660e01b8152600401808273ffffffffffffffffffffffffffffffffffffffff1673ffffffffffffffffffffffffffffffffffffffff16815260200191505060606040518083038186803b15801561046d57600080fd5b505afa158015610481573d6000803e3d6000fd5b505050506040513d606081101561049757600080fd5b8101908080519060200190929190805190602001909291908051906020019092919050505090915050809150508091505092915050565b6000808373ffffffffffffffffffffffffffffffffffffffff1663e7b4cac6846040518263ffffffff1660e01b8152600401808273ffffffffffffffffffffffffffffffffffffffff1673ffffffffffffffffffffffffffffffffffffffff16815260200191505060606040518083038186803b15801561054e57600080fd5b505afa158015610562573d6000803e3d6000fd5b505050506040513d606081101561057857600080fd5b81019080805190602001909291908051906020019092919080519060200190929190505050909150905080915050809150509291505056fea265627a7a72315820baf5165e774f5629026af105e95c07b367b4177386cd60cc4231f77ab362ee4c64736f6c63430005110032",
  "linkReferences": {},
  "deployedLinkReferences": {}
}