{
  "address": "0x9b9a6a0594f747D3c303828A63378c1B46cF3efC",
  "abi": [
    {
      "inputs": [],
      "stateMutability": "nonpayable",
      "type": "constructor"
    },
    {
      "anonymous": false,
      "inputs": [
        {
          "indexed": false,
          "internalType": "address",
          "name": "archanovaAccount",
          "type": "address"
        },
        {
          "indexed": false,
          "internalType": "address",
          "name": "etherspotAccount",
          "type": "address"
        },
        {
          "indexed": false,
          "internalType": "uint256",
          "name": "value",
          "type": "uint256"
        }
      ],
      "name": "BalanceTransferred",
      "type": "event"
    },
    {
      "anonymous": false,
      "inputs": [
        {
          "indexed": false,
          "internalType": "address",
          "name": "archanovaAccount",
          "type": "address"
        },
        {
          "indexed": false,
          "internalType": "address",
          "name": "etherspotAccount",
          "type": "address"
        },
        {
          "indexed": false,
          "internalType": "bytes32",
          "name": "ensNode",
          "type": "bytes32"
        }
      ],
      "name": "ENSNodeTransferred",
      "type": "event"
    },
    {
      "anonymous": false,
      "inputs": [
        {
          "indexed": false,
          "internalType": "address",
          "name": "archanovaAccount",
          "type": "address"
        },
        {
          "indexed": false,
          "internalType": "address",
          "name": "etherspotAccount",
          "type": "address"
        },
        {
          "indexed": false,
          "internalType": "address",
          "name": "token",
          "type": "address"
        },
        {
          "indexed": false,
          "internalType": "uint256",
          "name": "tokenAmount",
          "type": "uint256"
        }
      ],
      "name": "ERC20TokenTransferred",
      "type": "event"
    },
    {
      "anonymous": false,
      "inputs": [
        {
          "indexed": false,
          "internalType": "address",
          "name": "archanovaAccount",
          "type": "address"
        },
        {
          "indexed": false,
          "internalType": "address",
          "name": "etherspotAccount",
          "type": "address"
        },
        {
          "indexed": false,
          "internalType": "address",
          "name": "token",
          "type": "address"
        },
        {
          "indexed": false,
          "internalType": "uint256",
          "name": "tokenId",
          "type": "uint256"
        }
      ],
      "name": "ERC721TokenTransferred",
      "type": "event"
    },
    {
      "anonymous": false,
      "inputs": [
        {
          "indexed": false,
          "internalType": "address",
          "name": "initializer",
          "type": "address"
        }
      ],
      "name": "Initialized",
      "type": "event"
    },
    {
      "inputs": [],
      "name": "ensController",
      "outputs": [
        {
          "internalType": "address payable",
          "name": "",
          "type": "address"
        }
      ],
      "stateMutability": "view",
      "type": "function"
    },
    {
      "inputs": [],
      "name": "ensRegistry",
      "outputs": [
        {
          "internalType": "address payable",
          "name": "",
          "type": "address"
        }
      ],
      "stateMutability": "view",
      "type": "function"
    },
    {
      "inputs": [
        {
          "internalType": "address payable",
          "name": "ensController_",
          "type": "address"
        },
        {
          "internalType": "address payable",
          "name": "ensRegistry_",
          "type": "address"
        }
      ],
      "name": "initialize",
      "outputs": [],
      "stateMutability": "nonpayable",
      "type": "function"
    },
    {
      "inputs": [],
      "name": "isInitialized",
      "outputs": [
        {
          "internalType": "bool",
          "name": "",
          "type": "bool"
        }
      ],
      "stateMutability": "view",
      "type": "function"
    },
    {
      "inputs": [
        {
          "internalType": "address payable",
          "name": "archanovaAccount",
          "type": "address"
        },
        {
          "internalType": "address payable",
          "name": "etherspotAccount",
          "type": "address"
        },
        {
          "internalType": "uint256",
          "name": "value",
          "type": "uint256"
        },
        {
          "internalType": "bytes",
          "name": "archanovaAccountDeviceSignature",
          "type": "bytes"
        }
      ],
      "name": "transferBalance",
      "outputs": [],
      "stateMutability": "nonpayable",
      "type": "function"
    },
    {
      "inputs": [
        {
          "internalType": "address payable",
          "name": "archanovaAccount",
          "type": "address"
        },
        {
          "internalType": "address payable",
          "name": "etherspotAccount",
          "type": "address"
        },
        {
          "internalType": "uint256",
          "name": "value",
          "type": "uint256"
        },
        {
          "internalType": "bytes32",
          "name": "ensNode",
          "type": "bytes32"
        },
        {
          "internalType": "bytes",
          "name": "archanovaAccountDeviceSignature",
          "type": "bytes"
        }
      ],
      "name": "transferBalanceAndENSNode",
      "outputs": [],
      "stateMutability": "nonpayable",
      "type": "function"
    },
    {
      "inputs": [
        {
          "internalType": "address payable",
          "name": "archanovaAccount",
          "type": "address"
        },
        {
          "internalType": "address payable",
          "name": "etherspotAccount",
          "type": "address"
        },
        {
          "internalType": "uint256",
          "name": "value",
          "type": "uint256"
        },
        {
          "internalType": "address[]",
          "name": "erc20Tokens",
          "type": "address[]"
        },
        {
          "internalType": "uint256[]",
          "name": "erc20TokensAmounts",
          "type": "uint256[]"
        },
        {
          "internalType": "bytes",
          "name": "archanovaAccountDeviceSignature",
          "type": "bytes"
        }
      ],
      "name": "transferBalanceAndERC20Tokens",
      "outputs": [],
      "stateMutability": "nonpayable",
      "type": "function"
    },
    {
      "inputs": [
        {
          "internalType": "address payable",
          "name": "archanovaAccount",
          "type": "address"
        },
        {
          "internalType": "address payable",
          "name": "etherspotAccount",
          "type": "address"
        },
        {
          "internalType": "uint256",
          "name": "value",
          "type": "uint256"
        },
        {
          "internalType": "address[]",
          "name": "erc20Tokens",
          "type": "address[]"
        },
        {
          "internalType": "uint256[]",
          "name": "erc20TokensAmounts",
          "type": "uint256[]"
        },
        {
          "internalType": "bytes32",
          "name": "ensNode",
          "type": "bytes32"
        },
        {
          "internalType": "bytes",
          "name": "archanovaAccountDeviceSignature",
          "type": "bytes"
        }
      ],
      "name": "transferBalanceAndERC20TokensAndENSNode",
      "outputs": [],
      "stateMutability": "nonpayable",
      "type": "function"
    },
    {
      "inputs": [
        {
          "internalType": "address payable",
          "name": "archanovaAccount",
          "type": "address"
        },
        {
          "internalType": "address payable",
          "name": "etherspotAccount",
          "type": "address"
        },
        {
          "internalType": "uint256",
          "name": "value",
          "type": "uint256"
        },
        {
          "internalType": "address[]",
          "name": "erc20Tokens",
          "type": "address[]"
        },
        {
          "internalType": "uint256[]",
          "name": "erc20TokensAmounts",
          "type": "uint256[]"
        },
        {
          "internalType": "address[]",
          "name": "erc721Tokens",
          "type": "address[]"
        },
        {
          "internalType": "uint256[]",
          "name": "erc721TokensIds",
          "type": "uint256[]"
        },
        {
          "internalType": "bytes",
          "name": "archanovaAccountDeviceSignature",
          "type": "bytes"
        }
      ],
      "name": "transferBalanceAndERC20TokensAndERC721Tokens",
      "outputs": [],
      "stateMutability": "nonpayable",
      "type": "function"
    },
    {
      "inputs": [
        {
          "internalType": "address payable",
          "name": "archanovaAccount",
          "type": "address"
        },
        {
          "internalType": "address payable",
          "name": "etherspotAccount",
          "type": "address"
        },
        {
          "internalType": "uint256",
          "name": "value",
          "type": "uint256"
        },
        {
          "internalType": "address[]",
          "name": "erc20Tokens",
          "type": "address[]"
        },
        {
          "internalType": "uint256[]",
          "name": "erc20TokensAmounts",
          "type": "uint256[]"
        },
        {
          "internalType": "address[]",
          "name": "erc721Tokens",
          "type": "address[]"
        },
        {
          "internalType": "uint256[]",
          "name": "erc721TokensIds",
          "type": "uint256[]"
        },
        {
          "internalType": "bytes32",
          "name": "ensNode",
          "type": "bytes32"
        },
        {
          "internalType": "bytes",
          "name": "archanovaAccountDeviceSignature",
          "type": "bytes"
        }
      ],
      "name": "transferBalanceAndERC20TokensAndERC721TokensAndENSNode",
      "outputs": [],
      "stateMutability": "nonpayable",
      "type": "function"
    },
    {
      "inputs": [
        {
          "internalType": "address payable",
          "name": "archanovaAccount",
          "type": "address"
        },
        {
          "internalType": "address payable",
          "name": "etherspotAccount",
          "type": "address"
        },
        {
          "internalType": "uint256",
          "name": "value",
          "type": "uint256"
        },
        {
          "internalType": "address[]",
          "name": "erc721Tokens",
          "type": "address[]"
        },
        {
          "internalType": "uint256[]",
          "name": "erc721TokensIds",
          "type": "uint256[]"
        },
        {
          "internalType": "bytes",
          "name": "archanovaAccountDeviceSignature",
          "type": "bytes"
        }
      ],
      "name": "transferBalanceAndERC721Tokens",
      "outputs": [],
      "stateMutability": "nonpayable",
      "type": "function"
    },
    {
      "inputs": [
        {
          "internalType": "address payable",
          "name": "archanovaAccount",
          "type": "address"
        },
        {
          "internalType": "address payable",
          "name": "etherspotAccount",
          "type": "address"
        },
        {
          "internalType": "uint256",
          "name": "value",
          "type": "uint256"
        },
        {
          "internalType": "address[]",
          "name": "erc721Tokens",
          "type": "address[]"
        },
        {
          "internalType": "uint256[]",
          "name": "erc721TokensIds",
          "type": "uint256[]"
        },
        {
          "internalType": "bytes32",
          "name": "ensNode",
          "type": "bytes32"
        },
        {
          "internalType": "bytes",
          "name": "archanovaAccountDeviceSignature",
          "type": "bytes"
        }
      ],
      "name": "transferBalanceAndERC721TokensAndENSNode",
      "outputs": [],
      "stateMutability": "nonpayable",
      "type": "function"
    },
    {
      "inputs": [
        {
          "internalType": "address payable",
          "name": "archanovaAccount",
          "type": "address"
        },
        {
          "internalType": "address payable",
          "name": "etherspotAccount",
          "type": "address"
        },
        {
          "internalType": "bytes32",
          "name": "ensNode",
          "type": "bytes32"
        },
        {
          "internalType": "bytes",
          "name": "archanovaAccountDeviceSignature",
          "type": "bytes"
        }
      ],
      "name": "transferENSNode",
      "outputs": [],
      "stateMutability": "nonpayable",
      "type": "function"
    },
    {
      "inputs": [
        {
          "internalType": "address payable",
          "name": "archanovaAccount",
          "type": "address"
        },
        {
          "internalType": "address payable",
          "name": "etherspotAccount",
          "type": "address"
        },
        {
          "internalType": "address[]",
          "name": "erc20Tokens",
          "type": "address[]"
        },
        {
          "internalType": "uint256[]",
          "name": "erc20TokensAmounts",
          "type": "uint256[]"
        },
        {
          "internalType": "bytes",
          "name": "archanovaAccountDeviceSignature",
          "type": "bytes"
        }
      ],
      "name": "transferERC20Tokens",
      "outputs": [],
      "stateMutability": "nonpayable",
      "type": "function"
    },
    {
      "inputs": [
        {
          "internalType": "address payable",
          "name": "archanovaAccount",
          "type": "address"
        },
        {
          "internalType": "address payable",
          "name": "etherspotAccount",
          "type": "address"
        },
        {
          "internalType": "address[]",
          "name": "erc20Tokens",
          "type": "address[]"
        },
        {
          "internalType": "uint256[]",
          "name": "erc20TokensAmounts",
          "type": "uint256[]"
        },
        {
          "internalType": "bytes32",
          "name": "ensNode",
          "type": "bytes32"
        },
        {
          "internalType": "bytes",
          "name": "archanovaAccountDeviceSignature",
          "type": "bytes"
        }
      ],
      "name": "transferERC20TokensAndENSNode",
      "outputs": [],
      "stateMutability": "nonpayable",
      "type": "function"
    },
    {
      "inputs": [
        {
          "internalType": "address payable",
          "name": "archanovaAccount",
          "type": "address"
        },
        {
          "internalType": "address payable",
          "name": "etherspotAccount",
          "type": "address"
        },
        {
          "internalType": "address[]",
          "name": "erc20Tokens",
          "type": "address[]"
        },
        {
          "internalType": "uint256[]",
          "name": "erc20TokensAmounts",
          "type": "uint256[]"
        },
        {
          "internalType": "address[]",
          "name": "erc721Tokens",
          "type": "address[]"
        },
        {
          "internalType": "uint256[]",
          "name": "erc721TokensIds",
          "type": "uint256[]"
        },
        {
          "internalType": "bytes",
          "name": "archanovaAccountDeviceSignature",
          "type": "bytes"
        }
      ],
      "name": "transferERC20TokensAndERC721Tokens",
      "outputs": [],
      "stateMutability": "nonpayable",
      "type": "function"
    },
    {
      "inputs": [
        {
          "internalType": "address payable",
          "name": "archanovaAccount",
          "type": "address"
        },
        {
          "internalType": "address payable",
          "name": "etherspotAccount",
          "type": "address"
        },
        {
          "internalType": "address[]",
          "name": "erc20Tokens",
          "type": "address[]"
        },
        {
          "internalType": "uint256[]",
          "name": "erc20TokensAmounts",
          "type": "uint256[]"
        },
        {
          "internalType": "address[]",
          "name": "erc721Tokens",
          "type": "address[]"
        },
        {
          "internalType": "uint256[]",
          "name": "erc721TokensIds",
          "type": "uint256[]"
        },
        {
          "internalType": "bytes32",
          "name": "ensNode",
          "type": "bytes32"
        },
        {
          "internalType": "bytes",
          "name": "archanovaAccountDeviceSignature",
          "type": "bytes"
        }
      ],
      "name": "transferERC20TokensAndERC721TokensAndENSNode",
      "outputs": [],
      "stateMutability": "nonpayable",
      "type": "function"
    },
    {
      "inputs": [
        {
          "internalType": "address payable",
          "name": "archanovaAccount",
          "type": "address"
        },
        {
          "internalType": "address payable",
          "name": "etherspotAccount",
          "type": "address"
        },
        {
          "internalType": "address[]",
          "name": "erc721Tokens",
          "type": "address[]"
        },
        {
          "internalType": "uint256[]",
          "name": "erc721TokensIds",
          "type": "uint256[]"
        },
        {
          "internalType": "bytes",
          "name": "archanovaAccountDeviceSignature",
          "type": "bytes"
        }
      ],
      "name": "transferERC721Tokens",
      "outputs": [],
      "stateMutability": "nonpayable",
      "type": "function"
    },
    {
      "inputs": [
        {
          "internalType": "address payable",
          "name": "archanovaAccount",
          "type": "address"
        },
        {
          "internalType": "address payable",
          "name": "etherspotAccount",
          "type": "address"
        },
        {
          "internalType": "address[]",
          "name": "erc721Tokens",
          "type": "address[]"
        },
        {
          "internalType": "uint256[]",
          "name": "erc721TokensIds",
          "type": "uint256[]"
        },
        {
          "internalType": "bytes32",
          "name": "ensNode",
          "type": "bytes32"
        },
        {
          "internalType": "bytes",
          "name": "archanovaAccountDeviceSignature",
          "type": "bytes"
        }
      ],
      "name": "transferERC721TokensAndENSNode",
      "outputs": [],
      "stateMutability": "nonpayable",
      "type": "function"
    }
  ],
  "transactionHash": "0x89016d757270199296c66436972be22d9111c11520fa60dedd5487af76f49e71",
  "args": [],
  "solcInputHash": "c1d5aa5e8d5ec1b4df31bf8120be03e3",
  "bytecode": "0x608060405234801561001057600080fd5b50326000806101000a81548173ffffffffffffffffffffffffffffffffffffffff021916908373ffffffffffffffffffffffffffffffffffffffff1602179055506000469050806003819055505061430f8061006d6000396000f3fe608060405234801561001057600080fd5b50600436106101215760003560e01c80636abaa6ab116100ad578063a32c5e5e11610071578063a32c5e5e146111aa578063bed5fada146113c2578063c7e7cea11461148f578063dbfc3e1e14611552578063e7cdc5d9146116bf57610121565b80636abaa6ab14610c455780636d03b0b914610e5d5780637d73b23114610e915780638c29877514610ec557806397b583b7146110e757610121565b806340c38bb6116100f457806340c38bb61461057957806341ed7592146106e6578063485cc9551461085d5780634ef58fc7146108c1578063653ed82214610ace57610121565b8063094c3b1c1461012657806320ce18c9146102895780632984005c146103f6578063392e53cd14610559575b600080fd5b610287600480360360a081101561013c57600080fd5b81019080803573ffffffffffffffffffffffffffffffffffffffff169060200190929190803573ffffffffffffffffffffffffffffffffffffffff1690602001909291908035906020019064010000000081111561019957600080fd5b8201836020820111156101ab57600080fd5b803590602001918460208302840111640100000000831117156101cd57600080fd5b9091929391929390803590602001906401000000008111156101ee57600080fd5b82018360208201111561020057600080fd5b8035906020019184602083028401116401000000008311171561022257600080fd5b90919293919293908035906020019064010000000081111561024357600080fd5b82018360208201111561025557600080fd5b8035906020019184600183028401116401000000008311171561027757600080fd5b909192939192939050505061182c565b005b6103f4600480360360c081101561029f57600080fd5b81019080803573ffffffffffffffffffffffffffffffffffffffff169060200190929190803573ffffffffffffffffffffffffffffffffffffffff169060200190929190803590602001909291908035906020019064010000000081111561030657600080fd5b82018360208201111561031857600080fd5b8035906020019184602083028401116401000000008311171561033a57600080fd5b90919293919293908035906020019064010000000081111561035b57600080fd5b82018360208201111561036d57600080fd5b8035906020019184602083028401116401000000008311171561038f57600080fd5b9091929391929390803590602001906401000000008111156103b057600080fd5b8201836020820111156103c257600080fd5b803590602001918460018302840111640100000000831117156103e457600080fd5b9091929391929390505050611913565b005b610557600480360360a081101561040c57600080fd5b81019080803573ffffffffffffffffffffffffffffffffffffffff169060200190929190803573ffffffffffffffffffffffffffffffffffffffff1690602001909291908035906020019064010000000081111561046957600080fd5b82018360208201111561047b57600080fd5b8035906020019184602083028401116401000000008311171561049d57600080fd5b9091929391929390803590602001906401000000008111156104be57600080fd5b8201836020820111156104d057600080fd5b803590602001918460208302840111640100000000831117156104f257600080fd5b90919293919293908035906020019064010000000081111561051357600080fd5b82018360208201111561052557600080fd5b8035906020019184600183028401116401000000008311171561054757600080fd5b9091929391929390505050611a06565b005b610561611aed565b60405180821515815260200191505060405180910390f35b6106e4600480360360c081101561058f57600080fd5b81019080803573ffffffffffffffffffffffffffffffffffffffff169060200190929190803573ffffffffffffffffffffffffffffffffffffffff16906020019092919080359060200190929190803590602001906401000000008111156105f657600080fd5b82018360208201111561060857600080fd5b8035906020019184602083028401116401000000008311171561062a57600080fd5b90919293919293908035906020019064010000000081111561064b57600080fd5b82018360208201111561065d57600080fd5b8035906020019184602083028401116401000000008311171561067f57600080fd5b9091929391929390803590602001906401000000008111156106a057600080fd5b8201836020820111156106b257600080fd5b803590602001918460018302840111640100000000831117156106d457600080fd5b9091929391929390505050611b43565b005b61085b600480360360e08110156106fc57600080fd5b81019080803573ffffffffffffffffffffffffffffffffffffffff169060200190929190803573ffffffffffffffffffffffffffffffffffffffff169060200190929190803590602001909291908035906020019064010000000081111561076357600080fd5b82018360208201111561077557600080fd5b8035906020019184602083028401116401000000008311171561079757600080fd5b9091929391929390803590602001906401000000008111156107b857600080fd5b8201836020820111156107ca57600080fd5b803590602001918460208302840111640100000000831117156107ec57600080fd5b9091929391929390803590602001909291908035906020019064010000000081111561081757600080fd5b82018360208201111561082957600080fd5b8035906020019184600183028401116401000000008311171561084b57600080fd5b9091929391929390505050611c36565b005b6108bf6004803603604081101561087357600080fd5b81019080803573ffffffffffffffffffffffffffffffffffffffff169060200190929190803573ffffffffffffffffffffffffffffffffffffffff169060200190929190505050611d35565b005b610acc600480360360e08110156108d757600080fd5b81019080803573ffffffffffffffffffffffffffffffffffffffff169060200190929190803573ffffffffffffffffffffffffffffffffffffffff1690602001909291908035906020019064010000000081111561093457600080fd5b82018360208201111561094657600080fd5b8035906020019184602083028401116401000000008311171561096857600080fd5b90919293919293908035906020019064010000000081111561098957600080fd5b82018360208201111561099b57600080fd5b803590602001918460208302840111640100000000831117156109bd57600080fd5b9091929391929390803590602001906401000000008111156109de57600080fd5b8201836020820111156109f057600080fd5b80359060200191846020830284011164010000000083111715610a1257600080fd5b909192939192939080359060200190640100000000811115610a3357600080fd5b820183602082011115610a4557600080fd5b80359060200191846020830284011164010000000083111715610a6757600080fd5b909192939192939080359060200190640100000000811115610a8857600080fd5b820183602082011115610a9a57600080fd5b80359060200191846001830284011164010000000083111715610abc57600080fd5b9091929391929390505050611eed565b005b610c43600480360360e0811015610ae457600080fd5b81019080803573ffffffffffffffffffffffffffffffffffffffff169060200190929190803573ffffffffffffffffffffffffffffffffffffffff1690602001909291908035906020019092919080359060200190640100000000811115610b4b57600080fd5b820183602082011115610b5d57600080fd5b80359060200191846020830284011164010000000083111715610b7f57600080fd5b909192939192939080359060200190640100000000811115610ba057600080fd5b820183602082011115610bb257600080fd5b80359060200191846020830284011164010000000083111715610bd457600080fd5b90919293919293908035906020019092919080359060200190640100000000811115610bff57600080fd5b820183602082011115610c1157600080fd5b80359060200191846001830284011164010000000083111715610c3357600080fd5b9091929391929390505050612066565b005b610e5b6004803603610100811015610c5c57600080fd5b81019080803573ffffffffffffffffffffffffffffffffffffffff169060200190929190803573ffffffffffffffffffffffffffffffffffffffff1690602001909291908035906020019092919080359060200190640100000000811115610cc357600080fd5b820183602082011115610cd557600080fd5b80359060200191846020830284011164010000000083111715610cf757600080fd5b909192939192939080359060200190640100000000811115610d1857600080fd5b820183602082011115610d2a57600080fd5b80359060200191846020830284011164010000000083111715610d4c57600080fd5b909192939192939080359060200190640100000000811115610d6d57600080fd5b820183602082011115610d7f57600080fd5b80359060200191846020830284011164010000000083111715610da157600080fd5b909192939192939080359060200190640100000000811115610dc257600080fd5b820183602082011115610dd457600080fd5b80359060200191846020830284011164010000000083111715610df657600080fd5b909192939192939080359060200190640100000000811115610e1757600080fd5b820183602082011115610e2957600080fd5b80359060200191846001830284011164010000000083111715610e4b57600080fd5b9091929391929390505050612165565b005b610e656122ea565b604051808273ffffffffffffffffffffffffffffffffffffffff16815260200191505060405180910390f35b610e99612310565b604051808273ffffffffffffffffffffffffffffffffffffffff16815260200191505060405180910390f35b6110e56004803603610120811015610edc57600080fd5b81019080803573ffffffffffffffffffffffffffffffffffffffff169060200190929190803573ffffffffffffffffffffffffffffffffffffffff1690602001909291908035906020019092919080359060200190640100000000811115610f4357600080fd5b820183602082011115610f5557600080fd5b80359060200191846020830284011164010000000083111715610f7757600080fd5b909192939192939080359060200190640100000000811115610f9857600080fd5b820183602082011115610faa57600080fd5b80359060200191846020830284011164010000000083111715610fcc57600080fd5b909192939192939080359060200190640100000000811115610fed57600080fd5b820183602082011115610fff57600080fd5b8035906020019184602083028401116401000000008311171561102157600080fd5b90919293919293908035906020019064010000000081111561104257600080fd5b82018360208201111561105457600080fd5b8035906020019184602083028401116401000000008311171561107657600080fd5b909192939192939080359060200190929190803590602001906401000000008111156110a157600080fd5b8201836020820111156110b357600080fd5b803590602001918460018302840111640100000000831117156110d557600080fd5b9091929391929390505050612336565b005b6111a8600480360360808110156110fd57600080fd5b81019080803573ffffffffffffffffffffffffffffffffffffffff169060200190929190803573ffffffffffffffffffffffffffffffffffffffff169060200190929190803590602001909291908035906020019064010000000081111561116457600080fd5b82018360208201111561117657600080fd5b8035906020019184600183028401116401000000008311171561119857600080fd5b90919293919293905050506124c7565b005b6113c060048036036101008110156111c157600080fd5b81019080803573ffffffffffffffffffffffffffffffffffffffff169060200190929190803573ffffffffffffffffffffffffffffffffffffffff1690602001909291908035906020019064010000000081111561121e57600080fd5b82018360208201111561123057600080fd5b8035906020019184602083028401116401000000008311171561125257600080fd5b90919293919293908035906020019064010000000081111561127357600080fd5b82018360208201111561128557600080fd5b803590602001918460208302840111640100000000831117156112a757600080fd5b9091929391929390803590602001906401000000008111156112c857600080fd5b8201836020820111156112da57600080fd5b803590602001918460208302840111640100000000831117156112fc57600080fd5b90919293919293908035906020019064010000000081111561131d57600080fd5b82018360208201111561132f57600080fd5b8035906020019184602083028401116401000000008311171561135157600080fd5b9091929391929390803590602001909291908035906020019064010000000081111561137c57600080fd5b82018360208201111561138e57600080fd5b803590602001918460018302840111640100000000831117156113b057600080fd5b9091929391929390505050612528565b005b61148d600480360360a08110156113d857600080fd5b81019080803573ffffffffffffffffffffffffffffffffffffffff169060200190929190803573ffffffffffffffffffffffffffffffffffffffff16906020019092919080359060200190929190803590602001909291908035906020019064010000000081111561144957600080fd5b82018360208201111561145b57600080fd5b8035906020019184600183028401116401000000008311171561147d57600080fd5b90919293919293905050506126ad565b005b611550600480360360808110156114a557600080fd5b81019080803573ffffffffffffffffffffffffffffffffffffffff169060200190929190803573ffffffffffffffffffffffffffffffffffffffff169060200190929190803590602001909291908035906020019064010000000081111561150c57600080fd5b82018360208201111561151e57600080fd5b8035906020019184600183028401116401000000008311171561154057600080fd5b909192939192939050505061271a565b005b6116bd600480360360c081101561156857600080fd5b81019080803573ffffffffffffffffffffffffffffffffffffffff169060200190929190803573ffffffffffffffffffffffffffffffffffffffff169060200190929190803590602001906401000000008111156115c557600080fd5b8201836020820111156115d757600080fd5b803590602001918460208302840111640100000000831117156115f957600080fd5b90919293919293908035906020019064010000000081111561161a57600080fd5b82018360208201111561162c57600080fd5b8035906020019184602083028401116401000000008311171561164e57600080fd5b9091929391929390803590602001909291908035906020019064010000000081111561167957600080fd5b82018360208201111561168b57600080fd5b803590602001918460018302840111640100000000831117156116ad57600080fd5b909192939192939050505061277b565b005b61182a600480360360c08110156116d557600080fd5b81019080803573ffffffffffffffffffffffffffffffffffffffff169060200190929190803573ffffffffffffffffffffffffffffffffffffffff1690602001909291908035906020019064010000000081111561173257600080fd5b82018360208201111561174457600080fd5b8035906020019184602083028401116401000000008311171561176657600080fd5b90919293919293908035906020019064010000000081111561178757600080fd5b82018360208201111561179957600080fd5b803590602001918460208302840111640100000000831117156117bb57600080fd5b909192939192939080359060200190929190803590602001906401000000008111156117e657600080fd5b8201836020820111156117f857600080fd5b8035906020019184600183028401116401000000008311171561181a57600080fd5b909192939192939050505061286e565b005b61187b888884848080601f016020809104026020016040519081016040528093929190818152602001838380828437600081840152601f19601f82011690508083019250505050505050612961565b6119098888888880806020026020016040519081016040528093929190818152602001838360200280828437600081840152601f19601f82011690508083019250505050505050878780806020026020016040519081016040528093929190818152602001838360200280828437600081840152601f19601f82011690508083019250505050505050612bc4565b5050505050505050565b611962898984848080601f016020809104026020016040519081016040528093929190818152602001838380828437600081840152601f19601f82011690508083019250505050505050612961565b61196d898989612c1c565b6119fb8989888880806020026020016040519081016040528093929190818152602001838360200280828437600081840152601f19601f82011690508083019250505050505050878780806020026020016040519081016040528093929190818152602001838360200280828437600081840152601f19601f82011690508083019250505050505050612bc4565b505050505050505050565b611a55888884848080601f016020809104026020016040519081016040528093929190818152602001838380828437600081840152601f19601f82011690508083019250505050505050612961565b611ae38888888880806020026020016040519081016040528093929190818152602001838360200280828437600081840152601f19601f82011690508083019250505050505050878780806020026020016040519081016040528093929190818152602001838360200280828437600081840152601f19601f82011690508083019250505050505050612eb7565b5050505050505050565b60008073ffffffffffffffffffffffffffffffffffffffff1660008054906101000a900473ffffffffffffffffffffffffffffffffffffffff1673ffffffffffffffffffffffffffffffffffffffff1614905090565b611b92898984848080601f016020809104026020016040519081016040528093929190818152602001838380828437600081840152601f19601f82011690508083019250505050505050612961565b611b9d898989612c1c565b611c2b8989888880806020026020016040519081016040528093929190818152602001838360200280828437600081840152601f19601f82011690508083019250505050505050878780806020026020016040519081016040528093929190818152602001838360200280828437600081840152601f19601f82011690508083019250505050505050612eb7565b505050505050505050565b611c858a8a84848080601f016020809104026020016040519081016040528093929190818152602001838380828437600081840152601f19601f82011690508083019250505050505050612961565b611c908a8a8a612c1c565b611d1e8a8a898980806020026020016040519081016040528093929190818152602001838360200280828437600081840152601f19601f82011690508083019250505050505050888880806020026020016040519081016040528093929190818152602001838360200280828437600081840152601f19601f82011690508083019250505050505050612bc4565b611d298a8a85612f0f565b50505050505050505050565b60008054906101000a900473ffffffffffffffffffffffffffffffffffffffff1673ffffffffffffffffffffffffffffffffffffffff163273ffffffffffffffffffffffffffffffffffffffff1614611dd9576040517f08c379a000000000000000000000000000000000000000000000000000000000815260040180806020018281038252602f815260200180614267602f913960400191505060405180910390fd5b60008060006101000a81548173ffffffffffffffffffffffffffffffffffffffff021916908373ffffffffffffffffffffffffffffffffffffffff16021790555081600160006101000a81548173ffffffffffffffffffffffffffffffffffffffff021916908373ffffffffffffffffffffffffffffffffffffffff16021790555080600260006101000a81548173ffffffffffffffffffffffffffffffffffffffff021916908373ffffffffffffffffffffffffffffffffffffffff1602179055507f908408e307fc569b417f6cbec5d5a06f44a0a505ac0479b47d421a4b2fd6a1e632604051808273ffffffffffffffffffffffffffffffffffffffff16815260200191505060405180910390a15050565b611f3c8c8c84848080601f016020809104026020016040519081016040528093929190818152602001838380828437600081840152601f19601f82011690508083019250505050505050612961565b611fca8c8c8c8c80806020026020016040519081016040528093929190818152602001838360200280828437600081840152601f19601f820116905080830192505050505050508b8b80806020026020016040519081016040528093929190818152602001838360200280828437600081840152601f19601f82011690508083019250505050505050612eb7565b6120588c8c888880806020026020016040519081016040528093929190818152602001838360200280828437600081840152601f19601f82011690508083019250505050505050878780806020026020016040519081016040528093929190818152602001838360200280828437600081840152601f19601f82011690508083019250505050505050612bc4565b505050505050505050505050565b6120b58a8a84848080601f016020809104026020016040519081016040528093929190818152602001838380828437600081840152601f19601f82011690508083019250505050505050612961565b6120c08a8a8a612c1c565b61214e8a8a898980806020026020016040519081016040528093929190818152602001838360200280828437600081840152601f19601f82011690508083019250505050505050888880806020026020016040519081016040528093929190818152602001838360200280828437600081840152601f19601f82011690508083019250505050505050612eb7565b6121598a8a85612f0f565b50505050505050505050565b6121b48d8d84848080601f016020809104026020016040519081016040528093929190818152602001838380828437600081840152601f19601f82011690508083019250505050505050612961565b6121bf8d8d8d612c1c565b61224d8d8d8c8c80806020026020016040519081016040528093929190818152602001838360200280828437600081840152601f19601f820116905080830192505050505050508b8b80806020026020016040519081016040528093929190818152602001838360200280828437600081840152601f19601f82011690508083019250505050505050612eb7565b6122db8d8d888880806020026020016040519081016040528093929190818152602001838360200280828437600081840152601f19601f82011690508083019250505050505050878780806020026020016040519081016040528093929190818152602001838360200280828437600081840152601f19601f82011690508083019250505050505050612bc4565b50505050505050505050505050565b600160009054906101000a900473ffffffffffffffffffffffffffffffffffffffff1681565b600260009054906101000a900473ffffffffffffffffffffffffffffffffffffffff1681565b6123858e8e84848080601f016020809104026020016040519081016040528093929190818152602001838380828437600081840152601f19601f82011690508083019250505050505050612961565b6123908e8e8e612c1c565b61241e8e8e8d8d80806020026020016040519081016040528093929190818152602001838360200280828437600081840152601f19601f820116905080830192505050505050508c8c80806020026020016040519081016040528093929190818152602001838360200280828437600081840152601f19601f82011690508083019250505050505050612eb7565b6124ac8e8e898980806020026020016040519081016040528093929190818152602001838360200280828437600081840152601f19601f82011690508083019250505050505050888880806020026020016040519081016040528093929190818152602001838360200280828437600081840152601f19601f82011690508083019250505050505050612bc4565b6124b78e8e85612f0f565b5050505050505050505050505050565b612516858584848080601f016020809104026020016040519081016040528093929190818152602001838380828437600081840152601f19601f82011690508083019250505050505050612961565b612521858585612c1c565b5050505050565b6125778d8d84848080601f016020809104026020016040519081016040528093929190818152602001838380828437600081840152601f19601f82011690508083019250505050505050612961565b6126058d8d8d8d80806020026020016040519081016040528093929190818152602001838360200280828437600081840152601f19601f820116905080830192505050505050508c8c80806020026020016040519081016040528093929190818152602001838360200280828437600081840152601f19601f82011690508083019250505050505050612eb7565b6126938d8d898980806020026020016040519081016040528093929190818152602001838360200280828437600081840152601f19601f82011690508083019250505050505050888880806020026020016040519081016040528093929190818152602001838360200280828437600081840152601f19601f82011690508083019250505050505050612bc4565b61269e8d8d85612f0f565b50505050505050505050505050565b6126fc868684848080601f016020809104026020016040519081016040528093929190818152602001838380828437600081840152601f19601f82011690508083019250505050505050612961565b612707868686612c1c565b612712868685612f0f565b505050505050565b612769858584848080601f016020809104026020016040519081016040528093929190818152602001838380828437600081840152601f19601f82011690508083019250505050505050612961565b612774858585612f0f565b5050505050565b6127ca898984848080601f016020809104026020016040519081016040528093929190818152602001838380828437600081840152601f19601f82011690508083019250505050505050612961565b6128588989898980806020026020016040519081016040528093929190818152602001838360200280828437600081840152601f19601f82011690508083019250505050505050888880806020026020016040519081016040528093929190818152602001838360200280828437600081840152601f19601f82011690508083019250505050505050612bc4565b612863898985612f0f565b505050505050505050565b6128bd898984848080601f016020809104026020016040519081016040528093929190818152602001838380828437600081840152601f19601f82011690508083019250505050505050612961565b61294b8989898980806020026020016040519081016040528093929190818152602001838360200280828437600081840152601f19601f82011690508083019250505050505050888880806020026020016040519081016040528093929190818152602001838360200280828437600081840152601f19601f82011690508083019250505050505050612eb7565b612956898985612f0f565b505050505050505050565b6000612a9d826003543060405160200180807f657468657273706f74203c3e2061726368616e6f7661206d6967726174696f6e8152506020019050604051602081830303815290604052805190602001208888604051602001808681526020018573ffffffffffffffffffffffffffffffffffffffff1660601b81526014018481526020018373ffffffffffffffffffffffffffffffffffffffff1660601b81526014018273ffffffffffffffffffffffffffffffffffffffff1660601b8152601401955050505050506040516020818303038152906040528051906020012060405160200180807f19457468657265756d205369676e6564204d6573736167653a0a333200000000815250601c0182815260200191505060405160208183030381529060405280519060200120613abf90919063ffffffff16565b90506000808573ffffffffffffffffffffffffffffffffffffffff1663e7b4cac6846040518263ffffffff1660e01b8152600401808273ffffffffffffffffffffffffffffffffffffffff16815260200191505060606040518083038186803b158015612b0957600080fd5b505afa158015612b1d573d6000803e3d6000fd5b505050506040513d6060811015612b3357600080fd5b810190808051906020019092919080519060200190929190805190602001909291905050505091509150818015612b675750805b612bbc576040517f08c379a000000000000000000000000000000000000000000000000000000000815260040180806020018281038252603d8152602001806142c6603d913960400191505060405180910390fd5b505050505050565b60008251905060005b81811015612c1457612c078686868481518110612be657fe5b6020026020010151868581518110612bfa57fe5b6020026020010151613b8f565b8080600101915050612bcd565b505050505050565b8273ffffffffffffffffffffffffffffffffffffffff16633f579f428383600067ffffffffffffffff81118015612c5257600080fd5b506040519080825280601f01601f191660200182016040528015612c855781602001600182028036833780820191505090505b506040518463ffffffff1660e01b8152600401808473ffffffffffffffffffffffffffffffffffffffff16815260200183815260200180602001828103825283818151815260200191508051906020019080838360005b83811015612cf7578082015181840152602081019050612cdc565b50505050905090810190601f168015612d245780820380516001836020036101000a031916815260200191505b50945050505050600060405180830381600087803b158015612d4557600080fd5b505af1158015612d59573d6000803e3d6000fd5b505050506040513d6000823e3d601f19601f820116820180604052506020811015612d8357600080fd5b8101908080516040519392919084640100000000821115612da357600080fd5b83820191506020820185811115612db957600080fd5b8251866001820283011164010000000082111715612dd657600080fd5b8083526020830192505050908051906020019080838360005b83811015612e0a578082015181840152602081019050612def565b50505050905090810190601f168015612e375780820380516001836020036101000a031916815260200191505b50604052505050507f4163d0b06696468b3d7903f482bcd0097bd38a9a9086157479fd6c6561d24261838383604051808473ffffffffffffffffffffffffffffffffffffffff1681526020018373ffffffffffffffffffffffffffffffffffffffff168152602001828152602001935050505060405180910390a1505050565b60008251905060005b81811015612f0757612efa8686868481518110612ed957fe5b6020026020010151868581518110612eed57fe5b6020026020010151613ed1565b8080600101915050612ec0565b505050505050565b8273ffffffffffffffffffffffffffffffffffffffff16633f579f42600260009054906101000a900473ffffffffffffffffffffffffffffffffffffffff16600060405160200180807f7365745265736f6c76657228627974657333322c616464726573732900000000815250601c0190506040516020818303038152906040528051906020012085600160009054906101000a900473ffffffffffffffffffffffffffffffffffffffff16604051602401808381526020018273ffffffffffffffffffffffffffffffffffffffff16815260200192505050604051602081830303815290604052907bffffffffffffffffffffffffffffffffffffffffffffffffffffffff19166020820180517bffffffffffffffffffffffffffffffffffffffffffffffffffffffff83818316178352505050506040518463ffffffff1660e01b8152600401808473ffffffffffffffffffffffffffffffffffffffff16815260200183815260200180602001828103825283818151815260200191508051906020019080838360005b838110156130b657808201518184015260208101905061309b565b50505050905090810190601f1680156130e35780820380516001836020036101000a031916815260200191505b50945050505050600060405180830381600087803b15801561310457600080fd5b505af1158015613118573d6000803e3d6000fd5b505050506040513d6000823e3d601f19601f82011682018060405250602081101561314257600080fd5b810190808051604051939291908464010000000082111561316257600080fd5b8382019150602082018581111561317857600080fd5b825186600182028301116401000000008211171561319557600080fd5b8083526020830192505050908051906020019080838360005b838110156131c95780820151818401526020810190506131ae565b50505050905090810190601f1680156131f65780820380516001836020036101000a031916815260200191505b50604052505050508273ffffffffffffffffffffffffffffffffffffffff16633f579f42600160009054906101000a900473ffffffffffffffffffffffffffffffffffffffff16600060405160200180807f73796e63416464722862797465733332290000000000000000000000000000008152506011019050604051602081830303815290604052805190602001208560405160240180828152602001915050604051602081830303815290604052907bffffffffffffffffffffffffffffffffffffffffffffffffffffffff19166020820180517bffffffffffffffffffffffffffffffffffffffffffffffffffffffff83818316178352505050506040518463ffffffff1660e01b8152600401808473ffffffffffffffffffffffffffffffffffffffff16815260200183815260200180602001828103825283818151815260200191508051906020019080838360005b8381101561336557808201518184015260208101905061334a565b50505050905090810190601f1680156133925780820380516001836020036101000a031916815260200191505b50945050505050600060405180830381600087803b1580156133b357600080fd5b505af11580156133c7573d6000803e3d6000fd5b505050506040513d6000823e3d601f19601f8201168201806040525060208110156133f157600080fd5b810190808051604051939291908464010000000082111561341157600080fd5b8382019150602082018581111561342757600080fd5b825186600182028301116401000000008211171561344457600080fd5b8083526020830192505050908051906020019080838360005b8381101561347857808201518184015260208101905061345d565b50505050905090810190601f1680156134a55780820380516001836020036101000a031916815260200191505b50604052505050508273ffffffffffffffffffffffffffffffffffffffff16633f579f42600160009054906101000a900473ffffffffffffffffffffffffffffffffffffffff16600060405160200180807f7365744164647228627974657333322c616464726573732900000000000000008152506018019050604051602081830303815290604052805190602001208587604051602401808381526020018273ffffffffffffffffffffffffffffffffffffffff16815260200192505050604051602081830303815290604052907bffffffffffffffffffffffffffffffffffffffffffffffffffffffff19166020820180517bffffffffffffffffffffffffffffffffffffffffffffffffffffffff83818316178352505050506040518463ffffffff1660e01b8152600401808473ffffffffffffffffffffffffffffffffffffffff16815260200183815260200180602001828103825283818151815260200191508051906020019080838360005b83811015613632578082015181840152602081019050613617565b50505050905090810190601f16801561365f5780820380516001836020036101000a031916815260200191505b50945050505050600060405180830381600087803b15801561368057600080fd5b505af1158015613694573d6000803e3d6000fd5b505050506040513d6000823e3d601f19601f8201168201806040525060208110156136be57600080fd5b81019080805160405193929190846401000000008211156136de57600080fd5b838201915060208201858111156136f457600080fd5b825186600182028301116401000000008211171561371157600080fd5b8083526020830192505050908051906020019080838360005b8381101561374557808201518184015260208101905061372a565b50505050905090810190601f1680156137725780820380516001836020036101000a031916815260200191505b50604052505050508273ffffffffffffffffffffffffffffffffffffffff16633f579f42600260009054906101000a900473ffffffffffffffffffffffffffffffffffffffff16600060405160200180807f7365744f776e657228627974657333322c6164647265737329000000000000008152506019019050604051602081830303815290604052805190602001208587604051602401808381526020018273ffffffffffffffffffffffffffffffffffffffff16815260200192505050604051602081830303815290604052907bffffffffffffffffffffffffffffffffffffffffffffffffffffffff19166020820180517bffffffffffffffffffffffffffffffffffffffffffffffffffffffff83818316178352505050506040518463ffffffff1660e01b8152600401808473ffffffffffffffffffffffffffffffffffffffff16815260200183815260200180602001828103825283818151815260200191508051906020019080838360005b838110156138ff5780820151818401526020810190506138e4565b50505050905090810190601f16801561392c5780820380516001836020036101000a031916815260200191505b50945050505050600060405180830381600087803b15801561394d57600080fd5b505af1158015613961573d6000803e3d6000fd5b505050506040513d6000823e3d601f19601f82011682018060405250602081101561398b57600080fd5b81019080805160405193929190846401000000008211156139ab57600080fd5b838201915060208201858111156139c157600080fd5b82518660018202830111640100000000821117156139de57600080fd5b8083526020830192505050908051906020019080838360005b83811015613a125780820151818401526020810190506139f7565b50505050905090810190601f168015613a3f5780820380516001836020036101000a031916815260200191505b50604052505050507f31535e192ff586e8ec781c584b15737846e79c3f17ebde9d9858f8dc36d3ffd8838383604051808473ffffffffffffffffffffffffffffffffffffffff1681526020018373ffffffffffffffffffffffffffffffffffffffff168152602001828152602001935050505060405180910390a1505050565b60008060009050604183511415613b855760008060006020860151925060408601519150606086015160001a9050601b8160ff161015613b0057601b810190505b601b8160ff161480613b155750601c8160ff16145b15613b815760018782858560405160008152602001604052604051808581526020018460ff1681526020018381526020018281526020019450505050506020604051602081039080840390855afa158015613b74573d6000803e3d6000fd5b5050506020604051035193505b5050505b8091505092915050565b6060604051602001808061424260259139602501905060405160208183030381529060405280519060200120858584604051602401808473ffffffffffffffffffffffffffffffffffffffff1681526020018373ffffffffffffffffffffffffffffffffffffffff1681526020018281526020019350505050604051602081830303815290604052907bffffffffffffffffffffffffffffffffffffffffffffffffffffffff19166020820180517bffffffffffffffffffffffffffffffffffffffffffffffffffffffff8381831617835250505050905060608573ffffffffffffffffffffffffffffffffffffffff16633f579f42856000856040518463ffffffff1660e01b8152600401808473ffffffffffffffffffffffffffffffffffffffff16815260200183815260200180602001828103825283818151815260200191508051906020019080838360005b83811015613cfa578082015181840152602081019050613cdf565b50505050905090810190601f168015613d275780820380516001836020036101000a031916815260200191505b50945050505050600060405180830381600087803b158015613d4857600080fd5b505af1158015613d5c573d6000803e3d6000fd5b505050506040513d6000823e3d601f19601f820116820180604052506020811015613d8657600080fd5b8101908080516040519392919084640100000000821115613da657600080fd5b83820191506020820185811115613dbc57600080fd5b8251866001820283011164010000000082111715613dd957600080fd5b8083526020830192505050908051906020019080838360005b83811015613e0d578082015181840152602081019050613df2565b50505050905090810190601f168015613e3a5780820380516001836020036101000a031916815260200191505b506040525050509050600081511115613ec957808060200190516020811015613e6257600080fd5b8101908080519060200190929190505050613ec8576040517f08c379a00000000000000000000000000000000000000000000000000000000081526004018080602001828103825260308152602001806142966030913960400191505060405180910390fd5b5b505050505050565b606060405160200180807f7472616e7366657228616464726573732c75696e7432353629000000000000008152506019019050604051602081830303815290604052805190602001208483604051602401808373ffffffffffffffffffffffffffffffffffffffff16815260200182815260200192505050604051602081830303815290604052907bffffffffffffffffffffffffffffffffffffffffffffffffffffffff19166020820180517bffffffffffffffffffffffffffffffffffffffffffffffffffffffff8381831617835250505050905060608573ffffffffffffffffffffffffffffffffffffffff16633f579f42856000856040518463ffffffff1660e01b8152600401808473ffffffffffffffffffffffffffffffffffffffff16815260200183815260200180602001828103825283818151815260200191508051906020019080838360005b8381101561403b578082015181840152602081019050614020565b50505050905090810190601f1680156140685780820380516001836020036101000a031916815260200191505b50945050505050600060405180830381600087803b15801561408957600080fd5b505af115801561409d573d6000803e3d6000fd5b505050506040513d6000823e3d601f19601f8201168201806040525060208110156140c757600080fd5b81019080805160405193929190846401000000008211156140e757600080fd5b838201915060208201858111156140fd57600080fd5b825186600182028301116401000000008211171561411a57600080fd5b8083526020830192505050908051906020019080838360005b8381101561414e578082015181840152602081019050614133565b50505050905090810190601f16801561417b5780820380516001836020036101000a031916815260200191505b50604052505050905060008151111561420a578080602001905160208110156141a357600080fd5b8101908080519060200190929190505050614209576040517f08c379a000000000000000000000000000000000000000000000000000000000815260040180806020018281038252602f815260200180614213602f913960400191505060405180910390fd5b5b50505050505056fe41726368616e6f76614d69677261746f723a204552433230546f6b656e207472616e736665722072657665727465647472616e7366657246726f6d28616464726573732c616464726573732c75696e7432353629496e697469616c697a61626c653a2074782e6f726967696e206973206e6f742074686520696e697469616c697a657241726368616e6f76614d69677261746f723a20455243373231207472616e736665722066726f6d20726576657274656441726368616e6f76614d69677261746f723a20496e76616c69642061726368616e6f7661206163636f756e7420646576696365207369676e6174757265a164736f6c634300060c000a",
  "devdoc": {
    "author": "Stanisaw Gogowski <stan@pillarproject.io>",
    "kind": "dev",
    "methods": {
      "constructor": {
        "details": "public constructor"
      },
      "initialize(address,address)": {
        "params": {
          "ensController_": "ens controller address",
          "ensRegistry_": "ens registry address"
        }
      },
      "isInitialized()": {
        "returns": {
          "_0": "true when contract is initialized"
        }
      }
    },
    "title": "Archanova migrator",
    "version": 1
  },
  "userdoc": {
    "kind": "user",
    "methods": {
      "initialize(address,address)": {
        "notice": "Initializes `ArchanovaMigrator` contract"
      },
      "isInitialized()": {
        "notice": "Check if contract is initialized"
      }
    },
    "version": 1
  },
  "storageLayout": {
    "storage": [
      {
        "astId": 86,
        "contract": "src/ArchanovaMigrator.sol:ArchanovaMigrator",
        "label": "initializer",
        "offset": 0,
        "slot": "0",
        "type": "t_address"
      },
      {
        "astId": 286,
        "contract": "src/ArchanovaMigrator.sol:ArchanovaMigrator",
        "label": "ensController",
        "offset": 0,
        "slot": "1",
        "type": "t_address_payable"
      },
      {
        "astId": 288,
        "contract": "src/ArchanovaMigrator.sol:ArchanovaMigrator",
        "label": "ensRegistry",
        "offset": 0,
        "slot": "2",
        "type": "t_address_payable"
      },
      {
        "astId": 290,
        "contract": "src/ArchanovaMigrator.sol:ArchanovaMigrator",
        "label": "chainId",
        "offset": 0,
        "slot": "3",
        "type": "t_uint256"
      }
    ],
    "types": {
      "t_address": {
        "encoding": "inplace",
        "label": "address",
        "numberOfBytes": "20"
      },
      "t_address_payable": {
        "encoding": "inplace",
        "label": "address payable",
        "numberOfBytes": "20"
      },
      "t_uint256": {
        "encoding": "inplace",
        "label": "uint256",
        "numberOfBytes": "32"
      }
    }
  }
}