{
  "address": "0x972efDEd3Ec7005f28A27F3C26C742BEd391ef97",
  "abi": [
    {
      "inputs": [
        {
          "internalType": "address",
          "name": "_guardian",
          "type": "address"
        },
        {
          "internalType": "bytes",
          "name": "_accountContractCode",
          "type": "bytes"
        },
        {
          "internalType": "address",
          "name": "_accountProxy",
          "type": "address"
        },
        {
          "internalType": "address",
          "name": "_ens",
          "type": "address"
        }
      ],
      "payable": false,
      "stateMutability": "nonpayable",
      "type": "constructor"
    },
    {
      "anonymous": false,
      "inputs": [
        {
          "indexed": false,
          "internalType": "address",
          "name": "account",
          "type": "address"
        }
      ],
      "name": "AccountCreated",
      "type": "event"
    },
    {
      "anonymous": false,
      "inputs": [
        {
          "indexed": false,
          "internalType": "address",
          "name": "account",
          "type": "address"
        }
      ],
      "name": "AccountEnsNameUpdated",
      "type": "event"
    },
    {
      "anonymous": false,
      "inputs": [
        {
          "indexed": true,
          "internalType": "bytes32",
          "name": "node",
          "type": "bytes32"
        },
        {
          "indexed": false,
          "internalType": "address",
          "name": "addr",
          "type": "address"
        }
      ],
      "name": "AddrChanged",
      "type": "event"
    },
    {
      "anonymous": false,
      "inputs": [
        {
          "indexed": false,
          "internalType": "bytes32",
          "name": "rootNode",
          "type": "bytes32"
        },
        {
          "indexed": false,
          "internalType": "address",
          "name": "owner",
          "type": "address"
        }
      ],
      "name": "EnsRootNodeAdded",
      "type": "event"
    },
    {
      "anonymous": false,
      "inputs": [
        {
          "indexed": false,
          "internalType": "bytes32",
          "name": "rootNode",
          "type": "bytes32"
        }
      ],
      "name": "EnsRootNodeReleased",
      "type": "event"
    },
    {
      "anonymous": false,
      "inputs": [
        {
          "indexed": false,
          "internalType": "bytes32",
          "name": "rootNode",
          "type": "bytes32"
        }
      ],
      "name": "EnsRootNodeVerified",
      "type": "event"
    },
    {
      "constant": false,
      "inputs": [
        {
          "internalType": "bytes32",
          "name": "_rootNode",
          "type": "bytes32"
        }
      ],
      "name": "addEnsRootNode",
      "outputs": [],
      "payable": false,
      "stateMutability": "nonpayable",
      "type": "function"
    },
    {
      "constant": true,
      "inputs": [
        {
          "internalType": "bytes32",
          "name": "_node",
          "type": "bytes32"
        }
      ],
      "name": "addr",
      "outputs": [
        {
          "internalType": "address",
          "name": "",
          "type": "address"
        }
      ],
      "payable": false,
      "stateMutability": "view",
      "type": "function"
    },
    {
      "constant": false,
      "inputs": [
        {
          "internalType": "bytes32",
          "name": "_ensLabel",
          "type": "bytes32"
        },
        {
          "internalType": "bytes32",
          "name": "_ensNode",
          "type": "bytes32"
        },
        {
          "internalType": "uint256",
          "name": "_refundGas",
          "type": "uint256"
        },
        {
          "internalType": "bytes",
          "name": "_signature",
          "type": "bytes"
        }
      ],
      "name": "createAccount",
      "outputs": [],
      "payable": false,
      "stateMutability": "nonpayable",
      "type": "function"
    },
    {
      "constant": true,
      "inputs": [
        {
          "internalType": "bytes32",
          "name": "",
          "type": "bytes32"
        }
      ],
      "name": "ensRootNodes",
      "outputs": [
        {
          "internalType": "address",
          "name": "owner",
          "type": "address"
        },
        {
          "internalType": "bool",
          "name": "verified",
          "type": "bool"
        }
      ],
      "payable": false,
      "stateMutability": "view",
      "type": "function"
    },
    {
      "constant": true,
      "inputs": [],
      "name": "guardian",
      "outputs": [
        {
          "internalType": "contract AbstractAccount",
          "name": "",
          "type": "address"
        }
      ],
      "payable": false,
      "stateMutability": "view",
      "type": "function"
    },
    {
      "constant": false,
      "inputs": [
        {
          "internalType": "bytes32",
          "name": "_rootNode",
          "type": "bytes32"
        }
      ],
      "name": "releaseEnsRootNode",
      "outputs": [],
      "payable": false,
      "stateMutability": "nonpayable",
      "type": "function"
    },
    {
      "constant": false,
      "inputs": [
        {
          "internalType": "bytes32",
          "name": "_node",
          "type": "bytes32"
        },
        {
          "internalType": "address",
          "name": "_addr",
          "type": "address"
        }
      ],
      "name": "setAddr",
      "outputs": [],
      "payable": false,
      "stateMutability": "nonpayable",
      "type": "function"
    },
    {
      "constant": false,
      "inputs": [
        {
          "internalType": "uint256",
          "name": "_accountId",
          "type": "uint256"
        },
        {
          "internalType": "address",
          "name": "_device",
          "type": "address"
        },
        {
          "internalType": "bytes32",
          "name": "_ensLabel",
          "type": "bytes32"
        },
        {
          "internalType": "bytes32",
          "name": "_ensNode",
          "type": "bytes32"
        },
        {
          "internalType": "uint256",
          "name": "_refundGas",
          "type": "uint256"
        }
      ],
      "name": "unsafeCreateAccount",
      "outputs": [],
      "payable": false,
      "stateMutability": "nonpayable",
      "type": "function"
    },
    {
      "constant": false,
      "inputs": [
        {
          "internalType": "bytes32",
          "name": "_ensLabel",
          "type": "bytes32"
        },
        {
          "internalType": "bytes32",
          "name": "_ensNode",
          "type": "bytes32"
        },
        {
          "internalType": "bytes",
          "name": "_guardianSignature",
          "type": "bytes"
        }
      ],
      "name": "updateAccountEnsName",
      "outputs": [],
      "payable": false,
      "stateMutability": "nonpayable",
      "type": "function"
    },
    {
      "constant": false,
      "inputs": [
        {
          "internalType": "bytes32",
          "name": "_rootNode",
          "type": "bytes32"
        }
      ],
      "name": "verifyEnsRootNode",
      "outputs": [],
      "payable": false,
      "stateMutability": "nonpayable",
      "type": "function"
    }
  ],
  "transactionHash": "0x8327f75c93522de1dc4e1a26aa8ca0e12ad007323911e871f6f0ebaca7cf9eb1",
  "args": [
    "0x0c68aBae9eCfFbb683DcaaEf36F393804FEEE750",
    "0x608060405234801561001057600080fd5b5060016000803373ffffffffffffffffffffffffffffffffffffffff1673ffffffffffffffffffffffffffffffffffffffff16815260200190815260200160002060000160006101000a81548160ff02191690831515021790555060016000803373ffffffffffffffffffffffffffffffffffffffff1673ffffffffffffffffffffffffffffffffffffffff16815260200190815260200160002060000160016101000a81548160ff02191690831515021790555060016000803373ffffffffffffffffffffffffffffffffffffffff1673ffffffffffffffffffffffffffffffffffffffff16815260200190815260200160002060000160026101000a81548160ff021916908315150217905550610f5b8061012e6000396000f3fe60806040526004361061004a5760003560e01c80631f7b63241461004c57806320c13b0b1461009d5780633f579f421461024e578063811d54dc146103b9578063e7b4cac614610416575b005b34801561005857600080fd5b5061009b6004803603602081101561006f57600080fd5b81019080803573ffffffffffffffffffffffffffffffffffffffff169060200190929190505050610495565b005b3480156100a957600080fd5b506101fa600480360360408110156100c057600080fd5b81019080803590602001906401000000008111156100dd57600080fd5b8201836020820111156100ef57600080fd5b8035906020019184600183028401116401000000008311171561011157600080fd5b91908080601f016020809104026020016040519081016040528093929190818152602001838380828437600081840152601f19601f8201169050808301925050505050505091929192908035906020019064010000000081111561017457600080fd5b82018360208201111561018657600080fd5b803590602001918460018302840111640100000000831117156101a857600080fd5b91908080601f016020809104026020016040519081016040528093929190818152602001838380828437600081840152601f19601f82011690508083019250505050505050919291929050505061065f565b60405180827bffffffffffffffffffffffffffffffffffffffffffffffffffffffff19167bffffffffffffffffffffffffffffffffffffffffffffffffffffffff1916815260200191505060405180910390f35b34801561025a57600080fd5b5061033e6004803603606081101561027157600080fd5b81019080803573ffffffffffffffffffffffffffffffffffffffff16906020019092919080359060200190929190803590602001906401000000008111156102b857600080fd5b8201836020820111156102ca57600080fd5b803590602001918460018302840111640100000000831117156102ec57600080fd5b91908080601f016020809104026020016040519081016040528093929190818152602001838380828437600081840152601f19601f82011690508083019250505050505050919291929050505061088e565b6040518080602001828103825283818151815260200191508051906020019080838360005b8381101561037e578082015181840152602081019050610363565b50505050905090810190601f1680156103ab5780820380516001836020036101000a031916815260200191505b509250505060405180910390f35b3480156103c557600080fd5b50610414600480360360408110156103dc57600080fd5b81019080803573ffffffffffffffffffffffffffffffffffffffff169060200190929190803515159060200190929190505050610b37565b005b34801561042257600080fd5b506104656004803603602081101561043957600080fd5b81019080803573ffffffffffffffffffffffffffffffffffffffff169060200190929190505050610da2565b60405180841515151581526020018315151515815260200182151515158152602001935050505060405180910390f35b6000803373ffffffffffffffffffffffffffffffffffffffff1673ffffffffffffffffffffffffffffffffffffffff16815260200190815260200160002060000160009054906101000a900460ff166104ed57600080fd5b6000808273ffffffffffffffffffffffffffffffffffffffff1673ffffffffffffffffffffffffffffffffffffffff16815260200190815260200160002060000160019054906101000a900460ff1661054557600080fd5b60008060008373ffffffffffffffffffffffffffffffffffffffff1673ffffffffffffffffffffffffffffffffffffffff16815260200190815260200160002060000160006101000a81548160ff02191690831515021790555060008060008373ffffffffffffffffffffffffffffffffffffffff1673ffffffffffffffffffffffffffffffffffffffff16815260200190815260200160002060000160016101000a81548160ff0219169083151502179055507f15c62ec158a6c18af42b447791266b9b0764ba2a6df610890d4da85c3d4185db81604051808273ffffffffffffffffffffffffffffffffffffffff1673ffffffffffffffffffffffffffffffffffffffff16815260200191505060405180910390a150565b6000806041835114156108195760008060006020860151925060408601519150606086015160001a9050601b8160ff16101561069c57601b810190505b601b8160ff1614806106b15750601c8160ff16145b156108155760016106c28851610df3565b8860405160200180807f19457468657265756d205369676e6564204d6573736167653a0a000000000000815250601a0183805190602001908083835b6020831061072157805182526020820191506020810190506020830392506106fe565b6001836020036101000a03801982511681845116808217855250505050505090500182805190602001908083835b60208310610772578051825260208201915060208101905060208303925061074f565b6001836020036101000a038019825116818451168082178552505050505050905001925050506040516020818303038152906040528051906020012082858560405160008152602001604052604051808581526020018460ff1660ff1681526020018381526020018281526020019450505050506020604051602081039080840390855afa158015610808573d6000803e3d6000fd5b5050506020604051035193505b5050505b6000808273ffffffffffffffffffffffffffffffffffffffff1673ffffffffffffffffffffffffffffffffffffffff16815260200190815260200160002060000160029054906101000a900460ff161561087c576320c13b0b60e01b9150610887565b63ffffffff60e01b91505b5092915050565b60606000803373ffffffffffffffffffffffffffffffffffffffff1673ffffffffffffffffffffffffffffffffffffffff16815260200190815260200160002060000160009054906101000a900460ff166108e857600080fd5b600073ffffffffffffffffffffffffffffffffffffffff168473ffffffffffffffffffffffffffffffffffffffff16141561092257600080fd5b60008473ffffffffffffffffffffffffffffffffffffffff1684846040518082805190602001908083835b60208310610970578051825260208201915060208101905060208303925061094d565b6001836020036101000a03801982511681845116808217855250505050505090500191505060006040518083038185875af1925050503d80600081146109d2576040519150601f19603f3d011682016040523d82523d6000602084013e6109d7565b606091505b508093508192505050806109ea57600080fd5b7f012ae8711b8dc37e405d8e422569d1ee78d52d76bc8fe2a9ea81ffe17569e51a85858585604051808573ffffffffffffffffffffffffffffffffffffffff1673ffffffffffffffffffffffffffffffffffffffff1681526020018481526020018060200180602001838103835285818151815260200191508051906020019080838360005b83811015610a8b578082015181840152602081019050610a70565b50505050905090810190601f168015610ab85780820380516001836020036101000a031916815260200191505b50838103825284818151815260200191508051906020019080838360005b83811015610af1578082015181840152602081019050610ad6565b50505050905090810190601f168015610b1e5780820380516001836020036101000a031916815260200191505b50965050505050505060405180910390a1509392505050565b6000803373ffffffffffffffffffffffffffffffffffffffff1673ffffffffffffffffffffffffffffffffffffffff16815260200190815260200160002060000160009054906101000a900460ff16610b8f57600080fd5b600073ffffffffffffffffffffffffffffffffffffffff168273ffffffffffffffffffffffffffffffffffffffff161415610bc957600080fd5b6000808373ffffffffffffffffffffffffffffffffffffffff1673ffffffffffffffffffffffffffffffffffffffff16815260200190815260200160002060000160019054906101000a900460ff1615610c2257600080fd5b806000808473ffffffffffffffffffffffffffffffffffffffff1673ffffffffffffffffffffffffffffffffffffffff16815260200190815260200160002060000160006101000a81548160ff02191690831515021790555060016000808473ffffffffffffffffffffffffffffffffffffffff1673ffffffffffffffffffffffffffffffffffffffff16815260200190815260200160002060000160016101000a81548160ff02191690831515021790555060016000808473ffffffffffffffffffffffffffffffffffffffff1673ffffffffffffffffffffffffffffffffffffffff16815260200190815260200160002060000160026101000a81548160ff0219169083151502179055507f3525178f8d4a5c0dc1e61a0ede8d6a7a9ea67a23ec515983bbb940be4b4196508282604051808373ffffffffffffffffffffffffffffffffffffffff1673ffffffffffffffffffffffffffffffffffffffff168152602001821515151581526020019250505060405180910390a15050565b60006020528060005260406000206000915090508060000160009054906101000a900460ff16908060000160019054906101000a900460ff16908060000160029054906101000a900460ff16905083565b60606000821415610e3b576040518060400160405280600181526020017f30000000000000000000000000000000000000000000000000000000000000008152509050610f21565b6000829050600083905060005b60008214610e6a578080600101915050600a8281610e6257fe5b049150610e48565b6060816040519080825280601f01601f191660200182016040528015610e9f5781602001600182028038833980820191505090505b50905060006001830390505b60008514610f1857600a8581610ebd57fe5b0660300160f81b82828060019003935081518110610ed757fe5b60200101907effffffffffffffffffffffffffffffffffffffffffffffffffffffffffffff1916908160001a905350600a8581610f1057fe5b049450610eab565b81955050505050505b91905056fea265627a7a72315820575486537b2184111dc22aebb230a1fdd4bca77052558680985d185711cba1c464736f6c63430005110032",
    "0x621ebfa1B5246F3B77af5EB165441845D21dAB8D",
    "0xF4901936071aA71426aa57629Af5AED68914DC8b"
  ],
  "solcInputHash": "2d65759aa936f218b80b5cf1af768225",
  "bytecode": "0x60806040523480156200001157600080fd5b50604051620029c1380380620029c1833981810160405260808110156200003757600080fd5b8101908080519060200190929190805160405193929190846401000000008211156200006257600080fd5b838201915060208201858111156200007957600080fd5b82518660018202830111640100000000821117156200009757600080fd5b8083526020830192505050908051906020019080838360005b83811015620000cd578082015181840152602081019050620000b0565b50505050905090810190601f168015620000fb5780820380516001836020036101000a031916815260200191505b50604052602001805190602001909291908051906020019092919050505083818480600090805190602001906200013492919062000213565b5080805190602001206001819055505080600460006101000a81548173ffffffffffffffffffffffffffffffffffffffff021916908373ffffffffffffffffffffffffffffffffffffffff1602179055505080600560006101000a81548173ffffffffffffffffffffffffffffffffffffffff021916908373ffffffffffffffffffffffffffffffffffffffff1602179055505081600660006101000a81548173ffffffffffffffffffffffffffffffffffffffff021916908373ffffffffffffffffffffffffffffffffffffffff16021790555050505050620002c2565b828054600181600116156101000203166002900490600052602060002090601f016020900481019282601f106200025657805160ff191683800117855562000287565b8280016001018555821562000287579182015b828111156200028657825182559160200191906001019062000269565b5b5090506200029691906200029a565b5090565b620002bf91905b80821115620002bb576000816000905550600101620002a1565b5090565b90565b6126ef80620002d26000396000f3fe608060405234801561001057600080fd5b506004361061009e5760003560e01c80635acb1c1b116100665780635acb1c1b146102235780637ff4dfd0146102f2578063bb223ce41461036b578063c6147fc814610399578063d5fa2b00146104725761009e565b806304aa74cb146100a3578063188b954f146100d15780633b3b57de1461013d578063416ae7ff146101ab578063452a9320146101d9575b600080fd5b6100cf600480360360208110156100b957600080fd5b81019080803590602001909291905050506104c0565b005b61013b600480360360a08110156100e757600080fd5b8101908080359060200190929190803573ffffffffffffffffffffffffffffffffffffffff1690602001909291908035906020019092919080359060200190929190803590602001909291905050506106e2565b005b6101696004803603602081101561015357600080fd5b81019080803590602001909291905050506108ee565b604051808273ffffffffffffffffffffffffffffffffffffffff1673ffffffffffffffffffffffffffffffffffffffff16815260200191505060405180910390f35b6101d7600480360360208110156101c157600080fd5b810190808035906020019092919050505061092b565b005b6101e1610ba7565b604051808273ffffffffffffffffffffffffffffffffffffffff1673ffffffffffffffffffffffffffffffffffffffff16815260200191505060405180910390f35b6102f06004803603606081101561023957600080fd5b8101908080359060200190929190803590602001909291908035906020019064010000000081111561026a57600080fd5b82018360208201111561027c57600080fd5b8035906020019184600183028401116401000000008311171561029e57600080fd5b91908080601f016020809104026020016040519081016040528093929190818152602001838380828437600081840152601f19601f820116905080830192505050505050509192919290505050610bcd565b005b61031e6004803603602081101561030857600080fd5b8101908080359060200190929190505050610e81565b604051808373ffffffffffffffffffffffffffffffffffffffff1673ffffffffffffffffffffffffffffffffffffffff168152602001821515151581526020019250505060405180910390f35b6103976004803603602081101561038157600080fd5b8101908080359060200190929190505050610ed2565b005b610470600480360360808110156103af57600080fd5b81019080803590602001909291908035906020019092919080359060200190929190803590602001906401000000008111156103ea57600080fd5b8201836020820111156103fc57600080fd5b8035906020019184600183028401116401000000008311171561041e57600080fd5b91908080601f016020809104026020016040519081016040528093929190818152602001838380828437600081840152601f19601f82011690508083019250505050505050919291929050505061118a565b005b6104be6004803603604081101561048857600080fd5b8101908080359060200190929190803573ffffffffffffffffffffffffffffffffffffffff1690602001909291905050506114e9565b005b3073ffffffffffffffffffffffffffffffffffffffff16600460009054906101000a900473ffffffffffffffffffffffffffffffffffffffff1673ffffffffffffffffffffffffffffffffffffffff166302571be3836040518263ffffffff1660e01b81526004018082815260200191505060206040518083038186803b15801561054a57600080fd5b505afa15801561055e573d6000803e3d6000fd5b505050506040513d602081101561057457600080fd5b810190808051906020019092919050505073ffffffffffffffffffffffffffffffffffffffff16146040518060400160405280601a81526020017f454e5320726f6f74206e6f6465206e6f7420766572696669656400000000000081525090610678576040517f08c379a00000000000000000000000000000000000000000000000000000000081526004018080602001828103825283818151815260200191508051906020019080838360005b8381101561063d578082015181840152602081019050610622565b50505050905090810190601f16801561066a5780820380516001836020036101000a031916815260200191505b509250505060405180910390fd5b5060016002600083815260200190815260200160002060000160146101000a81548160ff0219169083151502179055507f3c1e12021a68eb78df268e4fed874721bb38a7b278d9029db9a7b2056592baf2816040518082815260200191505060405180910390a150565b3373ffffffffffffffffffffffffffffffffffffffff16600560009054906101000a900473ffffffffffffffffffffffffffffffffffffffff1673ffffffffffffffffffffffffffffffffffffffff161480610785575061078433600560009054906101000a900473ffffffffffffffffffffffffffffffffffffffff1673ffffffffffffffffffffffffffffffffffffffff166116e290919063ffffffff16565b5b6040518060600160405280602b8152602001612690602b913990610844576040517f08c379a00000000000000000000000000000000000000000000000000000000081526004018080602001828103825283818151815260200191508051906020019080838360005b838110156108095780820151818401526020810190506107ee565b50505050905090810190601f1680156108365780820380516001836020036101000a031916815260200191505b509250505060405180910390fd5b506000600260f81b8660405160200180837effffffffffffffffffffffffffffffffffffffffffffffffffffffffffffff19167effffffffffffffffffffffffffffffffffffffffffffffffffffffffffffff191681526001018281526020019250505060405160208183030381529060405280519060200120905060006108cd8287856117c3565b90506000801b85146108e5576108e4858583611c7e565b5b50505050505050565b60006003600083815260200190815260200160002060009054906101000a900473ffffffffffffffffffffffffffffffffffffffff169050919050565b3373ffffffffffffffffffffffffffffffffffffffff16600460009054906101000a900473ffffffffffffffffffffffffffffffffffffffff1673ffffffffffffffffffffffffffffffffffffffff166302571be3836040518263ffffffff1660e01b81526004018082815260200191505060206040518083038186803b1580156109b557600080fd5b505afa1580156109c9573d6000803e3d6000fd5b505050506040513d60208110156109df57600080fd5b810190808051906020019092919050505073ffffffffffffffffffffffffffffffffffffffff16146040518060400160405280601c81526020017f53656e646572206973206e6f7420454e53206e6f6465206f776e65720000000081525090610ae3576040517f08c379a00000000000000000000000000000000000000000000000000000000081526004018080602001828103825283818151815260200191508051906020019080838360005b83811015610aa8578082015181840152602081019050610a8d565b50505050905090810190601f168015610ad55780820380516001836020036101000a031916815260200191505b509250505060405180910390fd5b50336002600083815260200190815260200160002060000160006101000a81548173ffffffffffffffffffffffffffffffffffffffff021916908373ffffffffffffffffffffffffffffffffffffffff1602179055507f44a96c3928a5c6ba670970f10868d09235a6b7a5770c2ebbf244e2228e546f5c8133604051808381526020018273ffffffffffffffffffffffffffffffffffffffff1673ffffffffffffffffffffffffffffffffffffffff1681526020019250505060405180910390a150565b600560009054906101000a900473ffffffffffffffffffffffffffffffffffffffff1681565b6000610cde306000357fffffffff0000000000000000000000000000000000000000000000000000000016868633604051602001808673ffffffffffffffffffffffffffffffffffffffff1673ffffffffffffffffffffffffffffffffffffffff1660601b8152601401857bffffffffffffffffffffffffffffffffffffffffffffffffffffffff19167bffffffffffffffffffffffffffffffffffffffffffffffffffffffff191681526004018481526020018381526020018273ffffffffffffffffffffffffffffffffffffffff1673ffffffffffffffffffffffffffffffffffffffff1660601b815260140195505050505050604051602081830303815290604052805190602001206122fd565b9050610d3081836001600560009054906101000a900473ffffffffffffffffffffffffffffffffffffffff1673ffffffffffffffffffffffffffffffffffffffff16612355909392919063ffffffff16565b6040518060400160405280601181526020017f496e76616c6964207369676e617475726500000000000000000000000000000081525090610e0c576040517f08c379a00000000000000000000000000000000000000000000000000000000081526004018080602001828103825283818151815260200191508051906020019080838360005b83811015610dd1578082015181840152602081019050610db6565b50505050905090810190601f168015610dfe5780820380516001836020036101000a031916815260200191505b509250505060405180910390fd5b50610e18848433611c7e565b7f7eaf47b80dadd049c59d75e4fea0cff3ac993d779967e004590899fb0ce321f633604051808273ffffffffffffffffffffffffffffffffffffffff1673ffffffffffffffffffffffffffffffffffffffff16815260200191505060405180910390a150505050565b60026020528060005260406000206000915090508060000160009054906101000a900473ffffffffffffffffffffffffffffffffffffffff16908060000160149054906101000a900460ff16905082565b3373ffffffffffffffffffffffffffffffffffffffff166002600083815260200190815260200160002060000160009054906101000a900473ffffffffffffffffffffffffffffffffffffffff1673ffffffffffffffffffffffffffffffffffffffff16146040518060400160405280601c81526020017f53656e646572206973206e6f7420454e53206e6f6465206f776e65720000000081525090611013576040517f08c379a00000000000000000000000000000000000000000000000000000000081526004018080602001828103825283818151815260200191508051906020019080838360005b83811015610fd8578082015181840152602081019050610fbd565b50505050905090810190601f1680156110055780820380516001836020036101000a031916815260200191505b509250505060405180910390fd5b506002600082815260200190815260200160002060000160149054906101000a900460ff16156110ff57600460009054906101000a900473ffffffffffffffffffffffffffffffffffffffff1673ffffffffffffffffffffffffffffffffffffffff16635b0fc9c382336040518363ffffffff1660e01b8152600401808381526020018273ffffffffffffffffffffffffffffffffffffffff1673ffffffffffffffffffffffffffffffffffffffff16815260200192505050600060405180830381600087803b1580156110e657600080fd5b505af11580156110fa573d6000803e3d6000fd5b505050505b60026000828152602001908152602001600020600080820160006101000a81549073ffffffffffffffffffffffffffffffffffffffff02191690556000820160146101000a81549060ff021916905550507fc98be4d6a6f25550c39fb4e66d7ecd9ed01b3a569eff063b00e6608270d31f3d816040518082815260200191505060405180910390a150565b3373ffffffffffffffffffffffffffffffffffffffff16600560009054906101000a900473ffffffffffffffffffffffffffffffffffffffff1673ffffffffffffffffffffffffffffffffffffffff16148061122d575061122c33600560009054906101000a900473ffffffffffffffffffffffffffffffffffffffff1673ffffffffffffffffffffffffffffffffffffffff166116e290919063ffffffff16565b5b6040518060600160405280602b8152602001612690602b9139906112ec576040517f08c379a00000000000000000000000000000000000000000000000000000000081526004018080602001828103825283818151815260200191508051906020019080838360005b838110156112b1578082015181840152602081019050611296565b50505050905090810190601f1680156112de5780820380516001836020036101000a031916815260200191505b509250505060405180910390fd5b5060006113e9826113db306000357fffffffff00000000000000000000000000000000000000000000000000000000168989893a604051602001808773ffffffffffffffffffffffffffffffffffffffff1673ffffffffffffffffffffffffffffffffffffffff1660601b8152601401867bffffffffffffffffffffffffffffffffffffffffffffffffffffffff19167bffffffffffffffffffffffffffffffffffffffffffffffffffffffff191681526004018581526020018481526020018381526020018281526020019650505050505050604051602081830303815290604052805190602001206122fd565b6123cf90919063ffffffff16565b90506000600160f81b82604051602001808273ffffffffffffffffffffffffffffffffffffffff1673ffffffffffffffffffffffffffffffffffffffff1660601b81526014019150506040516020818303038152906040528051906020012060405160200180837effffffffffffffffffffffffffffffffffffffffffffffffffffffffffffff19167effffffffffffffffffffffffffffffffffffffffffffffffffffffffffffff191681526001018281526020019250505060405160208183030381529060405280519060200120905060006114c88284876117c3565b90506000801b87146114e0576114df878783611c7e565b5b50505050505050565b3373ffffffffffffffffffffffffffffffffffffffff166003600084815260200190815260200160002060009054906101000a900473ffffffffffffffffffffffffffffffffffffffff1673ffffffffffffffffffffffffffffffffffffffff16146040518060400160405280601c81526020017f53656e646572206973206e6f7420454e53206e6f6465206f776e65720000000081525090611627576040517f08c379a00000000000000000000000000000000000000000000000000000000081526004018080602001828103825283818151815260200191508051906020019080838360005b838110156115ec5780820151818401526020810190506115d1565b50505050905090810190601f1680156116195780820380516001836020036101000a031916815260200191505b509250505060405180910390fd5b50806003600084815260200190815260200160002060006101000a81548173ffffffffffffffffffffffffffffffffffffffff021916908373ffffffffffffffffffffffffffffffffffffffff160217905550817f52d7d861f09ab3d26239d492e8968629f95e9e318cf0b73bfddc441522a15fd282604051808273ffffffffffffffffffffffffffffffffffffffff1673ffffffffffffffffffffffffffffffffffffffff16815260200191505060405180910390a25050565b6000808373ffffffffffffffffffffffffffffffffffffffff1663e7b4cac6846040518263ffffffff1660e01b8152600401808273ffffffffffffffffffffffffffffffffffffffff1673ffffffffffffffffffffffffffffffffffffffff16815260200191505060606040518083038186803b15801561176257600080fd5b505afa158015611776573d6000803e3d6000fd5b505050506040513d606081101561178c57600080fd5b8101908080519060200190929190805190602001909291908051906020019092919050505090915050809150508091505092915050565b6000806117cf856124b1565b90506000831115611a0f578073ffffffffffffffffffffffffffffffffffffffff16633f579f423361180a3a8761257390919063ffffffff16565b60006040519080825280601f01601f19166020018201604052801561183e5781602001600182028038833980820191505090505b506040518463ffffffff1660e01b8152600401808473ffffffffffffffffffffffffffffffffffffffff1673ffffffffffffffffffffffffffffffffffffffff16815260200183815260200180602001828103825283818151815260200191508051906020019080838360005b838110156118c65780820151818401526020810190506118ab565b50505050905090810190601f1680156118f35780820380516001836020036101000a031916815260200191505b50945050505050600060405180830381600087803b15801561191457600080fd5b505af1158015611928573d6000803e3d6000fd5b505050506040513d6000823e3d601f19601f82011682018060405250602081101561195257600080fd5b810190808051604051939291908464010000000082111561197257600080fd5b8382019150602082018581111561198857600080fd5b82518660018202830111640100000000821117156119a557600080fd5b8083526020830192505050908051906020019080838360005b838110156119d95780820151818401526020810190506119be565b50505050905090810190601f168015611a065780820380516001836020036101000a031916815260200191505b50604052505050505b8073ffffffffffffffffffffffffffffffffffffffff1663811d54dc8560016040518363ffffffff1660e01b8152600401808373ffffffffffffffffffffffffffffffffffffffff1673ffffffffffffffffffffffffffffffffffffffff1681526020018215151515815260200192505050600060405180830381600087803b158015611a9b57600080fd5b505af1158015611aaf573d6000803e3d6000fd5b505050508073ffffffffffffffffffffffffffffffffffffffff1663811d54dc600660009054906101000a900473ffffffffffffffffffffffffffffffffffffffff1660016040518363ffffffff1660e01b8152600401808373ffffffffffffffffffffffffffffffffffffffff1673ffffffffffffffffffffffffffffffffffffffff1681526020018215151515815260200192505050600060405180830381600087803b158015611b6157600080fd5b505af1158015611b75573d6000803e3d6000fd5b505050508073ffffffffffffffffffffffffffffffffffffffff16631f7b6324306040518263ffffffff1660e01b8152600401808273ffffffffffffffffffffffffffffffffffffffff1673ffffffffffffffffffffffffffffffffffffffff168152602001915050600060405180830381600087803b158015611bf857600080fd5b505af1158015611c0c573d6000803e3d6000fd5b505050507f805996f252884581e2f74cf3d2b03564d5ec26ccc90850ae12653dc1b72d1fa281604051808273ffffffffffffffffffffffffffffffffffffffff1673ffffffffffffffffffffffffffffffffffffffff16815260200191505060405180910390a1809150509392505050565b600073ffffffffffffffffffffffffffffffffffffffff166002600084815260200190815260200160002060000160009054906101000a900473ffffffffffffffffffffffffffffffffffffffff1673ffffffffffffffffffffffffffffffffffffffff1614156040518060400160405280601b81526020017f454e5320726f6f74206e6f646520646f65736e2774206578697374000000000081525090611dc1576040517f08c379a00000000000000000000000000000000000000000000000000000000081526004018080602001828103825283818151815260200191508051906020019080838360005b83811015611d86578082015181840152602081019050611d6b565b50505050905090810190601f168015611db35780820380516001836020036101000a031916815260200191505b509250505060405180910390fd5b506002600083815260200190815260200160002060000160149054906101000a900460ff166040518060400160405280601a81526020017f454e5320726f6f74206e6f6465206e6f7420766572696669656400000000000081525090611ec2576040517f08c379a00000000000000000000000000000000000000000000000000000000081526004018080602001828103825283818151815260200191508051906020019080838360005b83811015611e87578082015181840152602081019050611e6c565b50505050905090810190601f168015611eb45780820380516001836020036101000a031916815260200191505b509250505060405180910390fd5b50600082846040516020018083815260200182815260200192505050604051602081830303815290604052805190602001209050600073ffffffffffffffffffffffffffffffffffffffff166003600083815260200190815260200160002060009054906101000a900473ffffffffffffffffffffffffffffffffffffffff1673ffffffffffffffffffffffffffffffffffffffff16146040518060400160405280601781526020017f454e53206c6162656c20616c72656164792074616b656e00000000000000000081525090612035576040517f08c379a00000000000000000000000000000000000000000000000000000000081526004018080602001828103825283818151815260200191508051906020019080838360005b83811015611ffa578082015181840152602081019050611fdf565b50505050905090810190601f1680156120275780820380516001836020036101000a031916815260200191505b509250505060405180910390fd5b50816003600083815260200190815260200160002060006101000a81548173ffffffffffffffffffffffffffffffffffffffff021916908373ffffffffffffffffffffffffffffffffffffffff160217905550600460009054906101000a900473ffffffffffffffffffffffffffffffffffffffff1673ffffffffffffffffffffffffffffffffffffffff166306ab59238486306040518463ffffffff1660e01b8152600401808481526020018381526020018273ffffffffffffffffffffffffffffffffffffffff1673ffffffffffffffffffffffffffffffffffffffff1681526020019350505050602060405180830381600087803b15801561213957600080fd5b505af115801561214d573d6000803e3d6000fd5b505050506040513d602081101561216357600080fd5b810190808051906020019092919050505050600460009054906101000a900473ffffffffffffffffffffffffffffffffffffffff1673ffffffffffffffffffffffffffffffffffffffff16631896f70a82306040518363ffffffff1660e01b8152600401808381526020018273ffffffffffffffffffffffffffffffffffffffff1673ffffffffffffffffffffffffffffffffffffffff16815260200192505050600060405180830381600087803b15801561221e57600080fd5b505af1158015612232573d6000803e3d6000fd5b50505050600460009054906101000a900473ffffffffffffffffffffffffffffffffffffffff1673ffffffffffffffffffffffffffffffffffffffff16635b0fc9c382846040518363ffffffff1660e01b8152600401808381526020018273ffffffffffffffffffffffffffffffffffffffff1673ffffffffffffffffffffffffffffffffffffffff16815260200192505050600060405180830381600087803b1580156122df57600080fd5b505af11580156122f3573d6000803e3d6000fd5b5050505050505050565b60008160405160200180807f19457468657265756d205369676e6564204d6573736167653a0a333200000000815250601c01828152602001915050604051602081830303815290604052805190602001209050919050565b60008061236b84866123cf90919063ffffffff16565b9050600073ffffffffffffffffffffffffffffffffffffffff168173ffffffffffffffffffffffffffffffffffffffff16146123c65782156123b8576123b186826116e2565b91506123c5565b6123c286826125ad565b91505b5b50949350505050565b60008060008060418551146123ea57600093505050506124ab565b6020850151925060408501519150606085015160001a9050601b8160ff16101561241557601b810190505b601b8160ff161415801561242d5750601c8160ff1614155b1561243e57600093505050506124ab565b60018682858560405160008152602001604052604051808581526020018460ff1660ff1681526020018381526020018281526020019450505050506020604051602081039080840390855afa15801561249b573d6000803e3d6000fd5b5050506020604051035193505050505b92915050565b6000606060008054600181600116156101000203166002900480601f01602080910402602001604051908101604052809291908181526020018280546001816001161561010002031660029004801561254b5780601f106125205761010080835404028352916020019161254b565b820191906000526020600020905b81548152906001019060200180831161252e57829003601f168201915b505050505090506020810181518481836000f59350833b61256b57600080fd5b505050919050565b60008083141561258657600090506125a7565b600082840290508284828161259757fe5b04146125a257600080fd5b809150505b92915050565b6000808373ffffffffffffffffffffffffffffffffffffffff1663e7b4cac6846040518263ffffffff1660e01b8152600401808273ffffffffffffffffffffffffffffffffffffffff1673ffffffffffffffffffffffffffffffffffffffff16815260200191505060606040518083038186803b15801561262d57600080fd5b505afa158015612641573d6000803e3d6000fd5b505050506040513d606081101561265757600080fd5b81019080805190602001909291908051906020019092919080519060200190929190505050909150905080915050809150509291505056fe53656e646572206973206e6f74206120677561726469616e206f7220677561726469616e20646576696365a265627a7a723158204e1a7dea1f2e0da7af88c877594479753ddbe4c569adfb6dcc3e917a7989ed8564736f6c63430005110032",
  "devdoc": {
    "methods": {},
    "title": "Account Provider V1"
  },
  "userdoc": {
    "methods": {}
  },
  "storageLayout": {
    "storage": [
      {
        "astId": 3958,
        "contract": "src/account/AccountProviderV1.sol:AccountProviderV1",
        "label": "contractCode",
        "offset": 0,
        "slot": "0",
        "type": "t_bytes_storage"
      },
      {
        "astId": 3960,
        "contract": "src/account/AccountProviderV1.sol:AccountProviderV1",
        "label": "contractCodeHash",
        "offset": 0,
        "slot": "1",
        "type": "t_bytes32"
      },
      {
        "astId": 4088,
        "contract": "src/account/AccountProviderV1.sol:AccountProviderV1",
        "label": "ensRootNodes",
        "offset": 0,
        "slot": "2",
        "type": "t_mapping(t_bytes32,t_struct(EnsRootNode)4072_storage)"
      },
      {
        "astId": 4092,
        "contract": "src/account/AccountProviderV1.sol:AccountProviderV1",
        "label": "ensNodeAddresses",
        "offset": 0,
        "slot": "3",
        "type": "t_mapping(t_bytes32,t_address)"
      },
      {
        "astId": 4094,
        "contract": "src/account/AccountProviderV1.sol:AccountProviderV1",
        "label": "ens",
        "offset": 0,
        "slot": "4",
        "type": "t_contract(ENS)136"
      },
      {
        "astId": 4420,
        "contract": "src/account/AccountProviderV1.sol:AccountProviderV1",
        "label": "guardian",
        "offset": 0,
        "slot": "5",
        "type": "t_contract(AbstractAccount)1307"
      },
      {
        "astId": 2272,
        "contract": "src/account/AccountProviderV1.sol:AccountProviderV1",
        "label": "accountProxy",
        "offset": 0,
        "slot": "6",
        "type": "t_address"
      }
    ],
    "types": {
      "t_address": {
        "encoding": "inplace",
        "label": "address",
        "numberOfBytes": "20"
      },
      "t_bool": {
        "encoding": "inplace",
        "label": "bool",
        "numberOfBytes": "1"
      },
      "t_bytes32": {
        "encoding": "inplace",
        "label": "bytes32",
        "numberOfBytes": "32"
      },
      "t_bytes_storage": {
        "encoding": "bytes",
        "label": "bytes",
        "numberOfBytes": "32"
      },
      "t_contract(AbstractAccount)1307": {
        "encoding": "inplace",
        "label": "contract AbstractAccount",
        "numberOfBytes": "20"
      },
      "t_contract(ENS)136": {
        "encoding": "inplace",
        "label": "contract ENS",
        "numberOfBytes": "20"
      },
      "t_mapping(t_bytes32,t_address)": {
        "encoding": "mapping",
        "key": "t_bytes32",
        "label": "mapping(bytes32 => address)",
        "numberOfBytes": "32",
        "value": "t_address"
      },
      "t_mapping(t_bytes32,t_struct(EnsRootNode)4072_storage)": {
        "encoding": "mapping",
        "key": "t_bytes32",
        "label": "mapping(bytes32 => struct ENSMultiManager.EnsRootNode)",
        "numberOfBytes": "32",
        "value": "t_struct(EnsRootNode)4072_storage"
      },
      "t_struct(EnsRootNode)4072_storage": {
        "encoding": "inplace",
        "label": "struct ENSMultiManager.EnsRootNode",
        "members": [
          {
            "astId": 4069,
            "contract": "src/account/AccountProviderV1.sol:AccountProviderV1",
            "label": "owner",
            "offset": 0,
            "slot": "0",
            "type": "t_address"
          },
          {
            "astId": 4071,
            "contract": "src/account/AccountProviderV1.sol:AccountProviderV1",
            "label": "verified",
            "offset": 20,
            "slot": "0",
            "type": "t_bool"
          }
        ],
        "numberOfBytes": "32"
      }
    }
  }
}