{
  "address": "0x8EF08fCaFcc0C829fc9d24FBB96e6a8776a5fbEb",
  "abi": [
    {
      "inputs": [],
      "stateMutability": "nonpayable",
      "type": "constructor"
    },
    {
      "anonymous": false,
      "inputs": [
        {
          "indexed": false,
          "internalType": "address",
          "name": "archanovaAccount",
          "type": "address"
        },
        {
          "indexed": false,
          "internalType": "address",
          "name": "etherspotAccount",
          "type": "address"
        },
        {
          "indexed": false,
          "internalType": "uint256",
          "name": "value",
          "type": "uint256"
        }
      ],
      "name": "BalanceTransferred",
      "type": "event"
    },
    {
      "anonymous": false,
      "inputs": [
        {
          "indexed": false,
          "internalType": "address",
          "name": "archanovaAccount",
          "type": "address"
        },
        {
          "indexed": false,
          "internalType": "address",
          "name": "etherspotAccount",
          "type": "address"
        },
        {
          "indexed": false,
          "internalType": "bytes32",
          "name": "ensNode",
          "type": "bytes32"
        }
      ],
      "name": "ENSNodeTransferred",
      "type": "event"
    },
    {
      "anonymous": false,
      "inputs": [
        {
          "indexed": false,
          "internalType": "address",
          "name": "archanovaAccount",
          "type": "address"
        },
        {
          "indexed": false,
          "internalType": "address",
          "name": "etherspotAccount",
          "type": "address"
        },
        {
          "indexed": false,
          "internalType": "address",
          "name": "token",
          "type": "address"
        },
        {
          "indexed": false,
          "internalType": "uint256",
          "name": "tokenAmount",
          "type": "uint256"
        }
      ],
      "name": "ERC20TokenTransferred",
      "type": "event"
    },
    {
      "anonymous": false,
      "inputs": [
        {
          "indexed": false,
          "internalType": "address",
          "name": "archanovaAccount",
          "type": "address"
        },
        {
          "indexed": false,
          "internalType": "address",
          "name": "etherspotAccount",
          "type": "address"
        },
        {
          "indexed": false,
          "internalType": "address",
          "name": "token",
          "type": "address"
        },
        {
          "indexed": false,
          "internalType": "uint256",
          "name": "tokenId",
          "type": "uint256"
        }
      ],
      "name": "ERC721TokenTransferred",
      "type": "event"
    },
    {
      "anonymous": false,
      "inputs": [
        {
          "indexed": false,
          "internalType": "address",
          "name": "initializer",
          "type": "address"
        }
      ],
      "name": "Initialized",
      "type": "event"
    },
    {
      "inputs": [],
      "name": "ensController",
      "outputs": [
        {
          "internalType": "address payable",
          "name": "",
          "type": "address"
        }
      ],
      "stateMutability": "view",
      "type": "function"
    },
    {
      "inputs": [],
      "name": "ensRegistry",
      "outputs": [
        {
          "internalType": "address payable",
          "name": "",
          "type": "address"
        }
      ],
      "stateMutability": "view",
      "type": "function"
    },
    {
      "inputs": [
        {
          "internalType": "address payable",
          "name": "ensController_",
          "type": "address"
        },
        {
          "internalType": "address payable",
          "name": "ensRegistry_",
          "type": "address"
        }
      ],
      "name": "initialize",
      "outputs": [],
      "stateMutability": "nonpayable",
      "type": "function"
    },
    {
      "inputs": [],
      "name": "isInitialized",
      "outputs": [
        {
          "internalType": "bool",
          "name": "",
          "type": "bool"
        }
      ],
      "stateMutability": "view",
      "type": "function"
    },
    {
      "inputs": [
        {
          "internalType": "address payable",
          "name": "archanovaAccount",
          "type": "address"
        },
        {
          "internalType": "address payable",
          "name": "etherspotAccount",
          "type": "address"
        },
        {
          "internalType": "uint256",
          "name": "value",
          "type": "uint256"
        },
        {
          "internalType": "bytes",
          "name": "archanovaAccountDeviceSignature",
          "type": "bytes"
        }
      ],
      "name": "transferBalance",
      "outputs": [],
      "stateMutability": "nonpayable",
      "type": "function"
    },
    {
      "inputs": [
        {
          "internalType": "address payable",
          "name": "archanovaAccount",
          "type": "address"
        },
        {
          "internalType": "address payable",
          "name": "etherspotAccount",
          "type": "address"
        },
        {
          "internalType": "uint256",
          "name": "value",
          "type": "uint256"
        },
        {
          "internalType": "bytes32",
          "name": "ensNode",
          "type": "bytes32"
        },
        {
          "internalType": "bytes",
          "name": "archanovaAccountDeviceSignature",
          "type": "bytes"
        }
      ],
      "name": "transferBalanceAndENSNode",
      "outputs": [],
      "stateMutability": "nonpayable",
      "type": "function"
    },
    {
      "inputs": [
        {
          "internalType": "address payable",
          "name": "archanovaAccount",
          "type": "address"
        },
        {
          "internalType": "address payable",
          "name": "etherspotAccount",
          "type": "address"
        },
        {
          "internalType": "uint256",
          "name": "value",
          "type": "uint256"
        },
        {
          "internalType": "address[]",
          "name": "erc20Tokens",
          "type": "address[]"
        },
        {
          "internalType": "uint256[]",
          "name": "erc20TokensAmounts",
          "type": "uint256[]"
        },
        {
          "internalType": "bytes",
          "name": "archanovaAccountDeviceSignature",
          "type": "bytes"
        }
      ],
      "name": "transferBalanceAndERC20Tokens",
      "outputs": [],
      "stateMutability": "nonpayable",
      "type": "function"
    },
    {
      "inputs": [
        {
          "internalType": "address payable",
          "name": "archanovaAccount",
          "type": "address"
        },
        {
          "internalType": "address payable",
          "name": "etherspotAccount",
          "type": "address"
        },
        {
          "internalType": "uint256",
          "name": "value",
          "type": "uint256"
        },
        {
          "internalType": "address[]",
          "name": "erc20Tokens",
          "type": "address[]"
        },
        {
          "internalType": "uint256[]",
          "name": "erc20TokensAmounts",
          "type": "uint256[]"
        },
        {
          "internalType": "bytes32",
          "name": "ensNode",
          "type": "bytes32"
        },
        {
          "internalType": "bytes",
          "name": "archanovaAccountDeviceSignature",
          "type": "bytes"
        }
      ],
      "name": "transferBalanceAndERC20TokensAndENSNode",
      "outputs": [],
      "stateMutability": "nonpayable",
      "type": "function"
    },
    {
      "inputs": [
        {
          "internalType": "address payable",
          "name": "archanovaAccount",
          "type": "address"
        },
        {
          "internalType": "address payable",
          "name": "etherspotAccount",
          "type": "address"
        },
        {
          "internalType": "uint256",
          "name": "value",
          "type": "uint256"
        },
        {
          "internalType": "address[]",
          "name": "erc20Tokens",
          "type": "address[]"
        },
        {
          "internalType": "uint256[]",
          "name": "erc20TokensAmounts",
          "type": "uint256[]"
        },
        {
          "internalType": "address[]",
          "name": "erc721Tokens",
          "type": "address[]"
        },
        {
          "internalType": "uint256[]",
          "name": "erc721TokensIds",
          "type": "uint256[]"
        },
        {
          "internalType": "bool[]",
          "name": "erc721UseTransferSelectors",
          "type": "bool[]"
        },
        {
          "internalType": "bytes",
          "name": "archanovaAccountDeviceSignature",
          "type": "bytes"
        }
      ],
      "name": "transferBalanceAndERC20TokensAndERC721Tokens",
      "outputs": [],
      "stateMutability": "nonpayable",
      "type": "function"
    },
    {
      "inputs": [
        {
          "internalType": "address payable",
          "name": "archanovaAccount",
          "type": "address"
        },
        {
          "internalType": "address payable",
          "name": "etherspotAccount",
          "type": "address"
        },
        {
          "internalType": "uint256",
          "name": "value",
          "type": "uint256"
        },
        {
          "internalType": "address[]",
          "name": "erc20Tokens",
          "type": "address[]"
        },
        {
          "internalType": "uint256[]",
          "name": "erc20TokensAmounts",
          "type": "uint256[]"
        },
        {
          "internalType": "address[]",
          "name": "erc721Tokens",
          "type": "address[]"
        },
        {
          "internalType": "uint256[]",
          "name": "erc721TokensIds",
          "type": "uint256[]"
        },
        {
          "internalType": "bool[]",
          "name": "erc721UseTransferSelectors",
          "type": "bool[]"
        },
        {
          "internalType": "bytes32",
          "name": "ensNode",
          "type": "bytes32"
        },
        {
          "internalType": "bytes",
          "name": "archanovaAccountDeviceSignature",
          "type": "bytes"
        }
      ],
      "name": "transferBalanceAndERC20TokensAndERC721TokensAndENSNode",
      "outputs": [],
      "stateMutability": "nonpayable",
      "type": "function"
    },
    {
      "inputs": [
        {
          "internalType": "address payable",
          "name": "archanovaAccount",
          "type": "address"
        },
        {
          "internalType": "address payable",
          "name": "etherspotAccount",
          "type": "address"
        },
        {
          "internalType": "uint256",
          "name": "value",
          "type": "uint256"
        },
        {
          "internalType": "address[]",
          "name": "erc721Tokens",
          "type": "address[]"
        },
        {
          "internalType": "uint256[]",
          "name": "erc721TokensIds",
          "type": "uint256[]"
        },
        {
          "internalType": "bool[]",
          "name": "erc721UseTransferSelectors",
          "type": "bool[]"
        },
        {
          "internalType": "bytes",
          "name": "archanovaAccountDeviceSignature",
          "type": "bytes"
        }
      ],
      "name": "transferBalanceAndERC721Tokens",
      "outputs": [],
      "stateMutability": "nonpayable",
      "type": "function"
    },
    {
      "inputs": [
        {
          "internalType": "address payable",
          "name": "archanovaAccount",
          "type": "address"
        },
        {
          "internalType": "address payable",
          "name": "etherspotAccount",
          "type": "address"
        },
        {
          "internalType": "uint256",
          "name": "value",
          "type": "uint256"
        },
        {
          "internalType": "address[]",
          "name": "erc721Tokens",
          "type": "address[]"
        },
        {
          "internalType": "uint256[]",
          "name": "erc721TokensIds",
          "type": "uint256[]"
        },
        {
          "internalType": "bool[]",
          "name": "erc721UseTransferSelectors",
          "type": "bool[]"
        },
        {
          "internalType": "bytes32",
          "name": "ensNode",
          "type": "bytes32"
        },
        {
          "internalType": "bytes",
          "name": "archanovaAccountDeviceSignature",
          "type": "bytes"
        }
      ],
      "name": "transferBalanceAndERC721TokensAndENSNode",
      "outputs": [],
      "stateMutability": "nonpayable",
      "type": "function"
    },
    {
      "inputs": [
        {
          "internalType": "address payable",
          "name": "archanovaAccount",
          "type": "address"
        },
        {
          "internalType": "address payable",
          "name": "etherspotAccount",
          "type": "address"
        },
        {
          "internalType": "bytes32",
          "name": "ensNode",
          "type": "bytes32"
        },
        {
          "internalType": "bytes",
          "name": "archanovaAccountDeviceSignature",
          "type": "bytes"
        }
      ],
      "name": "transferENSNode",
      "outputs": [],
      "stateMutability": "nonpayable",
      "type": "function"
    },
    {
      "inputs": [
        {
          "internalType": "address payable",
          "name": "archanovaAccount",
          "type": "address"
        },
        {
          "internalType": "address payable",
          "name": "etherspotAccount",
          "type": "address"
        },
        {
          "internalType": "address[]",
          "name": "erc20Tokens",
          "type": "address[]"
        },
        {
          "internalType": "uint256[]",
          "name": "erc20TokensAmounts",
          "type": "uint256[]"
        },
        {
          "internalType": "bytes",
          "name": "archanovaAccountDeviceSignature",
          "type": "bytes"
        }
      ],
      "name": "transferERC20Tokens",
      "outputs": [],
      "stateMutability": "nonpayable",
      "type": "function"
    },
    {
      "inputs": [
        {
          "internalType": "address payable",
          "name": "archanovaAccount",
          "type": "address"
        },
        {
          "internalType": "address payable",
          "name": "etherspotAccount",
          "type": "address"
        },
        {
          "internalType": "address[]",
          "name": "erc20Tokens",
          "type": "address[]"
        },
        {
          "internalType": "uint256[]",
          "name": "erc20TokensAmounts",
          "type": "uint256[]"
        },
        {
          "internalType": "bytes32",
          "name": "ensNode",
          "type": "bytes32"
        },
        {
          "internalType": "bytes",
          "name": "archanovaAccountDeviceSignature",
          "type": "bytes"
        }
      ],
      "name": "transferERC20TokensAndENSNode",
      "outputs": [],
      "stateMutability": "nonpayable",
      "type": "function"
    },
    {
      "inputs": [
        {
          "internalType": "address payable",
          "name": "archanovaAccount",
          "type": "address"
        },
        {
          "internalType": "address payable",
          "name": "etherspotAccount",
          "type": "address"
        },
        {
          "internalType": "address[]",
          "name": "erc20Tokens",
          "type": "address[]"
        },
        {
          "internalType": "uint256[]",
          "name": "erc20TokensAmounts",
          "type": "uint256[]"
        },
        {
          "internalType": "address[]",
          "name": "erc721Tokens",
          "type": "address[]"
        },
        {
          "internalType": "uint256[]",
          "name": "erc721TokensIds",
          "type": "uint256[]"
        },
        {
          "internalType": "bool[]",
          "name": "erc721UseTransferSelectors",
          "type": "bool[]"
        },
        {
          "internalType": "bytes",
          "name": "archanovaAccountDeviceSignature",
          "type": "bytes"
        }
      ],
      "name": "transferERC20TokensAndERC721Tokens",
      "outputs": [],
      "stateMutability": "nonpayable",
      "type": "function"
    },
    {
      "inputs": [
        {
          "internalType": "address payable",
          "name": "archanovaAccount",
          "type": "address"
        },
        {
          "internalType": "address payable",
          "name": "etherspotAccount",
          "type": "address"
        },
        {
          "internalType": "address[]",
          "name": "erc20Tokens",
          "type": "address[]"
        },
        {
          "internalType": "uint256[]",
          "name": "erc20TokensAmounts",
          "type": "uint256[]"
        },
        {
          "internalType": "address[]",
          "name": "erc721Tokens",
          "type": "address[]"
        },
        {
          "internalType": "uint256[]",
          "name": "erc721TokensIds",
          "type": "uint256[]"
        },
        {
          "internalType": "bool[]",
          "name": "erc721UseTransferSelectors",
          "type": "bool[]"
        },
        {
          "internalType": "bytes32",
          "name": "ensNode",
          "type": "bytes32"
        },
        {
          "internalType": "bytes",
          "name": "archanovaAccountDeviceSignature",
          "type": "bytes"
        }
      ],
      "name": "transferERC20TokensAndERC721TokensAndENSNode",
      "outputs": [],
      "stateMutability": "nonpayable",
      "type": "function"
    },
    {
      "inputs": [
        {
          "internalType": "address payable",
          "name": "archanovaAccount",
          "type": "address"
        },
        {
          "internalType": "address payable",
          "name": "etherspotAccount",
          "type": "address"
        },
        {
          "internalType": "address[]",
          "name": "erc721Tokens",
          "type": "address[]"
        },
        {
          "internalType": "uint256[]",
          "name": "erc721TokensIds",
          "type": "uint256[]"
        },
        {
          "internalType": "bool[]",
          "name": "erc721UseTransferSelectors",
          "type": "bool[]"
        },
        {
          "internalType": "bytes",
          "name": "archanovaAccountDeviceSignature",
          "type": "bytes"
        }
      ],
      "name": "transferERC721Tokens",
      "outputs": [],
      "stateMutability": "nonpayable",
      "type": "function"
    },
    {
      "inputs": [
        {
          "internalType": "address payable",
          "name": "archanovaAccount",
          "type": "address"
        },
        {
          "internalType": "address payable",
          "name": "etherspotAccount",
          "type": "address"
        },
        {
          "internalType": "address[]",
          "name": "erc721Tokens",
          "type": "address[]"
        },
        {
          "internalType": "uint256[]",
          "name": "erc721TokensIds",
          "type": "uint256[]"
        },
        {
          "internalType": "bool[]",
          "name": "erc721UseTransferSelectors",
          "type": "bool[]"
        },
        {
          "internalType": "bytes32",
          "name": "ensNode",
          "type": "bytes32"
        },
        {
          "internalType": "bytes",
          "name": "archanovaAccountDeviceSignature",
          "type": "bytes"
        }
      ],
      "name": "transferERC721TokensAndENSNode",
      "outputs": [],
      "stateMutability": "nonpayable",
      "type": "function"
    }
  ],
  "transactionHash": "0x47803ccf37e8047cff15160e83bd0509f402d0a58f12638c666e73755d947b78",
  "args": [],
  "solcInputHash": "fffb343de6caccdb217520168edc88ea",
  "bytecode": "0x608060405234801561001057600080fd5b50326000806101000a81548173ffffffffffffffffffffffffffffffffffffffff021916908373ffffffffffffffffffffffffffffffffffffffff160217905550600046905080600381905550506148ca8061006d6000396000f3fe608060405234801561001057600080fd5b50600436106101215760003560e01c8063653ed822116100ad5780639ad1bf79116100715780639ad1bf79146112f5578063bed5fada146115ab578063c7e7cea114611678578063e7cdc5d91461173b578063f85bf836146118a857610121565b8063653ed82214610e915780636d03b0b9146110085780637d73b2311461103c5780638e2e1ce01461107057806397b583b71461123257610121565b806340c38bb6116100f457806340c38bb6146106d9578063485cc955146108465780634955a158146108aa57806353d7c7ce14610b175780635c60398814610cd957610121565b80631766a548146101265780632984005c1461038957806332a955d8146104ec578063392e53cd146106b9575b600080fd5b610387600480360361010081101561013d57600080fd5b81019080803573ffffffffffffffffffffffffffffffffffffffff169060200190929190803573ffffffffffffffffffffffffffffffffffffffff1690602001909291908035906020019064010000000081111561019a57600080fd5b8201836020820111156101ac57600080fd5b803590602001918460208302840111640100000000831117156101ce57600080fd5b9091929391929390803590602001906401000000008111156101ef57600080fd5b82018360208201111561020157600080fd5b8035906020019184602083028401116401000000008311171561022357600080fd5b90919293919293908035906020019064010000000081111561024457600080fd5b82018360208201111561025657600080fd5b8035906020019184602083028401116401000000008311171561027857600080fd5b90919293919293908035906020019064010000000081111561029957600080fd5b8201836020820111156102ab57600080fd5b803590602001918460208302840111640100000000831117156102cd57600080fd5b9091929391929390803590602001906401000000008111156102ee57600080fd5b82018360208201111561030057600080fd5b8035906020019184602083028401116401000000008311171561032257600080fd5b90919293919293908035906020019064010000000081111561034357600080fd5b82018360208201111561035557600080fd5b8035906020019184600183028401116401000000008311171561037757600080fd5b9091929391929390505050611b15565b005b6104ea600480360360a081101561039f57600080fd5b81019080803573ffffffffffffffffffffffffffffffffffffffff169060200190929190803573ffffffffffffffffffffffffffffffffffffffff169060200190929190803590602001906401000000008111156103fc57600080fd5b82018360208201111561040e57600080fd5b8035906020019184602083028401116401000000008311171561043057600080fd5b90919293919293908035906020019064010000000081111561045157600080fd5b82018360208201111561046357600080fd5b8035906020019184602083028401116401000000008311171561048557600080fd5b9091929391929390803590602001906401000000008111156104a657600080fd5b8201836020820111156104b857600080fd5b803590602001918460018302840111640100000000831117156104da57600080fd5b9091929391929390505050611cd2565b005b6106b7600480360361010081101561050357600080fd5b81019080803573ffffffffffffffffffffffffffffffffffffffff169060200190929190803573ffffffffffffffffffffffffffffffffffffffff169060200190929190803590602001909291908035906020019064010000000081111561056a57600080fd5b82018360208201111561057c57600080fd5b8035906020019184602083028401116401000000008311171561059e57600080fd5b9091929391929390803590602001906401000000008111156105bf57600080fd5b8201836020820111156105d157600080fd5b803590602001918460208302840111640100000000831117156105f357600080fd5b90919293919293908035906020019064010000000081111561061457600080fd5b82018360208201111561062657600080fd5b8035906020019184602083028401116401000000008311171561064857600080fd5b9091929391929390803590602001909291908035906020019064010000000081111561067357600080fd5b82018360208201111561068557600080fd5b803590602001918460018302840111640100000000831117156106a757600080fd5b9091929391929390505050611db9565b005b6106c1611efc565b60405180821515815260200191505060405180910390f35b610844600480360360c08110156106ef57600080fd5b81019080803573ffffffffffffffffffffffffffffffffffffffff169060200190929190803573ffffffffffffffffffffffffffffffffffffffff169060200190929190803590602001909291908035906020019064010000000081111561075657600080fd5b82018360208201111561076857600080fd5b8035906020019184602083028401116401000000008311171561078a57600080fd5b9091929391929390803590602001906401000000008111156107ab57600080fd5b8201836020820111156107bd57600080fd5b803590602001918460208302840111640100000000831117156107df57600080fd5b90919293919293908035906020019064010000000081111561080057600080fd5b82018360208201111561081257600080fd5b8035906020019184600183028401116401000000008311171561083457600080fd5b9091929391929390505050611f52565b005b6108a86004803603604081101561085c57600080fd5b81019080803573ffffffffffffffffffffffffffffffffffffffff169060200190929190803573ffffffffffffffffffffffffffffffffffffffff169060200190929190505050612045565b005b610b1560048036036101208110156108c157600080fd5b81019080803573ffffffffffffffffffffffffffffffffffffffff169060200190929190803573ffffffffffffffffffffffffffffffffffffffff1690602001909291908035906020019064010000000081111561091e57600080fd5b82018360208201111561093057600080fd5b8035906020019184602083028401116401000000008311171561095257600080fd5b90919293919293908035906020019064010000000081111561097357600080fd5b82018360208201111561098557600080fd5b803590602001918460208302840111640100000000831117156109a757600080fd5b9091929391929390803590602001906401000000008111156109c857600080fd5b8201836020820111156109da57600080fd5b803590602001918460208302840111640100000000831117156109fc57600080fd5b909192939192939080359060200190640100000000811115610a1d57600080fd5b820183602082011115610a2f57600080fd5b80359060200191846020830284011164010000000083111715610a5157600080fd5b909192939192939080359060200190640100000000811115610a7257600080fd5b820183602082011115610a8457600080fd5b80359060200191846020830284011164010000000083111715610aa657600080fd5b90919293919293908035906020019092919080359060200190640100000000811115610ad157600080fd5b820183602082011115610ae357600080fd5b80359060200191846001830284011164010000000083111715610b0557600080fd5b90919293919293905050506121fd565b005b610cd7600480360360e0811015610b2d57600080fd5b81019080803573ffffffffffffffffffffffffffffffffffffffff169060200190929190803573ffffffffffffffffffffffffffffffffffffffff1690602001909291908035906020019092919080359060200190640100000000811115610b9457600080fd5b820183602082011115610ba657600080fd5b80359060200191846020830284011164010000000083111715610bc857600080fd5b909192939192939080359060200190640100000000811115610be957600080fd5b820183602082011115610bfb57600080fd5b80359060200191846020830284011164010000000083111715610c1d57600080fd5b909192939192939080359060200190640100000000811115610c3e57600080fd5b820183602082011115610c5057600080fd5b80359060200191846020830284011164010000000083111715610c7257600080fd5b909192939192939080359060200190640100000000811115610c9357600080fd5b820183602082011115610ca557600080fd5b80359060200191846001830284011164010000000083111715610cc757600080fd5b90919293919293905050506123c6565b005b610e8f600480360360c0811015610cef57600080fd5b81019080803573ffffffffffffffffffffffffffffffffffffffff169060200190929190803573ffffffffffffffffffffffffffffffffffffffff16906020019092919080359060200190640100000000811115610d4c57600080fd5b820183602082011115610d5e57600080fd5b80359060200191846020830284011164010000000083111715610d8057600080fd5b909192939192939080359060200190640100000000811115610da157600080fd5b820183602082011115610db357600080fd5b80359060200191846020830284011164010000000083111715610dd557600080fd5b909192939192939080359060200190640100000000811115610df657600080fd5b820183602082011115610e0857600080fd5b80359060200191846020830284011164010000000083111715610e2a57600080fd5b909192939192939080359060200190640100000000811115610e4b57600080fd5b820183602082011115610e5d57600080fd5b80359060200191846001830284011164010000000083111715610e7f57600080fd5b90919293919293905050506124fd565b005b611006600480360360e0811015610ea757600080fd5b81019080803573ffffffffffffffffffffffffffffffffffffffff169060200190929190803573ffffffffffffffffffffffffffffffffffffffff1690602001909291908035906020019092919080359060200190640100000000811115610f0e57600080fd5b820183602082011115610f2057600080fd5b80359060200191846020830284011164010000000083111715610f4257600080fd5b909192939192939080359060200190640100000000811115610f6357600080fd5b820183602082011115610f7557600080fd5b80359060200191846020830284011164010000000083111715610f9757600080fd5b90919293919293908035906020019092919080359060200190640100000000811115610fc257600080fd5b820183602082011115610fd457600080fd5b80359060200191846001830284011164010000000083111715610ff657600080fd5b9091929391929390505050612628565b005b611010612727565b604051808273ffffffffffffffffffffffffffffffffffffffff16815260200191505060405180910390f35b61104461274d565b604051808273ffffffffffffffffffffffffffffffffffffffff16815260200191505060405180910390f35b611230600480360360e081101561108657600080fd5b81019080803573ffffffffffffffffffffffffffffffffffffffff169060200190929190803573ffffffffffffffffffffffffffffffffffffffff169060200190929190803590602001906401000000008111156110e357600080fd5b8201836020820111156110f557600080fd5b8035906020019184602083028401116401000000008311171561111757600080fd5b90919293919293908035906020019064010000000081111561113857600080fd5b82018360208201111561114a57600080fd5b8035906020019184602083028401116401000000008311171561116c57600080fd5b90919293919293908035906020019064010000000081111561118d57600080fd5b82018360208201111561119f57600080fd5b803590602001918460208302840111640100000000831117156111c157600080fd5b909192939192939080359060200190929190803590602001906401000000008111156111ec57600080fd5b8201836020820111156111fe57600080fd5b8035906020019184600183028401116401000000008311171561122057600080fd5b9091929391929390505050612773565b005b6112f36004803603608081101561124857600080fd5b81019080803573ffffffffffffffffffffffffffffffffffffffff169060200190929190803573ffffffffffffffffffffffffffffffffffffffff16906020019092919080359060200190929190803590602001906401000000008111156112af57600080fd5b8201836020820111156112c157600080fd5b803590602001918460018302840111640100000000831117156112e357600080fd5b90919293919293905050506128aa565b005b6115a9600480360361014081101561130c57600080fd5b81019080803573ffffffffffffffffffffffffffffffffffffffff169060200190929190803573ffffffffffffffffffffffffffffffffffffffff169060200190929190803590602001909291908035906020019064010000000081111561137357600080fd5b82018360208201111561138557600080fd5b803590602001918460208302840111640100000000831117156113a757600080fd5b9091929391929390803590602001906401000000008111156113c857600080fd5b8201836020820111156113da57600080fd5b803590602001918460208302840111640100000000831117156113fc57600080fd5b90919293919293908035906020019064010000000081111561141d57600080fd5b82018360208201111561142f57600080fd5b8035906020019184602083028401116401000000008311171561145157600080fd5b90919293919293908035906020019064010000000081111561147257600080fd5b82018360208201111561148457600080fd5b803590602001918460208302840111640100000000831117156114a657600080fd5b9091929391929390803590602001906401000000008111156114c757600080fd5b8201836020820111156114d957600080fd5b803590602001918460208302840111640100000000831117156114fb57600080fd5b919080806020026020016040519081016040528093929190818152602001838360200280828437600081840152601f19601f820116905080830192505050505050509192919290803590602001909291908035906020019064010000000081111561156557600080fd5b82018360208201111561157757600080fd5b8035906020019184600183028401116401000000008311171561159957600080fd5b909192939192939050505061290b565b005b611676600480360360a08110156115c157600080fd5b81019080803573ffffffffffffffffffffffffffffffffffffffff169060200190929190803573ffffffffffffffffffffffffffffffffffffffff16906020019092919080359060200190929190803590602001909291908035906020019064010000000081111561163257600080fd5b82018360208201111561164457600080fd5b8035906020019184600183028401116401000000008311171561166657600080fd5b9091929391929390505050612a9e565b005b6117396004803603608081101561168e57600080fd5b81019080803573ffffffffffffffffffffffffffffffffffffffff169060200190929190803573ffffffffffffffffffffffffffffffffffffffff16906020019092919080359060200190929190803590602001906401000000008111156116f557600080fd5b82018360208201111561170757600080fd5b8035906020019184600183028401116401000000008311171561172957600080fd5b9091929391929390505050612b0b565b005b6118a6600480360360c081101561175157600080fd5b81019080803573ffffffffffffffffffffffffffffffffffffffff169060200190929190803573ffffffffffffffffffffffffffffffffffffffff169060200190929190803590602001906401000000008111156117ae57600080fd5b8201836020820111156117c057600080fd5b803590602001918460208302840111640100000000831117156117e257600080fd5b90919293919293908035906020019064010000000081111561180357600080fd5b82018360208201111561181557600080fd5b8035906020019184602083028401116401000000008311171561183757600080fd5b9091929391929390803590602001909291908035906020019064010000000081111561186257600080fd5b82018360208201111561187457600080fd5b8035906020019184600183028401116401000000008311171561189657600080fd5b9091929391929390505050612b6c565b005b611b1360048036036101208110156118bf57600080fd5b81019080803573ffffffffffffffffffffffffffffffffffffffff169060200190929190803573ffffffffffffffffffffffffffffffffffffffff169060200190929190803590602001909291908035906020019064010000000081111561192657600080fd5b82018360208201111561193857600080fd5b8035906020019184602083028401116401000000008311171561195a57600080fd5b90919293919293908035906020019064010000000081111561197b57600080fd5b82018360208201111561198d57600080fd5b803590602001918460208302840111640100000000831117156119af57600080fd5b9091929391929390803590602001906401000000008111156119d057600080fd5b8201836020820111156119e257600080fd5b80359060200191846020830284011164010000000083111715611a0457600080fd5b909192939192939080359060200190640100000000811115611a2557600080fd5b820183602082011115611a3757600080fd5b80359060200191846020830284011164010000000083111715611a5957600080fd5b909192939192939080359060200190640100000000811115611a7a57600080fd5b820183602082011115611a8c57600080fd5b80359060200191846020830284011164010000000083111715611aae57600080fd5b909192939192939080359060200190640100000000811115611acf57600080fd5b820183602082011115611ae157600080fd5b80359060200191846001830284011164010000000083111715611b0357600080fd5b9091929391929390505050612c5f565b005b611b648e8e84848080601f016020809104026020016040519081016040528093929190818152602001838380828437600081840152601f19601f82011690508083019250505050505050612e28565b611bf28e8e8e8e80806020026020016040519081016040528093929190818152602001838360200280828437600081840152601f19601f820116905080830192505050505050508d8d80806020026020016040519081016040528093929190818152602001838360200280828437600081840152601f19601f8201169050808301925050505050505061308b565b611cc28e8e8a8a80806020026020016040519081016040528093929190818152602001838360200280828437600081840152601f19601f82011690508083019250505050505050898980806020026020016040519081016040528093929190818152602001838360200280828437600081840152601f19601f82011690508083019250505050505050888880806020026020016040519081016040528093929190818152602001838360200280828437600081840152601f19601f820116905080830192505050505050506130e3565b5050505050505050505050505050565b611d21888884848080601f016020809104026020016040519081016040528093929190818152602001838380828437600081840152601f19601f82011690508083019250505050505050612e28565b611daf8888888880806020026020016040519081016040528093929190818152602001838360200280828437600081840152601f19601f82011690508083019250505050505050878780806020026020016040519081016040528093929190818152602001838360200280828437600081840152601f19601f8201169050808301925050505050505061308b565b5050505050505050565b611e088c8c84848080601f016020809104026020016040519081016040528093929190818152602001838380828437600081840152601f19601f82011690508083019250505050505050612e28565b611e138c8c8c613150565b611ee38c8c8b8b80806020026020016040519081016040528093929190818152602001838360200280828437600081840152601f19601f820116905080830192505050505050508a8a80806020026020016040519081016040528093929190818152602001838360200280828437600081840152601f19601f82011690508083019250505050505050898980806020026020016040519081016040528093929190818152602001838360200280828437600081840152601f19601f820116905080830192505050505050506130e3565b611eee8c8c856133eb565b505050505050505050505050565b60008073ffffffffffffffffffffffffffffffffffffffff1660008054906101000a900473ffffffffffffffffffffffffffffffffffffffff1673ffffffffffffffffffffffffffffffffffffffff1614905090565b611fa1898984848080601f016020809104026020016040519081016040528093929190818152602001838380828437600081840152601f19601f82011690508083019250505050505050612e28565b611fac898989613150565b61203a8989888880806020026020016040519081016040528093929190818152602001838360200280828437600081840152601f19601f82011690508083019250505050505050878780806020026020016040519081016040528093929190818152602001838360200280828437600081840152601f19601f8201169050808301925050505050505061308b565b505050505050505050565b60008054906101000a900473ffffffffffffffffffffffffffffffffffffffff1673ffffffffffffffffffffffffffffffffffffffff163273ffffffffffffffffffffffffffffffffffffffff16146120e9576040517f08c379a000000000000000000000000000000000000000000000000000000000815260040180806020018281038252602f815260200180614822602f913960400191505060405180910390fd5b60008060006101000a81548173ffffffffffffffffffffffffffffffffffffffff021916908373ffffffffffffffffffffffffffffffffffffffff16021790555081600160006101000a81548173ffffffffffffffffffffffffffffffffffffffff021916908373ffffffffffffffffffffffffffffffffffffffff16021790555080600260006101000a81548173ffffffffffffffffffffffffffffffffffffffff021916908373ffffffffffffffffffffffffffffffffffffffff1602179055507f908408e307fc569b417f6cbec5d5a06f44a0a505ac0479b47d421a4b2fd6a1e632604051808273ffffffffffffffffffffffffffffffffffffffff16815260200191505060405180910390a15050565b61224c8f8f84848080601f016020809104026020016040519081016040528093929190818152602001838380828437600081840152601f19601f82011690508083019250505050505050612e28565b6122da8f8f8f8f80806020026020016040519081016040528093929190818152602001838360200280828437600081840152601f19601f820116905080830192505050505050508e8e80806020026020016040519081016040528093929190818152602001838360200280828437600081840152601f19601f8201169050808301925050505050505061308b565b6123aa8f8f8b8b80806020026020016040519081016040528093929190818152602001838360200280828437600081840152601f19601f820116905080830192505050505050508a8a80806020026020016040519081016040528093929190818152602001838360200280828437600081840152601f19601f82011690508083019250505050505050898980806020026020016040519081016040528093929190818152602001838360200280828437600081840152601f19601f820116905080830192505050505050506130e3565b6123b58f8f856133eb565b505050505050505050505050505050565b6124158b8b84848080601f016020809104026020016040519081016040528093929190818152602001838380828437600081840152601f19601f82011690508083019250505050505050612e28565b6124208b8b8b613150565b6124f08b8b8a8a80806020026020016040519081016040528093929190818152602001838360200280828437600081840152601f19601f82011690508083019250505050505050898980806020026020016040519081016040528093929190818152602001838360200280828437600081840152601f19601f82011690508083019250505050505050888880806020026020016040519081016040528093929190818152602001838360200280828437600081840152601f19601f820116905080830192505050505050506130e3565b5050505050505050505050565b61254c8a8a84848080601f016020809104026020016040519081016040528093929190818152602001838380828437600081840152601f19601f82011690508083019250505050505050612e28565b61261c8a8a8a8a80806020026020016040519081016040528093929190818152602001838360200280828437600081840152601f19601f82011690508083019250505050505050898980806020026020016040519081016040528093929190818152602001838360200280828437600081840152601f19601f82011690508083019250505050505050888880806020026020016040519081016040528093929190818152602001838360200280828437600081840152601f19601f820116905080830192505050505050506130e3565b50505050505050505050565b6126778a8a84848080601f016020809104026020016040519081016040528093929190818152602001838380828437600081840152601f19601f82011690508083019250505050505050612e28565b6126828a8a8a613150565b6127108a8a898980806020026020016040519081016040528093929190818152602001838360200280828437600081840152601f19601f82011690508083019250505050505050888880806020026020016040519081016040528093929190818152602001838360200280828437600081840152601f19601f8201169050808301925050505050505061308b565b61271b8a8a856133eb565b50505050505050505050565b600160009054906101000a900473ffffffffffffffffffffffffffffffffffffffff1681565b600260009054906101000a900473ffffffffffffffffffffffffffffffffffffffff1681565b6127c28b8b84848080601f016020809104026020016040519081016040528093929190818152602001838380828437600081840152601f19601f82011690508083019250505050505050612e28565b6128928b8b8b8b80806020026020016040519081016040528093929190818152602001838360200280828437600081840152601f19601f820116905080830192505050505050508a8a80806020026020016040519081016040528093929190818152602001838360200280828437600081840152601f19601f82011690508083019250505050505050898980806020026020016040519081016040528093929190818152602001838360200280828437600081840152601f19601f820116905080830192505050505050506130e3565b61289d8b8b856133eb565b5050505050505050505050565b6128f9858584848080601f016020809104026020016040519081016040528093929190818152602001838380828437600081840152601f19601f82011690508083019250505050505050612e28565b612904858585613150565b5050505050565b61295a8f8f84848080601f016020809104026020016040519081016040528093929190818152602001838380828437600081840152601f19601f82011690508083019250505050505050612e28565b6129658f8f8f613150565b6129f38f8f8e8e80806020026020016040519081016040528093929190818152602001838360200280828437600081840152601f19601f820116905080830192505050505050508d8d80806020026020016040519081016040528093929190818152602001838360200280828437600081840152601f19601f8201169050808301925050505050505061308b565b612a828f8f8a8a80806020026020016040519081016040528093929190818152602001838360200280828437600081840152601f19601f82011690508083019250505050505050898980806020026020016040519081016040528093929190818152602001838360200280828437600081840152601f19601f82011690508083019250505050505050886130e3565b612a8d8f8f856133eb565b505050505050505050505050505050565b612aed868684848080601f016020809104026020016040519081016040528093929190818152602001838380828437600081840152601f19601f82011690508083019250505050505050612e28565b612af8868686613150565b612b038686856133eb565b505050505050565b612b5a858584848080601f016020809104026020016040519081016040528093929190818152602001838380828437600081840152601f19601f82011690508083019250505050505050612e28565b612b658585856133eb565b5050505050565b612bbb898984848080601f016020809104026020016040519081016040528093929190818152602001838380828437600081840152601f19601f82011690508083019250505050505050612e28565b612c498989898980806020026020016040519081016040528093929190818152602001838360200280828437600081840152601f19601f82011690508083019250505050505050888880806020026020016040519081016040528093929190818152602001838360200280828437600081840152601f19601f8201169050808301925050505050505061308b565b612c548989856133eb565b505050505050505050565b612cae8f8f84848080601f016020809104026020016040519081016040528093929190818152602001838380828437600081840152601f19601f82011690508083019250505050505050612e28565b612cb98f8f8f613150565b612d478f8f8e8e80806020026020016040519081016040528093929190818152602001838360200280828437600081840152601f19601f820116905080830192505050505050508d8d80806020026020016040519081016040528093929190818152602001838360200280828437600081840152601f19601f8201169050808301925050505050505061308b565b612e178f8f8a8a80806020026020016040519081016040528093929190818152602001838360200280828437600081840152601f19601f82011690508083019250505050505050898980806020026020016040519081016040528093929190818152602001838360200280828437600081840152601f19601f82011690508083019250505050505050888880806020026020016040519081016040528093929190818152602001838360200280828437600081840152601f19601f820116905080830192505050505050506130e3565b505050505050505050505050505050565b6000612f64826003543060405160200180807f657468657273706f74203c3e2061726368616e6f7661206d6967726174696f6e8152506020019050604051602081830303815290604052805190602001208888604051602001808681526020018573ffffffffffffffffffffffffffffffffffffffff1660601b81526014018481526020018373ffffffffffffffffffffffffffffffffffffffff1660601b81526014018273ffffffffffffffffffffffffffffffffffffffff1660601b8152601401955050505050506040516020818303038152906040528051906020012060405160200180807f19457468657265756d205369676e6564204d6573736167653a0a333200000000815250601c0182815260200191505060405160208183030381529060405280519060200120613f9b90919063ffffffff16565b90506000808573ffffffffffffffffffffffffffffffffffffffff1663e7b4cac6846040518263ffffffff1660e01b8152600401808273ffffffffffffffffffffffffffffffffffffffff16815260200191505060606040518083038186803b158015612fd057600080fd5b505afa158015612fe4573d6000803e3d6000fd5b505050506040513d6060811015612ffa57600080fd5b81019080805190602001909291908051906020019092919080519060200190929190505050509150915081801561302e5750805b613083576040517f08c379a000000000000000000000000000000000000000000000000000000000815260040180806020018281038252603d815260200180614881603d913960400191505060405180910390fd5b505050505050565b60008251905060005b818110156130db576130ce86868684815181106130ad57fe5b60200260200101518685815181106130c157fe5b602002602001015161406b565b8080600101915050613094565b505050505050565b60008351905060005b818110156131475761313a878787848151811061310557fe5b602002602001015187858151811061311957fe5b602002602001015187868151811061312d57fe5b60200260200101516143ac565b80806001019150506130ec565b50505050505050565b8273ffffffffffffffffffffffffffffffffffffffff16633f579f428383600067ffffffffffffffff8111801561318657600080fd5b506040519080825280601f01601f1916602001820160405280156131b95781602001600182028036833780820191505090505b506040518463ffffffff1660e01b8152600401808473ffffffffffffffffffffffffffffffffffffffff16815260200183815260200180602001828103825283818151815260200191508051906020019080838360005b8381101561322b578082015181840152602081019050613210565b50505050905090810190601f1680156132585780820380516001836020036101000a031916815260200191505b50945050505050600060405180830381600087803b15801561327957600080fd5b505af115801561328d573d6000803e3d6000fd5b505050506040513d6000823e3d601f19601f8201168201806040525060208110156132b757600080fd5b81019080805160405193929190846401000000008211156132d757600080fd5b838201915060208201858111156132ed57600080fd5b825186600182028301116401000000008211171561330a57600080fd5b8083526020830192505050908051906020019080838360005b8381101561333e578082015181840152602081019050613323565b50505050905090810190601f16801561336b5780820380516001836020036101000a031916815260200191505b50604052505050507f4163d0b06696468b3d7903f482bcd0097bd38a9a9086157479fd6c6561d24261838383604051808473ffffffffffffffffffffffffffffffffffffffff1681526020018373ffffffffffffffffffffffffffffffffffffffff168152602001828152602001935050505060405180910390a1505050565b8273ffffffffffffffffffffffffffffffffffffffff16633f579f42600260009054906101000a900473ffffffffffffffffffffffffffffffffffffffff16600060405160200180807f7365745265736f6c76657228627974657333322c616464726573732900000000815250601c0190506040516020818303038152906040528051906020012085600160009054906101000a900473ffffffffffffffffffffffffffffffffffffffff16604051602401808381526020018273ffffffffffffffffffffffffffffffffffffffff16815260200192505050604051602081830303815290604052907bffffffffffffffffffffffffffffffffffffffffffffffffffffffff19166020820180517bffffffffffffffffffffffffffffffffffffffffffffffffffffffff83818316178352505050506040518463ffffffff1660e01b8152600401808473ffffffffffffffffffffffffffffffffffffffff16815260200183815260200180602001828103825283818151815260200191508051906020019080838360005b83811015613592578082015181840152602081019050613577565b50505050905090810190601f1680156135bf5780820380516001836020036101000a031916815260200191505b50945050505050600060405180830381600087803b1580156135e057600080fd5b505af11580156135f4573d6000803e3d6000fd5b505050506040513d6000823e3d601f19601f82011682018060405250602081101561361e57600080fd5b810190808051604051939291908464010000000082111561363e57600080fd5b8382019150602082018581111561365457600080fd5b825186600182028301116401000000008211171561367157600080fd5b8083526020830192505050908051906020019080838360005b838110156136a557808201518184015260208101905061368a565b50505050905090810190601f1680156136d25780820380516001836020036101000a031916815260200191505b50604052505050508273ffffffffffffffffffffffffffffffffffffffff16633f579f42600160009054906101000a900473ffffffffffffffffffffffffffffffffffffffff16600060405160200180807f73796e63416464722862797465733332290000000000000000000000000000008152506011019050604051602081830303815290604052805190602001208560405160240180828152602001915050604051602081830303815290604052907bffffffffffffffffffffffffffffffffffffffffffffffffffffffff19166020820180517bffffffffffffffffffffffffffffffffffffffffffffffffffffffff83818316178352505050506040518463ffffffff1660e01b8152600401808473ffffffffffffffffffffffffffffffffffffffff16815260200183815260200180602001828103825283818151815260200191508051906020019080838360005b83811015613841578082015181840152602081019050613826565b50505050905090810190601f16801561386e5780820380516001836020036101000a031916815260200191505b50945050505050600060405180830381600087803b15801561388f57600080fd5b505af11580156138a3573d6000803e3d6000fd5b505050506040513d6000823e3d601f19601f8201168201806040525060208110156138cd57600080fd5b81019080805160405193929190846401000000008211156138ed57600080fd5b8382019150602082018581111561390357600080fd5b825186600182028301116401000000008211171561392057600080fd5b8083526020830192505050908051906020019080838360005b83811015613954578082015181840152602081019050613939565b50505050905090810190601f1680156139815780820380516001836020036101000a031916815260200191505b50604052505050508273ffffffffffffffffffffffffffffffffffffffff16633f579f42600160009054906101000a900473ffffffffffffffffffffffffffffffffffffffff16600060405160200180807f7365744164647228627974657333322c616464726573732900000000000000008152506018019050604051602081830303815290604052805190602001208587604051602401808381526020018273ffffffffffffffffffffffffffffffffffffffff16815260200192505050604051602081830303815290604052907bffffffffffffffffffffffffffffffffffffffffffffffffffffffff19166020820180517bffffffffffffffffffffffffffffffffffffffffffffffffffffffff83818316178352505050506040518463ffffffff1660e01b8152600401808473ffffffffffffffffffffffffffffffffffffffff16815260200183815260200180602001828103825283818151815260200191508051906020019080838360005b83811015613b0e578082015181840152602081019050613af3565b50505050905090810190601f168015613b3b5780820380516001836020036101000a031916815260200191505b50945050505050600060405180830381600087803b158015613b5c57600080fd5b505af1158015613b70573d6000803e3d6000fd5b505050506040513d6000823e3d601f19601f820116820180604052506020811015613b9a57600080fd5b8101908080516040519392919084640100000000821115613bba57600080fd5b83820191506020820185811115613bd057600080fd5b8251866001820283011164010000000082111715613bed57600080fd5b8083526020830192505050908051906020019080838360005b83811015613c21578082015181840152602081019050613c06565b50505050905090810190601f168015613c4e5780820380516001836020036101000a031916815260200191505b50604052505050508273ffffffffffffffffffffffffffffffffffffffff16633f579f42600260009054906101000a900473ffffffffffffffffffffffffffffffffffffffff16600060405160200180807f7365744f776e657228627974657333322c6164647265737329000000000000008152506019019050604051602081830303815290604052805190602001208587604051602401808381526020018273ffffffffffffffffffffffffffffffffffffffff16815260200192505050604051602081830303815290604052907bffffffffffffffffffffffffffffffffffffffffffffffffffffffff19166020820180517bffffffffffffffffffffffffffffffffffffffffffffffffffffffff83818316178352505050506040518463ffffffff1660e01b8152600401808473ffffffffffffffffffffffffffffffffffffffff16815260200183815260200180602001828103825283818151815260200191508051906020019080838360005b83811015613ddb578082015181840152602081019050613dc0565b50505050905090810190601f168015613e085780820380516001836020036101000a031916815260200191505b50945050505050600060405180830381600087803b158015613e2957600080fd5b505af1158015613e3d573d6000803e3d6000fd5b505050506040513d6000823e3d601f19601f820116820180604052506020811015613e6757600080fd5b8101908080516040519392919084640100000000821115613e8757600080fd5b83820191506020820185811115613e9d57600080fd5b8251866001820283011164010000000082111715613eba57600080fd5b8083526020830192505050908051906020019080838360005b83811015613eee578082015181840152602081019050613ed3565b50505050905090810190601f168015613f1b5780820380516001836020036101000a031916815260200191505b50604052505050507f31535e192ff586e8ec781c584b15737846e79c3f17ebde9d9858f8dc36d3ffd8838383604051808473ffffffffffffffffffffffffffffffffffffffff1681526020018373ffffffffffffffffffffffffffffffffffffffff168152602001828152602001935050505060405180910390a1505050565b600080600090506041835114156140615760008060006020860151925060408601519150606086015160001a9050601b8160ff161015613fdc57601b810190505b601b8160ff161480613ff15750601c8160ff16145b1561405d5760018782858560405160008152602001604052604051808581526020018460ff1681526020018381526020018281526020019450505050506020604051602081039080840390855afa158015614050573d6000803e3d6000fd5b5050506020604051035193505b5050505b8091505092915050565b606060405160200180807f7472616e7366657228616464726573732c75696e7432353629000000000000008152506019019050604051602081830303815290604052805190602001208483604051602401808373ffffffffffffffffffffffffffffffffffffffff16815260200182815260200192505050604051602081830303815290604052907bffffffffffffffffffffffffffffffffffffffffffffffffffffffff19166020820180517bffffffffffffffffffffffffffffffffffffffffffffffffffffffff8381831617835250505050905060608573ffffffffffffffffffffffffffffffffffffffff16633f579f42856000856040518463ffffffff1660e01b8152600401808473ffffffffffffffffffffffffffffffffffffffff16815260200183815260200180602001828103825283818151815260200191508051906020019080838360005b838110156141d55780820151818401526020810190506141ba565b50505050905090810190601f1680156142025780820380516001836020036101000a031916815260200191505b50945050505050600060405180830381600087803b15801561422357600080fd5b505af1158015614237573d6000803e3d6000fd5b505050506040513d6000823e3d601f19601f82011682018060405250602081101561426157600080fd5b810190808051604051939291908464010000000082111561428157600080fd5b8382019150602082018581111561429757600080fd5b82518660018202830111640100000000821117156142b457600080fd5b8083526020830192505050908051906020019080838360005b838110156142e85780820151818401526020810190506142cd565b50505050905090810190601f1680156143155780820380516001836020036101000a031916815260200191505b5060405250505090506000815111156143a45780806020019051602081101561433d57600080fd5b81019080805190602001909291905050506143a3576040517f08c379a000000000000000000000000000000000000000000000000000000000815260040180806020018281038252602f8152602001806147ce602f913960400191505060405180910390fd5b5b505050505050565b60608161448c5760405160200180806147fd60259139602501905060405160208183030381529060405280519060200120868685604051602401808473ffffffffffffffffffffffffffffffffffffffff1681526020018373ffffffffffffffffffffffffffffffffffffffff1681526020018281526020019350505050604051602081830303815290604052907bffffffffffffffffffffffffffffffffffffffffffffffffffffffff19166020820180517bffffffffffffffffffffffffffffffffffffffffffffffffffffffff8381831617835250505050614560565b60405160200180807f7472616e7366657228616464726573732c75696e7432353629000000000000008152506019019050604051602081830303815290604052805190602001208584604051602401808373ffffffffffffffffffffffffffffffffffffffff16815260200182815260200192505050604051602081830303815290604052907bffffffffffffffffffffffffffffffffffffffffffffffffffffffff19166020820180517bffffffffffffffffffffffffffffffffffffffffffffffffffffffff83818316178352505050505b905060608673ffffffffffffffffffffffffffffffffffffffff16633f579f42866000856040518463ffffffff1660e01b8152600401808473ffffffffffffffffffffffffffffffffffffffff16815260200183815260200180602001828103825283818151815260200191508051906020019080838360005b838110156145f55780820151818401526020810190506145da565b50505050905090810190601f1680156146225780820380516001836020036101000a031916815260200191505b50945050505050600060405180830381600087803b15801561464357600080fd5b505af1158015614657573d6000803e3d6000fd5b505050506040513d6000823e3d601f19601f82011682018060405250602081101561468157600080fd5b81019080805160405193929190846401000000008211156146a157600080fd5b838201915060208201858111156146b757600080fd5b82518660018202830111640100000000821117156146d457600080fd5b8083526020830192505050908051906020019080838360005b838110156147085780820151818401526020810190506146ed565b50505050905090810190601f1680156147355780820380516001836020036101000a031916815260200191505b5060405250505090506000815111156147c45780806020019051602081101561475d57600080fd5b81019080805190602001909291905050506147c3576040517f08c379a00000000000000000000000000000000000000000000000000000000081526004018080602001828103825260308152602001806148516030913960400191505060405180910390fd5b5b5050505050505056fe41726368616e6f76614d69677261746f723a204552433230546f6b656e207472616e736665722072657665727465647472616e7366657246726f6d28616464726573732c616464726573732c75696e7432353629496e697469616c697a61626c653a2074782e6f726967696e206973206e6f742074686520696e697469616c697a657241726368616e6f76614d69677261746f723a20455243373231207472616e736665722066726f6d20726576657274656441726368616e6f76614d69677261746f723a20496e76616c69642061726368616e6f7661206163636f756e7420646576696365207369676e6174757265a164736f6c634300060c000a",
  "devdoc": {
    "author": "Stanisaw Gogowski <stan@pillarproject.io>",
    "kind": "dev",
    "methods": {
      "constructor": {
        "details": "public constructor"
      },
      "initialize(address,address)": {
        "params": {
          "ensController_": "ens controller address",
          "ensRegistry_": "ens registry address"
        }
      },
      "isInitialized()": {
        "returns": {
          "_0": "true when contract is initialized"
        }
      }
    },
    "title": "Archanova migrator",
    "version": 1
  },
  "userdoc": {
    "kind": "user",
    "methods": {
      "initialize(address,address)": {
        "notice": "Initializes `ArchanovaMigrator` contract"
      },
      "isInitialized()": {
        "notice": "Check if contract is initialized"
      }
    },
    "version": 1
  },
  "storageLayout": {
    "storage": [
      {
        "astId": 86,
        "contract": "src/ArchanovaMigrator.sol:ArchanovaMigrator",
        "label": "initializer",
        "offset": 0,
        "slot": "0",
        "type": "t_address"
      },
      {
        "astId": 286,
        "contract": "src/ArchanovaMigrator.sol:ArchanovaMigrator",
        "label": "ensController",
        "offset": 0,
        "slot": "1",
        "type": "t_address_payable"
      },
      {
        "astId": 288,
        "contract": "src/ArchanovaMigrator.sol:ArchanovaMigrator",
        "label": "ensRegistry",
        "offset": 0,
        "slot": "2",
        "type": "t_address_payable"
      },
      {
        "astId": 290,
        "contract": "src/ArchanovaMigrator.sol:ArchanovaMigrator",
        "label": "chainId",
        "offset": 0,
        "slot": "3",
        "type": "t_uint256"
      }
    ],
    "types": {
      "t_address": {
        "encoding": "inplace",
        "label": "address",
        "numberOfBytes": "20"
      },
      "t_address_payable": {
        "encoding": "inplace",
        "label": "address payable",
        "numberOfBytes": "20"
      },
      "t_uint256": {
        "encoding": "inplace",
        "label": "uint256",
        "numberOfBytes": "32"
      }
    }
  }
}