{
  "address": "0x8c4C78234259897FC38071b771d71d64E8A8dC84",
  "abi": [
    {
      "anonymous": false,
      "inputs": [
        {
          "indexed": false,
          "internalType": "address",
          "name": "account",
          "type": "address"
        },
        {
          "indexed": false,
          "internalType": "uint256",
          "name": "nonce",
          "type": "uint256"
        }
      ],
      "name": "NewAccountOwnerCall",
      "type": "event"
    },
    {
      "constant": true,
      "inputs": [
        {
          "internalType": "address",
          "name": "",
          "type": "address"
        }
      ],
      "name": "accounts",
      "outputs": [
        {
          "internalType": "uint256",
          "name": "nonce",
          "type": "uint256"
        }
      ],
      "payable": false,
      "stateMutability": "view",
      "type": "function"
    },
    {
      "constant": false,
      "inputs": [
        {
          "internalType": "address",
          "name": "_account",
          "type": "address"
        },
        {
          "internalType": "uint256",
          "name": "_nonce",
          "type": "uint256"
        },
        {
          "internalType": "bytes",
          "name": "_data",
          "type": "bytes"
        },
        {
          "internalType": "uint256",
          "name": "_refundGas",
          "type": "uint256"
        },
        {
          "internalType": "bytes",
          "name": "_signature",
          "type": "bytes"
        }
      ],
      "name": "forwardAccountOwnerCall",
      "outputs": [],
      "payable": false,
      "stateMutability": "nonpayable",
      "type": "function"
    },
    {
      "constant": false,
      "inputs": [
        {
          "internalType": "address",
          "name": "_account",
          "type": "address"
        },
        {
          "internalType": "uint256",
          "name": "_nonce",
          "type": "uint256"
        },
        {
          "internalType": "bytes",
          "name": "_data1",
          "type": "bytes"
        },
        {
          "internalType": "bytes",
          "name": "_data2",
          "type": "bytes"
        },
        {
          "internalType": "uint256",
          "name": "_refundGas",
          "type": "uint256"
        },
        {
          "internalType": "bytes",
          "name": "_signature",
          "type": "bytes"
        }
      ],
      "name": "forwardAccountOwnerCalls2",
      "outputs": [],
      "payable": false,
      "stateMutability": "nonpayable",
      "type": "function"
    },
    {
      "constant": false,
      "inputs": [
        {
          "internalType": "address",
          "name": "_account",
          "type": "address"
        },
        {
          "internalType": "uint256",
          "name": "_nonce",
          "type": "uint256"
        },
        {
          "internalType": "bytes",
          "name": "_data1",
          "type": "bytes"
        },
        {
          "internalType": "bytes",
          "name": "_data2",
          "type": "bytes"
        },
        {
          "internalType": "bytes",
          "name": "_data3",
          "type": "bytes"
        },
        {
          "internalType": "uint256",
          "name": "_refundGas",
          "type": "uint256"
        },
        {
          "internalType": "bytes",
          "name": "_signature",
          "type": "bytes"
        }
      ],
      "name": "forwardAccountOwnerCalls3",
      "outputs": [],
      "payable": false,
      "stateMutability": "nonpayable",
      "type": "function"
    },
    {
      "constant": false,
      "inputs": [
        {
          "internalType": "address",
          "name": "_account",
          "type": "address"
        },
        {
          "internalType": "uint256",
          "name": "_nonce",
          "type": "uint256"
        },
        {
          "internalType": "bytes",
          "name": "_data1",
          "type": "bytes"
        },
        {
          "internalType": "bytes",
          "name": "_data2",
          "type": "bytes"
        },
        {
          "internalType": "bytes",
          "name": "_data3",
          "type": "bytes"
        },
        {
          "internalType": "bytes",
          "name": "_data4",
          "type": "bytes"
        },
        {
          "internalType": "uint256",
          "name": "_refundGas",
          "type": "uint256"
        },
        {
          "internalType": "bytes",
          "name": "_signature",
          "type": "bytes"
        }
      ],
      "name": "forwardAccountOwnerCalls4",
      "outputs": [],
      "payable": false,
      "stateMutability": "nonpayable",
      "type": "function"
    },
    {
      "constant": false,
      "inputs": [
        {
          "internalType": "address",
          "name": "_account",
          "type": "address"
        },
        {
          "internalType": "uint256",
          "name": "_nonce",
          "type": "uint256"
        },
        {
          "internalType": "bytes",
          "name": "_data1",
          "type": "bytes"
        },
        {
          "internalType": "bytes",
          "name": "_data2",
          "type": "bytes"
        },
        {
          "internalType": "bytes",
          "name": "_data3",
          "type": "bytes"
        },
        {
          "internalType": "bytes",
          "name": "_data4",
          "type": "bytes"
        },
        {
          "internalType": "bytes",
          "name": "_data5",
          "type": "bytes"
        },
        {
          "internalType": "uint256",
          "name": "_refundGas",
          "type": "uint256"
        },
        {
          "internalType": "bytes",
          "name": "_signature",
          "type": "bytes"
        }
      ],
      "name": "forwardAccountOwnerCalls5",
      "outputs": [],
      "payable": false,
      "stateMutability": "nonpayable",
      "type": "function"
    }
  ],
  "transactionHash": "0x1332814505600f0f3dbcc61ad47432d96700888f83804ef5bca8550d495fb59a",
  "args": [],
  "solcInputHash": "652c419915b8e2f38506398546d9c2e9",
  "bytecode": "0x608060405234801561001057600080fd5b50611d3d806100206000396000f3fe608060405234801561001057600080fd5b50600436106100625760003560e01c806309403cb61461006757806348fed175146101ed5780635e5c06e2146105395780635fd785bb14610591578063671e8e22146107ae578063ec40de3414610a62575b600080fd5b6101eb600480360360a081101561007d57600080fd5b81019080803573ffffffffffffffffffffffffffffffffffffffff16906020019092919080359060200190929190803590602001906401000000008111156100c457600080fd5b8201836020820111156100d657600080fd5b803590602001918460018302840111640100000000831117156100f857600080fd5b91908080601f016020809104026020016040519081016040528093929190818152602001838380828437600081840152601f19601f820116905080830192505050505050509192919290803590602001909291908035906020019064010000000081111561016557600080fd5b82018360208201111561017757600080fd5b8035906020019184600183028401116401000000008311171561019957600080fd5b91908080601f016020809104026020016040519081016040528093929190818152602001838380828437600081840152601f19601f820116905080830192505050505050509192919290505050610e45565b005b610537600480360361010081101561020457600080fd5b81019080803573ffffffffffffffffffffffffffffffffffffffff169060200190929190803590602001909291908035906020019064010000000081111561024b57600080fd5b82018360208201111561025d57600080fd5b8035906020019184600183028401116401000000008311171561027f57600080fd5b91908080601f016020809104026020016040519081016040528093929190818152602001838380828437600081840152601f19601f820116905080830192505050505050509192919290803590602001906401000000008111156102e257600080fd5b8201836020820111156102f457600080fd5b8035906020019184600183028401116401000000008311171561031657600080fd5b91908080601f016020809104026020016040519081016040528093929190818152602001838380828437600081840152601f19601f8201169050808301925050505050505091929192908035906020019064010000000081111561037957600080fd5b82018360208201111561038b57600080fd5b803590602001918460018302840111640100000000831117156103ad57600080fd5b91908080601f016020809104026020016040519081016040528093929190818152602001838380828437600081840152601f19601f8201169050808301925050505050505091929192908035906020019064010000000081111561041057600080fd5b82018360208201111561042257600080fd5b8035906020019184600183028401116401000000008311171561044457600080fd5b91908080601f016020809104026020016040519081016040528093929190818152602001838380828437600081840152601f19601f82011690508083019250505050505050919291929080359060200190929190803590602001906401000000008111156104b157600080fd5b8201836020820111156104c357600080fd5b803590602001918460018302840111640100000000831117156104e557600080fd5b91908080601f016020809104026020016040519081016040528093929190818152602001838380828437600081840152601f19601f820116905080830192505050505050509192919290505050610e7a565b005b61057b6004803603602081101561054f57600080fd5b81019080803573ffffffffffffffffffffffffffffffffffffffff169060200190929190505050610ef4565b6040518082815260200191505060405180910390f35b6107ac600480360360c08110156105a757600080fd5b81019080803573ffffffffffffffffffffffffffffffffffffffff16906020019092919080359060200190929190803590602001906401000000008111156105ee57600080fd5b82018360208201111561060057600080fd5b8035906020019184600183028401116401000000008311171561062257600080fd5b91908080601f016020809104026020016040519081016040528093929190818152602001838380828437600081840152601f19601f8201169050808301925050505050505091929192908035906020019064010000000081111561068557600080fd5b82018360208201111561069757600080fd5b803590602001918460018302840111640100000000831117156106b957600080fd5b91908080601f016020809104026020016040519081016040528093929190818152602001838380828437600081840152601f19601f820116905080830192505050505050509192919290803590602001909291908035906020019064010000000081111561072657600080fd5b82018360208201111561073857600080fd5b8035906020019184600183028401116401000000008311171561075a57600080fd5b91908080601f016020809104026020016040519081016040528093929190818152602001838380828437600081840152601f19601f820116905080830192505050505050509192919290505050610f12565b005b610a60600480360360e08110156107c457600080fd5b81019080803573ffffffffffffffffffffffffffffffffffffffff169060200190929190803590602001909291908035906020019064010000000081111561080b57600080fd5b82018360208201111561081d57600080fd5b8035906020019184600183028401116401000000008311171561083f57600080fd5b91908080601f016020809104026020016040519081016040528093929190818152602001838380828437600081840152601f19601f820116905080830192505050505050509192919290803590602001906401000000008111156108a257600080fd5b8201836020820111156108b457600080fd5b803590602001918460018302840111640100000000831117156108d657600080fd5b91908080601f016020809104026020016040519081016040528093929190818152602001838380828437600081840152601f19601f8201169050808301925050505050505091929192908035906020019064010000000081111561093957600080fd5b82018360208201111561094b57600080fd5b8035906020019184600183028401116401000000008311171561096d57600080fd5b91908080601f016020809104026020016040519081016040528093929190818152602001838380828437600081840152601f19601f82011690508083019250505050505050919291929080359060200190929190803590602001906401000000008111156109da57600080fd5b8201836020820111156109ec57600080fd5b80359060200191846001830284011164010000000083111715610a0e57600080fd5b91908080601f016020809104026020016040519081016040528093929190818152602001838380828437600081840152601f19601f820116905080830192505050505050509192919290505050610f5e565b005b610e436004803603610120811015610a7957600080fd5b81019080803573ffffffffffffffffffffffffffffffffffffffff1690602001909291908035906020019092919080359060200190640100000000811115610ac057600080fd5b820183602082011115610ad257600080fd5b80359060200191846001830284011164010000000083111715610af457600080fd5b91908080601f016020809104026020016040519081016040528093929190818152602001838380828437600081840152601f19601f82011690508083019250505050505050919291929080359060200190640100000000811115610b5757600080fd5b820183602082011115610b6957600080fd5b80359060200191846001830284011164010000000083111715610b8b57600080fd5b91908080601f016020809104026020016040519081016040528093929190818152602001838380828437600081840152601f19601f82011690508083019250505050505050919291929080359060200190640100000000811115610bee57600080fd5b820183602082011115610c0057600080fd5b80359060200191846001830284011164010000000083111715610c2257600080fd5b91908080601f016020809104026020016040519081016040528093929190818152602001838380828437600081840152601f19601f82011690508083019250505050505050919291929080359060200190640100000000811115610c8557600080fd5b820183602082011115610c9757600080fd5b80359060200191846001830284011164010000000083111715610cb957600080fd5b91908080601f016020809104026020016040519081016040528093929190818152602001838380828437600081840152601f19601f82011690508083019250505050505050919291929080359060200190640100000000811115610d1c57600080fd5b820183602082011115610d2e57600080fd5b80359060200191846001830284011164010000000083111715610d5057600080fd5b91908080601f016020809104026020016040519081016040528093929190818152602001838380828437600081840152601f19601f8201169050808301925050505050505091929192908035906020019092919080359060200190640100000000811115610dbd57600080fd5b820183602082011115610dcf57600080fd5b80359060200191846001830284011164010000000083111715610df157600080fd5b91908080601f016020809104026020016040519081016040528093929190818152602001838380828437600081840152601f19601f820116905080830192505050505050509192919290505050610fc1565b005b610e4d611ca5565b8381600060058110610e5b57fe5b6020020181905250610e7286868360018787611052565b505050505050565b610e82611ca5565b8681600060058110610e9057fe5b60200201819052508581600160058110610ea657fe5b60200201819052508481600260058110610ebc57fe5b60200201819052508381600360058110610ed257fe5b6020020181905250610ee989898360048787611052565b505050505050505050565b60006020528060005260406000206000915090508060000154905081565b610f1a611ca5565b8481600060058110610f2857fe5b60200201819052508381600160058110610f3e57fe5b6020020181905250610f5587878360028787611052565b50505050505050565b610f66611ca5565b8581600060058110610f7457fe5b60200201819052508481600160058110610f8a57fe5b60200201819052508381600260058110610fa057fe5b6020020181905250610fb788888360038787611052565b5050505050505050565b610fc9611ca5565b8781600060058110610fd757fe5b60200201819052508681600160058110610fed57fe5b6020020181905250858160026005811061100357fe5b6020020181905250848160036005811061101957fe5b6020020181905250838160046005811061102f57fe5b60200201819052506110468a8a8360058787611052565b50505050505050505050565b60608460006005811061106157fe5b602002015190506000600190505b848110156110a95761109a86826005811061108657fe5b60200201518361194790919063ffffffff16565b9150808060010191505061106f565b50600061120a306040518080611ccd603c9139603c01905060405180910390208a8a86893a604051602001808873ffffffffffffffffffffffffffffffffffffffff1673ffffffffffffffffffffffffffffffffffffffff1660601b8152601401877bffffffffffffffffffffffffffffffffffffffffffffffffffffffff19167bffffffffffffffffffffffffffffffffffffffffffffffffffffffff191681526004018673ffffffffffffffffffffffffffffffffffffffff1673ffffffffffffffffffffffffffffffffffffffff1660601b815260140185815260200184805190602001908083835b602083106111b85780518252602082019150602081019050602083039250611195565b6001836020036101000a038019825116818451168082178552505050505050905001838152602001828152602001975050505050505050604051602081830303815290604052805190602001206119d1565b9050866000808a73ffffffffffffffffffffffffffffffffffffffff1673ffffffffffffffffffffffffffffffffffffffff16815260200190815260200160002060000154146040518060400160405280601581526020017f496e76616c6964206163636f756e74206e6f6e636500000000000000000000008152509061132c576040517f08c379a00000000000000000000000000000000000000000000000000000000081526004018080602001828103825283818151815260200191508051906020019080838360005b838110156112f15780820151818401526020810190506112d6565b50505050905090810190601f16801561131e5780820380516001836020036101000a031916815260200191505b509250505060405180910390fd5b5061135881848a73ffffffffffffffffffffffffffffffffffffffff16611a299092919063ffffffff16565b6040518060400160405280601681526020017f496e76616c6964206d657373616765207369676e65720000000000000000000081525090611434576040517f08c379a00000000000000000000000000000000000000000000000000000000081526004018080602001828103825283818151815260200191508051906020019080838360005b838110156113f95780820151818401526020810190506113de565b50505050905090810190601f1680156114265780820380516001836020036101000a031916815260200191505b509250505060405180910390fd5b5061148a60016000808b73ffffffffffffffffffffffffffffffffffffffff1673ffffffffffffffffffffffffffffffffffffffff16815260200190815260200160002060000154611a8a90919063ffffffff16565b6000808a73ffffffffffffffffffffffffffffffffffffffff1673ffffffffffffffffffffffffffffffffffffffff168152602001908152602001600020600001819055507fabdd351df118af9f4fddc77805d3855fc9b508fd37b13ed9bda0027c30d7aafb8888604051808373ffffffffffffffffffffffffffffffffffffffff1673ffffffffffffffffffffffffffffffffffffffff1681526020018281526020019250505060405180910390a1600080600090505b868110156116fd578973ffffffffffffffffffffffffffffffffffffffff1688826005811061156d57fe5b60200201516040518082805190602001908083835b602083106115a55780518252602082019150602081019050602083039250611582565b6001836020036101000a0380198251168184511680821785525050505050509050019150506000604051808303816000865af19150503d8060008114611607576040519150601f19603f3d011682016040523d82523d6000602084013e61160c565b606091505b505080925050816040518060400160405280600b81526020017f43616c6c206661696c6564000000000000000000000000000000000000000000815250906116ef576040517f08c379a00000000000000000000000000000000000000000000000000000000081526004018080602001828103825283818151815260200191508051906020019080838360005b838110156116b4578082015181840152602081019050611699565b50505050905090810190601f1680156116e15780820380516001836020036101000a031916815260200191505b509250505060405180910390fd5b508080600101915050611542565b50600085111561193c578873ffffffffffffffffffffffffffffffffffffffff16633f579f42336117373a89611aa990919063ffffffff16565b60006040519080825280601f01601f19166020018201604052801561176b5781602001600182028038833980820191505090505b506040518463ffffffff1660e01b8152600401808473ffffffffffffffffffffffffffffffffffffffff1673ffffffffffffffffffffffffffffffffffffffff16815260200183815260200180602001828103825283818151815260200191508051906020019080838360005b838110156117f35780820151818401526020810190506117d8565b50505050905090810190601f1680156118205780820380516001836020036101000a031916815260200191505b50945050505050600060405180830381600087803b15801561184157600080fd5b505af1158015611855573d6000803e3d6000fd5b505050506040513d6000823e3d601f19601f82011682018060405250602081101561187f57600080fd5b810190808051604051939291908464010000000082111561189f57600080fd5b838201915060208201858111156118b557600080fd5b82518660018202830111640100000000821117156118d257600080fd5b8083526020830192505050908051906020019080838360005b838110156119065780820151818401526020810190506118eb565b50505050905090810190601f1680156119335780820380516001836020036101000a031916815260200191505b50604052505050505b505050505050505050565b6060806040519050835180825260208201818101602087015b8183101561197d5780518352602083019250602081019050611960565b50855192508351830184528091508282019050602086015b818310156119b25780518352602083019250602081019050611995565b50601f19601f8851850115830101166040525050508091505092915050565b60008160405160200180807f19457468657265756d205369676e6564204d6573736167653a0a333200000000815250601c01828152602001915050604051602081830303815290604052805190602001209050919050565b600080611a3f8385611ae390919063ffffffff16565b9050600073ffffffffffffffffffffffffffffffffffffffff168173ffffffffffffffffffffffffffffffffffffffff1614611a8257611a7f8582611bc5565b91505b509392505050565b600080828401905083811015611a9f57600080fd5b8091505092915050565b600080831415611abc5760009050611add565b6000828402905082848281611acd57fe5b0414611ad857600080fd5b809150505b92915050565b6000806000806041855114611afe5760009350505050611bbf565b6020850151925060408501519150606085015160001a9050601b8160ff161015611b2957601b810190505b601b8160ff1614158015611b415750601c8160ff1614155b15611b525760009350505050611bbf565b60018682858560405160008152602001604052604051808581526020018460ff1660ff1681526020018381526020018281526020019450505050506020604051602081039080840390855afa158015611baf573d6000803e3d6000fd5b5050506020604051035193505050505b92915050565b6000808373ffffffffffffffffffffffffffffffffffffffff1663e7b4cac6846040518263ffffffff1660e01b8152600401808273ffffffffffffffffffffffffffffffffffffffff1673ffffffffffffffffffffffffffffffffffffffff16815260200191505060606040518083038186803b158015611c4557600080fd5b505afa158015611c59573d6000803e3d6000fd5b505050506040513d6060811015611c6f57600080fd5b81019080805190602001909291908051906020019092919080519060200190929190505050905050809150508091505092915050565b6040518060a001604052806005905b6060815260200190600190039081611cb4579050509056fe666f72776172644163636f756e744f776e657243616c6c28616464726573732c75696e743235362c62797465732c75696e743235362c627974657329a265627a7a72315820c7e92ee3374aad1cbbeb629d6a6aea228b6efdf30bb45d7ab74f67ed452dd51964736f6c63430005110032",
  "devdoc": {
    "methods": {},
    "title": "Account Proxy V1"
  },
  "userdoc": {
    "methods": {}
  },
  "storageLayout": {
    "storage": [
      {
        "astId": 3591,
        "contract": "src/account/AccountProxyV1.sol:AccountProxyV1",
        "label": "accounts",
        "offset": 0,
        "slot": "0",
        "type": "t_mapping(t_address,t_struct(Account)3578_storage)"
      }
    ],
    "types": {
      "t_address": {
        "encoding": "inplace",
        "label": "address",
        "numberOfBytes": "20"
      },
      "t_mapping(t_address,t_struct(Account)3578_storage)": {
        "encoding": "mapping",
        "key": "t_address",
        "label": "mapping(address => struct AccountProxyV1.Account)",
        "numberOfBytes": "32",
        "value": "t_struct(Account)3578_storage"
      },
      "t_struct(Account)3578_storage": {
        "encoding": "inplace",
        "label": "struct AccountProxyV1.Account",
        "members": [
          {
            "astId": 3577,
            "contract": "src/account/AccountProxyV1.sol:AccountProxyV1",
            "label": "nonce",
            "offset": 0,
            "slot": "0",
            "type": "t_uint256"
          }
        ],
        "numberOfBytes": "32"
      },
      "t_uint256": {
        "encoding": "inplace",
        "label": "uint256",
        "numberOfBytes": "32"
      }
    }
  }
}